{
	"oblig1/oblig1/RPS.sol": {
		"RPC": {
			"abi": [
				{
					"anonymous": false,
					"inputs": [
						{
							"indexed": false,
							"internalType": "address",
							"name": "sender",
							"type": "address"
						},
						{
							"indexed": false,
							"internalType": "bytes32",
							"name": "vote",
							"type": "bytes32"
						}
					],
					"name": "joinGame",
					"type": "event"
				},
				{
					"anonymous": false,
					"inputs": [
						{
							"indexed": false,
							"internalType": "bytes32",
							"name": "hashed",
							"type": "bytes32"
						},
						{
							"indexed": false,
							"internalType": "string",
							"name": "s",
							"type": "string"
						}
					],
					"name": "makeHash",
					"type": "event"
				},
				{
					"anonymous": false,
					"inputs": [
						{
							"indexed": false,
							"internalType": "address",
							"name": "sender",
							"type": "address"
						},
						{
							"indexed": false,
							"internalType": "string",
							"name": "vote",
							"type": "string"
						}
					],
					"name": "revealVote",
					"type": "event"
				},
				{
					"anonymous": false,
					"inputs": [
						{
							"indexed": false,
							"internalType": "address",
							"name": "sender",
							"type": "address"
						},
						{
							"indexed": false,
							"internalType": "int256",
							"name": "amount",
							"type": "int256"
						}
					],
					"name": "withdrawGame",
					"type": "event"
				},
				{
					"inputs": [
						{
							"internalType": "string",
							"name": "",
							"type": "string"
						}
					],
					"name": "activeGames",
					"outputs": [
						{
							"internalType": "string",
							"name": "id",
							"type": "string"
						},
						{
							"internalType": "address",
							"name": "p1",
							"type": "address"
						},
						{
							"internalType": "address",
							"name": "p2",
							"type": "address"
						},
						{
							"internalType": "bytes32",
							"name": "v1",
							"type": "bytes32"
						},
						{
							"internalType": "bytes32",
							"name": "v2",
							"type": "bytes32"
						},
						{
							"internalType": "uint256",
							"name": "revealed",
							"type": "uint256"
						},
						{
							"internalType": "address",
							"name": "revealer",
							"type": "address"
						},
						{
							"internalType": "address",
							"name": "winner",
							"type": "address"
						},
						{
							"internalType": "uint256",
							"name": "stake",
							"type": "uint256"
						},
						{
							"internalType": "uint256",
							"name": "startTime",
							"type": "uint256"
						}
					],
					"stateMutability": "view",
					"type": "function"
				},
				{
					"inputs": [
						{
							"internalType": "string",
							"name": "str",
							"type": "string"
						},
						{
							"internalType": "string",
							"name": "salt",
							"type": "string"
						}
					],
					"name": "hashThis",
					"outputs": [],
					"stateMutability": "nonpayable",
					"type": "function"
				},
				{
					"inputs": [
						{
							"internalType": "address",
							"name": "",
							"type": "address"
						}
					],
					"name": "isInGame",
					"outputs": [
						{
							"internalType": "bool",
							"name": "",
							"type": "bool"
						}
					],
					"stateMutability": "view",
					"type": "function"
				},
				{
					"inputs": [
						{
							"internalType": "bytes32",
							"name": "_vote",
							"type": "bytes32"
						},
						{
							"internalType": "string",
							"name": "_id",
							"type": "string"
						}
					],
					"name": "play",
					"outputs": [],
					"stateMutability": "payable",
					"type": "function"
				},
				{
					"inputs": [
						{
							"internalType": "string",
							"name": "vote",
							"type": "string"
						},
						{
							"internalType": "string",
							"name": "salt",
							"type": "string"
						},
						{
							"internalType": "string",
							"name": "_id",
							"type": "string"
						}
					],
					"name": "reveal",
					"outputs": [],
					"stateMutability": "nonpayable",
					"type": "function"
				},
				{
					"inputs": [
						{
							"internalType": "string",
							"name": "_id",
							"type": "string"
						}
					],
					"name": "withdraw",
					"outputs": [],
					"stateMutability": "nonpayable",
					"type": "function"
				}
			],
			"devdoc": {
				"kind": "dev",
				"methods": {},
				"version": 1
			},
			"evm": {
				"assembly": "    /* \"oblig1/oblig1/RPS.sol\":65:5690  contract RPC{... */\n  mstore(0x40, 0x80)\n    /* \"oblig1/oblig1/RPS.sol\":611:612  2 */\n  0x02\n    /* \"oblig1/oblig1/RPS.sol\":595:612  uint minStake = 2 */\n  dup1\n  sstore\n    /* \"oblig1/oblig1/RPS.sol\":65:5690  contract RPC{... */\n  callvalue\n  dup1\n  iszero\n  tag_1\n  jumpi\n  0x00\n  dup1\n  revert\ntag_1:\n  pop\n  dataSize(sub_0)\n  dup1\n  dataOffset(sub_0)\n  0x00\n  codecopy\n  0x00\n  return\nstop\n\nsub_0: assembly {\n        /* \"oblig1/oblig1/RPS.sol\":65:5690  contract RPC{... */\n      mstore(0x40, 0x80)\n      jumpi(tag_1, lt(calldatasize, 0x04))\n      shr(0xe0, calldataload(0x00))\n      dup1\n      0x14582b77\n      eq\n      tag_2\n      jumpi\n      dup1\n      0x31fb67c2\n      eq\n      tag_3\n      jumpi\n      dup1\n      0x76e033c7\n      eq\n      tag_4\n      jumpi\n      dup1\n      0xd5a86a43\n      eq\n      tag_5\n      jumpi\n      dup1\n      0xfb9a3591\n      eq\n      tag_6\n      jumpi\n      dup1\n      0xfef39572\n      eq\n      tag_7\n      jumpi\n    tag_1:\n      0x00\n      dup1\n      revert\n        /* \"oblig1/oblig1/RPS.sol\":623:1717  function play(bytes32 _vote,string memory _id) public payable {... */\n    tag_2:\n      tag_8\n      0x04\n      dup1\n      calldatasize\n      sub\n      dup2\n      add\n      swap1\n      tag_9\n      swap2\n      swap1\n      tag_10\n      jump\t// in\n    tag_9:\n      tag_11\n      jump\t// in\n    tag_8:\n      stop\n        /* \"oblig1/oblig1/RPS.sol\":3884:5425  function withdraw(string memory _id) public {... */\n    tag_3:\n      callvalue\n      dup1\n      iszero\n      tag_12\n      jumpi\n      0x00\n      dup1\n      revert\n    tag_12:\n      pop\n      tag_13\n      0x04\n      dup1\n      calldatasize\n      sub\n      dup2\n      add\n      swap1\n      tag_14\n      swap2\n      swap1\n      tag_15\n      jump\t// in\n    tag_14:\n      tag_16\n      jump\t// in\n    tag_13:\n      stop\n        /* \"oblig1/oblig1/RPS.sol\":388:428  mapping(address => bool) public isInGame */\n    tag_4:\n      callvalue\n      dup1\n      iszero\n      tag_17\n      jumpi\n      0x00\n      dup1\n      revert\n    tag_17:\n      pop\n      tag_18\n      0x04\n      dup1\n      calldatasize\n      sub\n      dup2\n      add\n      swap1\n      tag_19\n      swap2\n      swap1\n      tag_20\n      jump\t// in\n    tag_19:\n      tag_21\n      jump\t// in\n    tag_18:\n      mload(0x40)\n      tag_22\n      swap2\n      swap1\n      tag_23\n      jump\t// in\n    tag_22:\n      mload(0x40)\n      dup1\n      swap2\n      sub\n      swap1\n      return\n        /* \"oblig1/oblig1/RPS.sol\":339:381  mapping(string => Game) public activeGames */\n    tag_5:\n      callvalue\n      dup1\n      iszero\n      tag_24\n      jumpi\n      0x00\n      dup1\n      revert\n    tag_24:\n      pop\n      tag_25\n      0x04\n      dup1\n      calldatasize\n      sub\n      dup2\n      add\n      swap1\n      tag_26\n      swap2\n      swap1\n      tag_15\n      jump\t// in\n    tag_26:\n      tag_27\n      jump\t// in\n    tag_25:\n      mload(0x40)\n      tag_28\n      swap11\n      swap10\n      swap9\n      swap8\n      swap7\n      swap6\n      swap5\n      swap4\n      swap3\n      swap2\n      swap1\n      tag_29\n      jump\t// in\n    tag_28:\n      mload(0x40)\n      dup1\n      swap2\n      sub\n      swap1\n      return\n        /* \"oblig1/oblig1/RPS.sol\":1733:3868  function reveal(string memory vote, string memory salt, string memory _id) public {... */\n    tag_6:\n      callvalue\n      dup1\n      iszero\n      tag_30\n      jumpi\n      0x00\n      dup1\n      revert\n    tag_30:\n      pop\n      tag_31\n      0x04\n      dup1\n      calldatasize\n      sub\n      dup2\n      add\n      swap1\n      tag_32\n      swap2\n      swap1\n      tag_33\n      jump\t// in\n    tag_32:\n      tag_34\n      jump\t// in\n    tag_31:\n      stop\n        /* \"oblig1/oblig1/RPS.sol\":5486:5683  function hashThis(string memory str, string memory salt) public {... */\n    tag_7:\n      callvalue\n      dup1\n      iszero\n      tag_35\n      jumpi\n      0x00\n      dup1\n      revert\n    tag_35:\n      pop\n      tag_36\n      0x04\n      dup1\n      calldatasize\n      sub\n      dup2\n      add\n      swap1\n      tag_37\n      swap2\n      swap1\n      tag_38\n      jump\t// in\n    tag_37:\n      tag_39\n      jump\t// in\n    tag_36:\n      stop\n        /* \"oblig1/oblig1/RPS.sol\":623:1717  function play(bytes32 _vote,string memory _id) public payable {... */\n    tag_11:\n        /* \"oblig1/oblig1/RPS.sol\":706:714  isInGame */\n      0x01\n        /* \"oblig1/oblig1/RPS.sol\":706:726  isInGame[msg.sender] */\n      0x00\n        /* \"oblig1/oblig1/RPS.sol\":715:725  msg.sender */\n      caller\n        /* \"oblig1/oblig1/RPS.sol\":706:726  isInGame[msg.sender] */\n      0xffffffffffffffffffffffffffffffffffffffff\n      and\n      0xffffffffffffffffffffffffffffffffffffffff\n      and\n      dup2\n      mstore\n      0x20\n      add\n      swap1\n      dup2\n      mstore\n      0x20\n      add\n      0x00\n      keccak256\n      0x00\n      swap1\n      sload\n      swap1\n      0x0100\n      exp\n      swap1\n      div\n      0xff\n      and\n        /* \"oblig1/oblig1/RPS.sol\":704:727  !(isInGame[msg.sender]) */\n      iszero\n        /* \"oblig1/oblig1/RPS.sol\":696:757  require(!(isInGame[msg.sender]), \"You are already in a game\") */\n      tag_41\n      jumpi\n      mload(0x40)\n      0x08c379a000000000000000000000000000000000000000000000000000000000\n      dup2\n      mstore\n      0x04\n      add\n      tag_42\n      swap1\n      tag_43\n      jump\t// in\n    tag_42:\n      mload(0x40)\n      dup1\n      swap2\n      sub\n      swap1\n      revert\n    tag_41:\n        /* \"oblig1/oblig1/RPS.sol\":789:797  minStake */\n      sload(0x02)\n        /* \"oblig1/oblig1/RPS.sol\":776:785  msg.value */\n      callvalue\n        /* \"oblig1/oblig1/RPS.sol\":776:797  msg.value >= minStake */\n      lt\n      iszero\n        /* \"oblig1/oblig1/RPS.sol\":768:815  require(msg.value >= minStake, \"Stake too low\") */\n      tag_44\n      jumpi\n      mload(0x40)\n      0x08c379a000000000000000000000000000000000000000000000000000000000\n      dup2\n      mstore\n      0x04\n      add\n      tag_45\n      swap1\n      tag_46\n      jump\t// in\n    tag_45:\n      mload(0x40)\n      dup1\n      swap2\n      sub\n      swap1\n      revert\n    tag_44:\n        /* \"oblig1/oblig1/RPS.sol\":905:906  0 */\n      0x00\n        /* \"oblig1/oblig1/RPS.sol\":874:907  activeGames[_id].p1 == address(0) */\n      0xffffffffffffffffffffffffffffffffffffffff\n      and\n        /* \"oblig1/oblig1/RPS.sol\":874:885  activeGames */\n      0x00\n        /* \"oblig1/oblig1/RPS.sol\":886:889  _id */\n      dup3\n        /* \"oblig1/oblig1/RPS.sol\":874:890  activeGames[_id] */\n      mload(0x40)\n      tag_47\n      swap2\n      swap1\n      tag_48\n      jump\t// in\n    tag_47:\n      swap1\n      dup2\n      mstore\n      0x20\n      add\n      mload(0x40)\n      dup1\n      swap2\n      sub\n      swap1\n      keccak256\n        /* \"oblig1/oblig1/RPS.sol\":874:893  activeGames[_id].p1 */\n      0x01\n      add\n      0x00\n      swap1\n      sload\n      swap1\n      0x0100\n      exp\n      swap1\n      div\n      0xffffffffffffffffffffffffffffffffffffffff\n      and\n        /* \"oblig1/oblig1/RPS.sol\":874:907  activeGames[_id].p1 == address(0) */\n      0xffffffffffffffffffffffffffffffffffffffff\n      and\n      sub\n        /* \"oblig1/oblig1/RPS.sol\":870:1627  if (activeGames[_id].p1 == address(0)) {... */\n      tag_49\n      jumpi\n        /* \"oblig1/oblig1/RPS.sol\":943:1304  Game({... */\n      mload(0x40)\n      dup1\n      0x0140\n      add\n      0x40\n      mstore\n      dup1\n        /* \"oblig1/oblig1/RPS.sol\":971:974  _id */\n      dup3\n        /* \"oblig1/oblig1/RPS.sol\":943:1304  Game({... */\n      dup2\n      mstore\n      0x20\n      add\n        /* \"oblig1/oblig1/RPS.sol\":997:1007  msg.sender */\n      caller\n        /* \"oblig1/oblig1/RPS.sol\":943:1304  Game({... */\n      0xffffffffffffffffffffffffffffffffffffffff\n      and\n      dup2\n      mstore\n      0x20\n      add\n        /* \"oblig1/oblig1/RPS.sol\":1038:1039  0 */\n      0x00\n        /* \"oblig1/oblig1/RPS.sol\":943:1304  Game({... */\n      0xffffffffffffffffffffffffffffffffffffffff\n      and\n      dup2\n      mstore\n      0x20\n      add\n        /* \"oblig1/oblig1/RPS.sol\":1063:1068  _vote */\n      dup4\n        /* \"oblig1/oblig1/RPS.sol\":943:1304  Game({... */\n      dup2\n      mstore\n      0x20\n      add\n        /* \"oblig1/oblig1/RPS.sol\":1099:1100  0 */\n      0x00\n        /* \"oblig1/oblig1/RPS.sol\":1091:1101  bytes32(0) */\n      dup1\n      shl\n        /* \"oblig1/oblig1/RPS.sol\":943:1304  Game({... */\n      dup2\n      mstore\n      0x20\n      add\n        /* \"oblig1/oblig1/RPS.sol\":1130:1132  99 */\n      0x63\n        /* \"oblig1/oblig1/RPS.sol\":943:1304  Game({... */\n      dup2\n      mstore\n      0x20\n      add\n        /* \"oblig1/oblig1/RPS.sol\":1169:1170  0 */\n      0x00\n        /* \"oblig1/oblig1/RPS.sol\":943:1304  Game({... */\n      0xffffffffffffffffffffffffffffffffffffffff\n      and\n      dup2\n      mstore\n      0x20\n      add\n        /* \"oblig1/oblig1/RPS.sol\":1206:1207  0 */\n      0x00\n        /* \"oblig1/oblig1/RPS.sol\":943:1304  Game({... */\n      0xffffffffffffffffffffffffffffffffffffffff\n      and\n      dup2\n      mstore\n      0x20\n      add\n        /* \"oblig1/oblig1/RPS.sol\":1234:1243  msg.value */\n      callvalue\n        /* \"oblig1/oblig1/RPS.sol\":943:1304  Game({... */\n      dup2\n      mstore\n      0x20\n      add\n        /* \"oblig1/oblig1/RPS.sol\":1273:1288  block.timestamp */\n      timestamp\n        /* \"oblig1/oblig1/RPS.sol\":943:1304  Game({... */\n      dup2\n      mstore\n      pop\n        /* \"oblig1/oblig1/RPS.sol\":924:935  activeGames */\n      0x00\n        /* \"oblig1/oblig1/RPS.sol\":936:939  _id */\n      dup3\n        /* \"oblig1/oblig1/RPS.sol\":924:940  activeGames[_id] */\n      mload(0x40)\n      tag_50\n      swap2\n      swap1\n      tag_48\n      jump\t// in\n    tag_50:\n      swap1\n      dup2\n      mstore\n      0x20\n      add\n      mload(0x40)\n      dup1\n      swap2\n      sub\n      swap1\n      keccak256\n        /* \"oblig1/oblig1/RPS.sol\":924:1304  activeGames[_id] = Game({... */\n      0x00\n      dup3\n      add\n      mload\n      dup2\n      0x00\n      add\n      swap1\n      dup2\n      tag_51\n      swap2\n      swap1\n      tag_52\n      jump\t// in\n    tag_51:\n      pop\n      0x20\n      dup3\n      add\n      mload\n      dup2\n      0x01\n      add\n      exp(0x0100, 0x00)\n      dup2\n      sload\n      dup2\n      0xffffffffffffffffffffffffffffffffffffffff\n      mul\n      not\n      and\n      swap1\n      dup4\n      0xffffffffffffffffffffffffffffffffffffffff\n      and\n      mul\n      or\n      swap1\n      sstore\n      pop\n      0x40\n      dup3\n      add\n      mload\n      dup2\n      0x02\n      add\n      exp(0x0100, 0x00)\n      dup2\n      sload\n      dup2\n      0xffffffffffffffffffffffffffffffffffffffff\n      mul\n      not\n      and\n      swap1\n      dup4\n      0xffffffffffffffffffffffffffffffffffffffff\n      and\n      mul\n      or\n      swap1\n      sstore\n      pop\n      0x60\n      dup3\n      add\n      mload\n      dup2\n      0x03\n      add\n      sstore\n      0x80\n      dup3\n      add\n      mload\n      dup2\n      0x04\n      add\n      sstore\n      0xa0\n      dup3\n      add\n      mload\n      dup2\n      0x05\n      add\n      sstore\n      0xc0\n      dup3\n      add\n      mload\n      dup2\n      0x06\n      add\n      exp(0x0100, 0x00)\n      dup2\n      sload\n      dup2\n      0xffffffffffffffffffffffffffffffffffffffff\n      mul\n      not\n      and\n      swap1\n      dup4\n      0xffffffffffffffffffffffffffffffffffffffff\n      and\n      mul\n      or\n      swap1\n      sstore\n      pop\n      0xe0\n      dup3\n      add\n      mload\n      dup2\n      0x07\n      add\n      exp(0x0100, 0x00)\n      dup2\n      sload\n      dup2\n      0xffffffffffffffffffffffffffffffffffffffff\n      mul\n      not\n      and\n      swap1\n      dup4\n      0xffffffffffffffffffffffffffffffffffffffff\n      and\n      mul\n      or\n      swap1\n      sstore\n      pop\n      0x0100\n      dup3\n      add\n      mload\n      dup2\n      0x08\n      add\n      sstore\n      0x0120\n      dup3\n      add\n      mload\n      dup2\n      0x09\n      add\n      sstore\n      swap1\n      pop\n      pop\n        /* \"oblig1/oblig1/RPS.sol\":870:1627  if (activeGames[_id].p1 == address(0)) {... */\n      jump(tag_53)\n    tag_49:\n        /* \"oblig1/oblig1/RPS.sol\":1392:1409  Game storage game */\n      0x00\n        /* \"oblig1/oblig1/RPS.sol\":1412:1423  activeGames */\n      dup1\n        /* \"oblig1/oblig1/RPS.sol\":1424:1427  _id */\n      dup3\n        /* \"oblig1/oblig1/RPS.sol\":1412:1428  activeGames[_id] */\n      mload(0x40)\n      tag_54\n      swap2\n      swap1\n      tag_48\n      jump\t// in\n    tag_54:\n      swap1\n      dup2\n      mstore\n      0x20\n      add\n      mload(0x40)\n      dup1\n      swap2\n      sub\n      swap1\n      keccak256\n        /* \"oblig1/oblig1/RPS.sol\":1392:1428  Game storage game = activeGames[_id] */\n      swap1\n      pop\n        /* \"oblig1/oblig1/RPS.sol\":1465:1474  msg.value */\n      callvalue\n        /* \"oblig1/oblig1/RPS.sol\":1451:1455  game */\n      dup2\n        /* \"oblig1/oblig1/RPS.sol\":1451:1461  game.stake */\n      0x08\n      add\n      sload\n        /* \"oblig1/oblig1/RPS.sol\":1451:1474  game.stake == msg.value */\n      eq\n        /* \"oblig1/oblig1/RPS.sol\":1443:1490  require(game.stake == msg.value, \"Wrong stake\") */\n      tag_55\n      jumpi\n      mload(0x40)\n      0x08c379a000000000000000000000000000000000000000000000000000000000\n      dup2\n      mstore\n      0x04\n      add\n      tag_56\n      swap1\n      tag_57\n      jump\t// in\n    tag_56:\n      mload(0x40)\n      dup1\n      swap2\n      sub\n      swap1\n      revert\n    tag_55:\n        /* \"oblig1/oblig1/RPS.sol\":1532:1533  0 */\n      0x00\n        /* \"oblig1/oblig1/RPS.sol\":1513:1534  game.p2 == address(0) */\n      0xffffffffffffffffffffffffffffffffffffffff\n      and\n        /* \"oblig1/oblig1/RPS.sol\":1513:1517  game */\n      dup2\n        /* \"oblig1/oblig1/RPS.sol\":1513:1520  game.p2 */\n      0x02\n      add\n      0x00\n      swap1\n      sload\n      swap1\n      0x0100\n      exp\n      swap1\n      div\n      0xffffffffffffffffffffffffffffffffffffffff\n      and\n        /* \"oblig1/oblig1/RPS.sol\":1513:1534  game.p2 == address(0) */\n      0xffffffffffffffffffffffffffffffffffffffff\n      and\n      eq\n        /* \"oblig1/oblig1/RPS.sol\":1505:1548  require(game.p2 == address(0), \"Game full\") */\n      tag_58\n      jumpi\n      mload(0x40)\n      0x08c379a000000000000000000000000000000000000000000000000000000000\n      dup2\n      mstore\n      0x04\n      add\n      tag_59\n      swap1\n      tag_60\n      jump\t// in\n    tag_59:\n      mload(0x40)\n      dup1\n      swap2\n      sub\n      swap1\n      revert\n    tag_58:\n        /* \"oblig1/oblig1/RPS.sol\":1575:1585  msg.sender */\n      caller\n        /* \"oblig1/oblig1/RPS.sol\":1565:1569  game */\n      dup2\n        /* \"oblig1/oblig1/RPS.sol\":1565:1572  game.p2 */\n      0x02\n      add\n      0x00\n        /* \"oblig1/oblig1/RPS.sol\":1565:1585  game.p2 = msg.sender */\n      0x0100\n      exp\n      dup2\n      sload\n      dup2\n      0xffffffffffffffffffffffffffffffffffffffff\n      mul\n      not\n      and\n      swap1\n      dup4\n      0xffffffffffffffffffffffffffffffffffffffff\n      and\n      mul\n      or\n      swap1\n      sstore\n      pop\n        /* \"oblig1/oblig1/RPS.sol\":1610:1615  _vote */\n      dup3\n        /* \"oblig1/oblig1/RPS.sol\":1600:1604  game */\n      dup2\n        /* \"oblig1/oblig1/RPS.sol\":1600:1607  game.v2 */\n      0x04\n      add\n        /* \"oblig1/oblig1/RPS.sol\":1600:1615  game.v2 = _vote */\n      dup2\n      swap1\n      sstore\n      pop\n        /* \"oblig1/oblig1/RPS.sol\":1377:1627  {... */\n      pop\n        /* \"oblig1/oblig1/RPS.sol\":870:1627  if (activeGames[_id].p1 == address(0)) {... */\n    tag_53:\n        /* \"oblig1/oblig1/RPS.sol\":1662:1666  true */\n      0x01\n        /* \"oblig1/oblig1/RPS.sol\":1639:1647  isInGame */\n      dup1\n        /* \"oblig1/oblig1/RPS.sol\":1639:1659  isInGame[msg.sender] */\n      0x00\n        /* \"oblig1/oblig1/RPS.sol\":1648:1658  msg.sender */\n      caller\n        /* \"oblig1/oblig1/RPS.sol\":1639:1659  isInGame[msg.sender] */\n      0xffffffffffffffffffffffffffffffffffffffff\n      and\n      0xffffffffffffffffffffffffffffffffffffffff\n      and\n      dup2\n      mstore\n      0x20\n      add\n      swap1\n      dup2\n      mstore\n      0x20\n      add\n      0x00\n      keccak256\n      0x00\n        /* \"oblig1/oblig1/RPS.sol\":1639:1666  isInGame[msg.sender] = true */\n      0x0100\n      exp\n      dup2\n      sload\n      dup2\n      0xff\n      mul\n      not\n      and\n      swap1\n      dup4\n      iszero\n      iszero\n      mul\n      or\n      swap1\n      sstore\n      pop\n        /* \"oblig1/oblig1/RPS.sol\":1682:1709  joinGame(msg.sender, _vote) */\n      0xe810c81f17f47c45e4f5fed4c719d73de6fa94a77ad2745e3e6294801cf51ca4\n        /* \"oblig1/oblig1/RPS.sol\":1691:1701  msg.sender */\n      caller\n        /* \"oblig1/oblig1/RPS.sol\":1703:1708  _vote */\n      dup4\n        /* \"oblig1/oblig1/RPS.sol\":1682:1709  joinGame(msg.sender, _vote) */\n      mload(0x40)\n      tag_61\n      swap3\n      swap2\n      swap1\n      tag_62\n      jump\t// in\n    tag_61:\n      mload(0x40)\n      dup1\n      swap2\n      sub\n      swap1\n      log1\n        /* \"oblig1/oblig1/RPS.sol\":623:1717  function play(bytes32 _vote,string memory _id) public payable {... */\n      pop\n      pop\n      jump\t// out\n        /* \"oblig1/oblig1/RPS.sol\":3884:5425  function withdraw(string memory _id) public {... */\n    tag_16:\n        /* \"oblig1/oblig1/RPS.sol\":3984:3999  block.timestamp */\n      timestamp\n        /* \"oblig1/oblig1/RPS.sol\":3972:3981  5 minutes */\n      0x012c\n        /* \"oblig1/oblig1/RPS.sol\":3943:3954  activeGames */\n      0x00\n        /* \"oblig1/oblig1/RPS.sol\":3955:3958  _id */\n      dup4\n        /* \"oblig1/oblig1/RPS.sol\":3943:3959  activeGames[_id] */\n      mload(0x40)\n      tag_64\n      swap2\n      swap1\n      tag_48\n      jump\t// in\n    tag_64:\n      swap1\n      dup2\n      mstore\n      0x20\n      add\n      mload(0x40)\n      dup1\n      swap2\n      sub\n      swap1\n      keccak256\n        /* \"oblig1/oblig1/RPS.sol\":3943:3969  activeGames[_id].startTime */\n      0x09\n      add\n      sload\n        /* \"oblig1/oblig1/RPS.sol\":3943:3981  activeGames[_id].startTime + 5 minutes */\n      tag_65\n      swap2\n      swap1\n      tag_66\n      jump\t// in\n    tag_65:\n        /* \"oblig1/oblig1/RPS.sol\":3943:3999  activeGames[_id].startTime + 5 minutes < block.timestamp */\n      lt\n        /* \"oblig1/oblig1/RPS.sol\":3939:4734  if (activeGames[_id].startTime + 5 minutes < block.timestamp){... */\n      iszero\n      tag_67\n      jumpi\n        /* \"oblig1/oblig1/RPS.sol\":4050:4051  0 */\n      0x00\n        /* \"oblig1/oblig1/RPS.sol\":4019:4052  activeGames[_id].p2 == address(0) */\n      0xffffffffffffffffffffffffffffffffffffffff\n      and\n        /* \"oblig1/oblig1/RPS.sol\":4019:4030  activeGames */\n      0x00\n        /* \"oblig1/oblig1/RPS.sol\":4031:4034  _id */\n      dup3\n        /* \"oblig1/oblig1/RPS.sol\":4019:4035  activeGames[_id] */\n      mload(0x40)\n      tag_68\n      swap2\n      swap1\n      tag_48\n      jump\t// in\n    tag_68:\n      swap1\n      dup2\n      mstore\n      0x20\n      add\n      mload(0x40)\n      dup1\n      swap2\n      sub\n      swap1\n      keccak256\n        /* \"oblig1/oblig1/RPS.sol\":4019:4038  activeGames[_id].p2 */\n      0x02\n      add\n      0x00\n      swap1\n      sload\n      swap1\n      0x0100\n      exp\n      swap1\n      div\n      0xffffffffffffffffffffffffffffffffffffffff\n      and\n        /* \"oblig1/oblig1/RPS.sol\":4019:4052  activeGames[_id].p2 == address(0) */\n      0xffffffffffffffffffffffffffffffffffffffff\n      and\n      sub\n        /* \"oblig1/oblig1/RPS.sol\":4015:4214  if (activeGames[_id].p2 == address(0))... */\n      tag_69\n      jumpi\n        /* \"oblig1/oblig1/RPS.sol\":4079:4089  msg.sender */\n      caller\n        /* \"oblig1/oblig1/RPS.sol\":4071:4099  payable(msg.sender).transfer */\n      0xffffffffffffffffffffffffffffffffffffffff\n      and\n        /* \"oblig1/oblig1/RPS.sol\":4071:4123  payable(msg.sender).transfer(activeGames[_id].stake) */\n      0x08fc\n        /* \"oblig1/oblig1/RPS.sol\":4100:4111  activeGames */\n      0x00\n        /* \"oblig1/oblig1/RPS.sol\":4112:4115  _id */\n      dup4\n        /* \"oblig1/oblig1/RPS.sol\":4100:4116  activeGames[_id] */\n      mload(0x40)\n      tag_70\n      swap2\n      swap1\n      tag_48\n      jump\t// in\n    tag_70:\n      swap1\n      dup2\n      mstore\n      0x20\n      add\n      mload(0x40)\n      dup1\n      swap2\n      sub\n      swap1\n      keccak256\n        /* \"oblig1/oblig1/RPS.sol\":4100:4122  activeGames[_id].stake */\n      0x08\n      add\n      sload\n        /* \"oblig1/oblig1/RPS.sol\":4071:4123  payable(msg.sender).transfer(activeGames[_id].stake) */\n      swap1\n      dup2\n      iszero\n      mul\n      swap1\n      mload(0x40)\n      0x00\n      mload(0x40)\n      dup1\n      dup4\n      sub\n      dup2\n      dup6\n      dup9\n      dup9\n      call\n      swap4\n      pop\n      pop\n      pop\n      pop\n      iszero\n      dup1\n      iszero\n      tag_72\n      jumpi\n      returndatasize\n      0x00\n      dup1\n      returndatacopy\n      revert(0x00, returndatasize)\n    tag_72:\n      pop\n        /* \"oblig1/oblig1/RPS.sol\":4015:4214  if (activeGames[_id].p2 == address(0))... */\n      jump(tag_73)\n    tag_69:\n        /* \"oblig1/oblig1/RPS.sol\":4168:4178  msg.sender */\n      caller\n        /* \"oblig1/oblig1/RPS.sol\":4160:4188  payable(msg.sender).transfer */\n      0xffffffffffffffffffffffffffffffffffffffff\n      and\n        /* \"oblig1/oblig1/RPS.sol\":4160:4214  payable(msg.sender).transfer(activeGames[_id].stake*2) */\n      0x08fc\n        /* \"oblig1/oblig1/RPS.sol\":4212:4213  2 */\n      0x02\n        /* \"oblig1/oblig1/RPS.sol\":4189:4200  activeGames */\n      0x00\n        /* \"oblig1/oblig1/RPS.sol\":4201:4204  _id */\n      dup5\n        /* \"oblig1/oblig1/RPS.sol\":4189:4205  activeGames[_id] */\n      mload(0x40)\n      tag_74\n      swap2\n      swap1\n      tag_48\n      jump\t// in\n    tag_74:\n      swap1\n      dup2\n      mstore\n      0x20\n      add\n      mload(0x40)\n      dup1\n      swap2\n      sub\n      swap1\n      keccak256\n        /* \"oblig1/oblig1/RPS.sol\":4189:4211  activeGames[_id].stake */\n      0x08\n      add\n      sload\n        /* \"oblig1/oblig1/RPS.sol\":4189:4213  activeGames[_id].stake*2 */\n      tag_75\n      swap2\n      swap1\n      tag_76\n      jump\t// in\n    tag_75:\n        /* \"oblig1/oblig1/RPS.sol\":4160:4214  payable(msg.sender).transfer(activeGames[_id].stake*2) */\n      swap1\n      dup2\n      iszero\n      mul\n      swap1\n      mload(0x40)\n      0x00\n      mload(0x40)\n      dup1\n      dup4\n      sub\n      dup2\n      dup6\n      dup9\n      dup9\n      call\n      swap4\n      pop\n      pop\n      pop\n      pop\n      iszero\n      dup1\n      iszero\n      tag_78\n      jumpi\n      returndatasize\n      0x00\n      dup1\n      returndatacopy\n      revert(0x00, returndatasize)\n    tag_78:\n      pop\n        /* \"oblig1/oblig1/RPS.sol\":4015:4214  if (activeGames[_id].p2 == address(0))... */\n    tag_73:\n        /* \"oblig1/oblig1/RPS.sol\":4250:4593  Game({... */\n      mload(0x40)\n      dup1\n      0x0140\n      add\n      0x40\n      mstore\n      dup1\n      mload(0x40)\n      dup1\n      0x20\n      add\n      0x40\n      mstore\n      dup1\n      0x00\n      dup2\n      mstore\n      pop\n      dup2\n      mstore\n      0x20\n      add\n        /* \"oblig1/oblig1/RPS.sol\":4311:4312  0 */\n      0x00\n        /* \"oblig1/oblig1/RPS.sol\":4250:4593  Game({... */\n      0xffffffffffffffffffffffffffffffffffffffff\n      and\n      dup2\n      mstore\n      0x20\n      add\n        /* \"oblig1/oblig1/RPS.sol\":4344:4345  0 */\n      0x00\n        /* \"oblig1/oblig1/RPS.sol\":4250:4593  Game({... */\n      0xffffffffffffffffffffffffffffffffffffffff\n      and\n      dup2\n      mstore\n      0x20\n      add\n        /* \"oblig1/oblig1/RPS.sol\":4377:4378  0 */\n      0x00\n        /* \"oblig1/oblig1/RPS.sol\":4369:4379  bytes32(0) */\n      dup1\n      shl\n        /* \"oblig1/oblig1/RPS.sol\":4250:4593  Game({... */\n      dup2\n      mstore\n      0x20\n      add\n        /* \"oblig1/oblig1/RPS.sol\":4410:4411  0 */\n      0x00\n        /* \"oblig1/oblig1/RPS.sol\":4402:4412  bytes32(0) */\n      dup1\n      shl\n        /* \"oblig1/oblig1/RPS.sol\":4250:4593  Game({... */\n      dup2\n      mstore\n      0x20\n      add\n        /* \"oblig1/oblig1/RPS.sol\":4441:4443  99 */\n      0x63\n        /* \"oblig1/oblig1/RPS.sol\":4250:4593  Game({... */\n      dup2\n      mstore\n      0x20\n      add\n        /* \"oblig1/oblig1/RPS.sol\":4480:4481  0 */\n      0x00\n        /* \"oblig1/oblig1/RPS.sol\":4250:4593  Game({... */\n      0xffffffffffffffffffffffffffffffffffffffff\n      and\n      dup2\n      mstore\n      0x20\n      add\n        /* \"oblig1/oblig1/RPS.sol\":4517:4518  0 */\n      0x00\n        /* \"oblig1/oblig1/RPS.sol\":4250:4593  Game({... */\n      0xffffffffffffffffffffffffffffffffffffffff\n      and\n      dup2\n      mstore\n      0x20\n      add\n        /* \"oblig1/oblig1/RPS.sol\":4545:4546  0 */\n      0x00\n        /* \"oblig1/oblig1/RPS.sol\":4250:4593  Game({... */\n      dup2\n      mstore\n      0x20\n      add\n        /* \"oblig1/oblig1/RPS.sol\":4576:4577  0 */\n      0x00\n        /* \"oblig1/oblig1/RPS.sol\":4250:4593  Game({... */\n      dup2\n      mstore\n      pop\n        /* \"oblig1/oblig1/RPS.sol\":4231:4242  activeGames */\n      0x00\n        /* \"oblig1/oblig1/RPS.sol\":4243:4246  _id */\n      dup3\n        /* \"oblig1/oblig1/RPS.sol\":4231:4247  activeGames[_id] */\n      mload(0x40)\n      tag_79\n      swap2\n      swap1\n      tag_48\n      jump\t// in\n    tag_79:\n      swap1\n      dup2\n      mstore\n      0x20\n      add\n      mload(0x40)\n      dup1\n      swap2\n      sub\n      swap1\n      keccak256\n        /* \"oblig1/oblig1/RPS.sol\":4231:4593  activeGames[_id] = Game({... */\n      0x00\n      dup3\n      add\n      mload\n      dup2\n      0x00\n      add\n      swap1\n      dup2\n      tag_80\n      swap2\n      swap1\n      tag_52\n      jump\t// in\n    tag_80:\n      pop\n      0x20\n      dup3\n      add\n      mload\n      dup2\n      0x01\n      add\n      exp(0x0100, 0x00)\n      dup2\n      sload\n      dup2\n      0xffffffffffffffffffffffffffffffffffffffff\n      mul\n      not\n      and\n      swap1\n      dup4\n      0xffffffffffffffffffffffffffffffffffffffff\n      and\n      mul\n      or\n      swap1\n      sstore\n      pop\n      0x40\n      dup3\n      add\n      mload\n      dup2\n      0x02\n      add\n      exp(0x0100, 0x00)\n      dup2\n      sload\n      dup2\n      0xffffffffffffffffffffffffffffffffffffffff\n      mul\n      not\n      and\n      swap1\n      dup4\n      0xffffffffffffffffffffffffffffffffffffffff\n      and\n      mul\n      or\n      swap1\n      sstore\n      pop\n      0x60\n      dup3\n      add\n      mload\n      dup2\n      0x03\n      add\n      sstore\n      0x80\n      dup3\n      add\n      mload\n      dup2\n      0x04\n      add\n      sstore\n      0xa0\n      dup3\n      add\n      mload\n      dup2\n      0x05\n      add\n      sstore\n      0xc0\n      dup3\n      add\n      mload\n      dup2\n      0x06\n      add\n      exp(0x0100, 0x00)\n      dup2\n      sload\n      dup2\n      0xffffffffffffffffffffffffffffffffffffffff\n      mul\n      not\n      and\n      swap1\n      dup4\n      0xffffffffffffffffffffffffffffffffffffffff\n      and\n      mul\n      or\n      swap1\n      sstore\n      pop\n      0xe0\n      dup3\n      add\n      mload\n      dup2\n      0x07\n      add\n      exp(0x0100, 0x00)\n      dup2\n      sload\n      dup2\n      0xffffffffffffffffffffffffffffffffffffffff\n      mul\n      not\n      and\n      swap1\n      dup4\n      0xffffffffffffffffffffffffffffffffffffffff\n      and\n      mul\n      or\n      swap1\n      sstore\n      pop\n      0x0100\n      dup3\n      add\n      mload\n      dup2\n      0x08\n      add\n      sstore\n      0x0120\n      dup3\n      add\n      mload\n      dup2\n      0x09\n      add\n      sstore\n      swap1\n      pop\n      pop\n        /* \"oblig1/oblig1/RPS.sol\":4642:4647  false */\n      0x00\n        /* \"oblig1/oblig1/RPS.sol\":4610:4618  isInGame */\n      0x01\n        /* \"oblig1/oblig1/RPS.sol\":4610:4639  isInGame[activeGames[_id].p1] */\n      0x00\n        /* \"oblig1/oblig1/RPS.sol\":4619:4630  activeGames */\n      dup1\n        /* \"oblig1/oblig1/RPS.sol\":4631:4634  _id */\n      dup5\n        /* \"oblig1/oblig1/RPS.sol\":4619:4635  activeGames[_id] */\n      mload(0x40)\n      tag_81\n      swap2\n      swap1\n      tag_48\n      jump\t// in\n    tag_81:\n      swap1\n      dup2\n      mstore\n      0x20\n      add\n      mload(0x40)\n      dup1\n      swap2\n      sub\n      swap1\n      keccak256\n        /* \"oblig1/oblig1/RPS.sol\":4619:4638  activeGames[_id].p1 */\n      0x01\n      add\n      0x00\n      swap1\n      sload\n      swap1\n      0x0100\n      exp\n      swap1\n      div\n      0xffffffffffffffffffffffffffffffffffffffff\n      and\n        /* \"oblig1/oblig1/RPS.sol\":4610:4639  isInGame[activeGames[_id].p1] */\n      0xffffffffffffffffffffffffffffffffffffffff\n      and\n      0xffffffffffffffffffffffffffffffffffffffff\n      and\n      dup2\n      mstore\n      0x20\n      add\n      swap1\n      dup2\n      mstore\n      0x20\n      add\n      0x00\n      keccak256\n      0x00\n        /* \"oblig1/oblig1/RPS.sol\":4610:4647  isInGame[activeGames[_id].p1] = false */\n      0x0100\n      exp\n      dup2\n      sload\n      dup2\n      0xff\n      mul\n      not\n      and\n      swap1\n      dup4\n      iszero\n      iszero\n      mul\n      or\n      swap1\n      sstore\n      pop\n        /* \"oblig1/oblig1/RPS.sol\":4694:4699  false */\n      0x00\n        /* \"oblig1/oblig1/RPS.sol\":4662:4670  isInGame */\n      0x01\n        /* \"oblig1/oblig1/RPS.sol\":4662:4691  isInGame[activeGames[_id].p2] */\n      0x00\n        /* \"oblig1/oblig1/RPS.sol\":4671:4682  activeGames */\n      dup1\n        /* \"oblig1/oblig1/RPS.sol\":4683:4686  _id */\n      dup5\n        /* \"oblig1/oblig1/RPS.sol\":4671:4687  activeGames[_id] */\n      mload(0x40)\n      tag_82\n      swap2\n      swap1\n      tag_48\n      jump\t// in\n    tag_82:\n      swap1\n      dup2\n      mstore\n      0x20\n      add\n      mload(0x40)\n      dup1\n      swap2\n      sub\n      swap1\n      keccak256\n        /* \"oblig1/oblig1/RPS.sol\":4671:4690  activeGames[_id].p2 */\n      0x02\n      add\n      0x00\n      swap1\n      sload\n      swap1\n      0x0100\n      exp\n      swap1\n      div\n      0xffffffffffffffffffffffffffffffffffffffff\n      and\n        /* \"oblig1/oblig1/RPS.sol\":4662:4691  isInGame[activeGames[_id].p2] */\n      0xffffffffffffffffffffffffffffffffffffffff\n      and\n      0xffffffffffffffffffffffffffffffffffffffff\n      and\n      dup2\n      mstore\n      0x20\n      add\n      swap1\n      dup2\n      mstore\n      0x20\n      add\n      0x00\n      keccak256\n      0x00\n        /* \"oblig1/oblig1/RPS.sol\":4662:4699  isInGame[activeGames[_id].p2] = false */\n      0x0100\n      exp\n      dup2\n      sload\n      dup2\n      0xff\n      mul\n      not\n      and\n      swap1\n      dup4\n      iszero\n      iszero\n      mul\n      or\n      swap1\n      sstore\n      pop\n        /* \"oblig1/oblig1/RPS.sol\":4714:4721  return; */\n      jump(tag_63)\n        /* \"oblig1/oblig1/RPS.sol\":3939:4734  if (activeGames[_id].startTime + 5 minutes < block.timestamp){... */\n    tag_67:\n        /* \"oblig1/oblig1/RPS.sol\":4781:4791  msg.sender */\n      caller\n        /* \"oblig1/oblig1/RPS.sol\":4754:4791  activeGames[_id].winner == msg.sender */\n      0xffffffffffffffffffffffffffffffffffffffff\n      and\n        /* \"oblig1/oblig1/RPS.sol\":4754:4765  activeGames */\n      0x00\n        /* \"oblig1/oblig1/RPS.sol\":4766:4769  _id */\n      dup3\n        /* \"oblig1/oblig1/RPS.sol\":4754:4770  activeGames[_id] */\n      mload(0x40)\n      tag_83\n      swap2\n      swap1\n      tag_48\n      jump\t// in\n    tag_83:\n      swap1\n      dup2\n      mstore\n      0x20\n      add\n      mload(0x40)\n      dup1\n      swap2\n      sub\n      swap1\n      keccak256\n        /* \"oblig1/oblig1/RPS.sol\":4754:4777  activeGames[_id].winner */\n      0x07\n      add\n      0x00\n      swap1\n      sload\n      swap1\n      0x0100\n      exp\n      swap1\n      div\n      0xffffffffffffffffffffffffffffffffffffffff\n      and\n        /* \"oblig1/oblig1/RPS.sol\":4754:4791  activeGames[_id].winner == msg.sender */\n      0xffffffffffffffffffffffffffffffffffffffff\n      and\n      eq\n        /* \"oblig1/oblig1/RPS.sol\":4746:4828  require(activeGames[_id].winner == msg.sender, \"You did not win that game (yet)!\") */\n      tag_84\n      jumpi\n      mload(0x40)\n      0x08c379a000000000000000000000000000000000000000000000000000000000\n      dup2\n      mstore\n      0x04\n      add\n      tag_85\n      swap1\n      tag_86\n      jump\t// in\n    tag_85:\n      mload(0x40)\n      dup1\n      swap2\n      sub\n      swap1\n      revert\n    tag_84:\n        /* \"oblig1/oblig1/RPS.sol\":4849:4860  uint payout */\n      0x00\n        /* \"oblig1/oblig1/RPS.sol\":4888:4889  2 */\n      0x02\n        /* \"oblig1/oblig1/RPS.sol\":4863:4874  activeGames */\n      0x00\n        /* \"oblig1/oblig1/RPS.sol\":4875:4878  _id */\n      dup4\n        /* \"oblig1/oblig1/RPS.sol\":4863:4879  activeGames[_id] */\n      mload(0x40)\n      tag_87\n      swap2\n      swap1\n      tag_48\n      jump\t// in\n    tag_87:\n      swap1\n      dup2\n      mstore\n      0x20\n      add\n      mload(0x40)\n      dup1\n      swap2\n      sub\n      swap1\n      keccak256\n        /* \"oblig1/oblig1/RPS.sol\":4863:4885  activeGames[_id].stake */\n      0x08\n      add\n      sload\n        /* \"oblig1/oblig1/RPS.sol\":4863:4889  activeGames[_id].stake * 2 */\n      tag_88\n      swap2\n      swap1\n      tag_76\n      jump\t// in\n    tag_88:\n        /* \"oblig1/oblig1/RPS.sol\":4849:4889  uint payout = activeGames[_id].stake * 2 */\n      swap1\n      pop\n        /* \"oblig1/oblig1/RPS.sol\":4910:4920  msg.sender */\n      caller\n        /* \"oblig1/oblig1/RPS.sol\":4902:4930  payable(msg.sender).transfer */\n      0xffffffffffffffffffffffffffffffffffffffff\n      and\n        /* \"oblig1/oblig1/RPS.sol\":4902:4938  payable(msg.sender).transfer(payout) */\n      0x08fc\n        /* \"oblig1/oblig1/RPS.sol\":4931:4937  payout */\n      dup3\n        /* \"oblig1/oblig1/RPS.sol\":4902:4938  payable(msg.sender).transfer(payout) */\n      swap1\n      dup2\n      iszero\n      mul\n      swap1\n      mload(0x40)\n      0x00\n      mload(0x40)\n      dup1\n      dup4\n      sub\n      dup2\n      dup6\n      dup9\n      dup9\n      call\n      swap4\n      pop\n      pop\n      pop\n      pop\n      iszero\n      dup1\n      iszero\n      tag_90\n      jumpi\n      returndatasize\n      0x00\n      dup1\n      returndatacopy\n      revert(0x00, returndatasize)\n    tag_90:\n      pop\n        /* \"oblig1/oblig1/RPS.sol\":4975:5318  Game({... */\n      mload(0x40)\n      dup1\n      0x0140\n      add\n      0x40\n      mstore\n      dup1\n      mload(0x40)\n      dup1\n      0x20\n      add\n      0x40\n      mstore\n      dup1\n      0x00\n      dup2\n      mstore\n      pop\n      dup2\n      mstore\n      0x20\n      add\n        /* \"oblig1/oblig1/RPS.sol\":5036:5037  0 */\n      0x00\n        /* \"oblig1/oblig1/RPS.sol\":4975:5318  Game({... */\n      0xffffffffffffffffffffffffffffffffffffffff\n      and\n      dup2\n      mstore\n      0x20\n      add\n        /* \"oblig1/oblig1/RPS.sol\":5069:5070  0 */\n      0x00\n        /* \"oblig1/oblig1/RPS.sol\":4975:5318  Game({... */\n      0xffffffffffffffffffffffffffffffffffffffff\n      and\n      dup2\n      mstore\n      0x20\n      add\n        /* \"oblig1/oblig1/RPS.sol\":5102:5103  0 */\n      0x00\n        /* \"oblig1/oblig1/RPS.sol\":5094:5104  bytes32(0) */\n      dup1\n      shl\n        /* \"oblig1/oblig1/RPS.sol\":4975:5318  Game({... */\n      dup2\n      mstore\n      0x20\n      add\n        /* \"oblig1/oblig1/RPS.sol\":5135:5136  0 */\n      0x00\n        /* \"oblig1/oblig1/RPS.sol\":5127:5137  bytes32(0) */\n      dup1\n      shl\n        /* \"oblig1/oblig1/RPS.sol\":4975:5318  Game({... */\n      dup2\n      mstore\n      0x20\n      add\n        /* \"oblig1/oblig1/RPS.sol\":5166:5168  99 */\n      0x63\n        /* \"oblig1/oblig1/RPS.sol\":4975:5318  Game({... */\n      dup2\n      mstore\n      0x20\n      add\n        /* \"oblig1/oblig1/RPS.sol\":5205:5206  0 */\n      0x00\n        /* \"oblig1/oblig1/RPS.sol\":4975:5318  Game({... */\n      0xffffffffffffffffffffffffffffffffffffffff\n      and\n      dup2\n      mstore\n      0x20\n      add\n        /* \"oblig1/oblig1/RPS.sol\":5242:5243  0 */\n      0x00\n        /* \"oblig1/oblig1/RPS.sol\":4975:5318  Game({... */\n      0xffffffffffffffffffffffffffffffffffffffff\n      and\n      dup2\n      mstore\n      0x20\n      add\n        /* \"oblig1/oblig1/RPS.sol\":5270:5271  0 */\n      0x00\n        /* \"oblig1/oblig1/RPS.sol\":4975:5318  Game({... */\n      dup2\n      mstore\n      0x20\n      add\n        /* \"oblig1/oblig1/RPS.sol\":5301:5302  0 */\n      0x00\n        /* \"oblig1/oblig1/RPS.sol\":4975:5318  Game({... */\n      dup2\n      mstore\n      pop\n        /* \"oblig1/oblig1/RPS.sol\":4956:4967  activeGames */\n      0x00\n        /* \"oblig1/oblig1/RPS.sol\":4968:4971  _id */\n      dup4\n        /* \"oblig1/oblig1/RPS.sol\":4956:4972  activeGames[_id] */\n      mload(0x40)\n      tag_91\n      swap2\n      swap1\n      tag_48\n      jump\t// in\n    tag_91:\n      swap1\n      dup2\n      mstore\n      0x20\n      add\n      mload(0x40)\n      dup1\n      swap2\n      sub\n      swap1\n      keccak256\n        /* \"oblig1/oblig1/RPS.sol\":4956:5318  activeGames[_id] = Game({... */\n      0x00\n      dup3\n      add\n      mload\n      dup2\n      0x00\n      add\n      swap1\n      dup2\n      tag_92\n      swap2\n      swap1\n      tag_52\n      jump\t// in\n    tag_92:\n      pop\n      0x20\n      dup3\n      add\n      mload\n      dup2\n      0x01\n      add\n      exp(0x0100, 0x00)\n      dup2\n      sload\n      dup2\n      0xffffffffffffffffffffffffffffffffffffffff\n      mul\n      not\n      and\n      swap1\n      dup4\n      0xffffffffffffffffffffffffffffffffffffffff\n      and\n      mul\n      or\n      swap1\n      sstore\n      pop\n      0x40\n      dup3\n      add\n      mload\n      dup2\n      0x02\n      add\n      exp(0x0100, 0x00)\n      dup2\n      sload\n      dup2\n      0xffffffffffffffffffffffffffffffffffffffff\n      mul\n      not\n      and\n      swap1\n      dup4\n      0xffffffffffffffffffffffffffffffffffffffff\n      and\n      mul\n      or\n      swap1\n      sstore\n      pop\n      0x60\n      dup3\n      add\n      mload\n      dup2\n      0x03\n      add\n      sstore\n      0x80\n      dup3\n      add\n      mload\n      dup2\n      0x04\n      add\n      sstore\n      0xa0\n      dup3\n      add\n      mload\n      dup2\n      0x05\n      add\n      sstore\n      0xc0\n      dup3\n      add\n      mload\n      dup2\n      0x06\n      add\n      exp(0x0100, 0x00)\n      dup2\n      sload\n      dup2\n      0xffffffffffffffffffffffffffffffffffffffff\n      mul\n      not\n      and\n      swap1\n      dup4\n      0xffffffffffffffffffffffffffffffffffffffff\n      and\n      mul\n      or\n      swap1\n      sstore\n      pop\n      0xe0\n      dup3\n      add\n      mload\n      dup2\n      0x07\n      add\n      exp(0x0100, 0x00)\n      dup2\n      sload\n      dup2\n      0xffffffffffffffffffffffffffffffffffffffff\n      mul\n      not\n      and\n      swap1\n      dup4\n      0xffffffffffffffffffffffffffffffffffffffff\n      and\n      mul\n      or\n      swap1\n      sstore\n      pop\n      0x0100\n      dup3\n      add\n      mload\n      dup2\n      0x08\n      add\n      sstore\n      0x0120\n      dup3\n      add\n      mload\n      dup2\n      0x09\n      add\n      sstore\n      swap1\n      pop\n      pop\n        /* \"oblig1/oblig1/RPS.sol\":5364:5369  false */\n      0x00\n        /* \"oblig1/oblig1/RPS.sol\":5332:5340  isInGame */\n      0x01\n        /* \"oblig1/oblig1/RPS.sol\":5332:5361  isInGame[activeGames[_id].p1] */\n      0x00\n        /* \"oblig1/oblig1/RPS.sol\":5341:5352  activeGames */\n      dup1\n        /* \"oblig1/oblig1/RPS.sol\":5353:5356  _id */\n      dup6\n        /* \"oblig1/oblig1/RPS.sol\":5341:5357  activeGames[_id] */\n      mload(0x40)\n      tag_93\n      swap2\n      swap1\n      tag_48\n      jump\t// in\n    tag_93:\n      swap1\n      dup2\n      mstore\n      0x20\n      add\n      mload(0x40)\n      dup1\n      swap2\n      sub\n      swap1\n      keccak256\n        /* \"oblig1/oblig1/RPS.sol\":5341:5360  activeGames[_id].p1 */\n      0x01\n      add\n      0x00\n      swap1\n      sload\n      swap1\n      0x0100\n      exp\n      swap1\n      div\n      0xffffffffffffffffffffffffffffffffffffffff\n      and\n        /* \"oblig1/oblig1/RPS.sol\":5332:5361  isInGame[activeGames[_id].p1] */\n      0xffffffffffffffffffffffffffffffffffffffff\n      and\n      0xffffffffffffffffffffffffffffffffffffffff\n      and\n      dup2\n      mstore\n      0x20\n      add\n      swap1\n      dup2\n      mstore\n      0x20\n      add\n      0x00\n      keccak256\n      0x00\n        /* \"oblig1/oblig1/RPS.sol\":5332:5369  isInGame[activeGames[_id].p1] = false */\n      0x0100\n      exp\n      dup2\n      sload\n      dup2\n      0xff\n      mul\n      not\n      and\n      swap1\n      dup4\n      iszero\n      iszero\n      mul\n      or\n      swap1\n      sstore\n      pop\n        /* \"oblig1/oblig1/RPS.sol\":5412:5417  false */\n      0x00\n        /* \"oblig1/oblig1/RPS.sol\":5380:5388  isInGame */\n      0x01\n        /* \"oblig1/oblig1/RPS.sol\":5380:5409  isInGame[activeGames[_id].p2] */\n      0x00\n        /* \"oblig1/oblig1/RPS.sol\":5389:5400  activeGames */\n      dup1\n        /* \"oblig1/oblig1/RPS.sol\":5401:5404  _id */\n      dup6\n        /* \"oblig1/oblig1/RPS.sol\":5389:5405  activeGames[_id] */\n      mload(0x40)\n      tag_94\n      swap2\n      swap1\n      tag_48\n      jump\t// in\n    tag_94:\n      swap1\n      dup2\n      mstore\n      0x20\n      add\n      mload(0x40)\n      dup1\n      swap2\n      sub\n      swap1\n      keccak256\n        /* \"oblig1/oblig1/RPS.sol\":5389:5408  activeGames[_id].p2 */\n      0x02\n      add\n      0x00\n      swap1\n      sload\n      swap1\n      0x0100\n      exp\n      swap1\n      div\n      0xffffffffffffffffffffffffffffffffffffffff\n      and\n        /* \"oblig1/oblig1/RPS.sol\":5380:5409  isInGame[activeGames[_id].p2] */\n      0xffffffffffffffffffffffffffffffffffffffff\n      and\n      0xffffffffffffffffffffffffffffffffffffffff\n      and\n      dup2\n      mstore\n      0x20\n      add\n      swap1\n      dup2\n      mstore\n      0x20\n      add\n      0x00\n      keccak256\n      0x00\n        /* \"oblig1/oblig1/RPS.sol\":5380:5417  isInGame[activeGames[_id].p2] = false */\n      0x0100\n      exp\n      dup2\n      sload\n      dup2\n      0xff\n      mul\n      not\n      and\n      swap1\n      dup4\n      iszero\n      iszero\n      mul\n      or\n      swap1\n      sstore\n      pop\n        /* \"oblig1/oblig1/RPS.sol\":3928:5425  {... */\n      pop\n        /* \"oblig1/oblig1/RPS.sol\":3884:5425  function withdraw(string memory _id) public {... */\n    tag_63:\n      pop\n      jump\t// out\n        /* \"oblig1/oblig1/RPS.sol\":388:428  mapping(address => bool) public isInGame */\n    tag_21:\n      mstore(0x20, 0x01)\n      dup1\n      0x00\n      mstore\n      keccak256(0x00, 0x40)\n      0x00\n      swap2\n      pop\n      sload\n      swap1\n      0x0100\n      exp\n      swap1\n      div\n      0xff\n      and\n      dup2\n      jump\t// out\n        /* \"oblig1/oblig1/RPS.sol\":339:381  mapping(string => Game) public activeGames */\n    tag_27:\n      0x00\n      dup2\n      dup1\n      mload\n      0x20\n      dup2\n      add\n      dup3\n      add\n      dup1\n      mload\n      dup5\n      dup3\n      mstore\n      0x20\n      dup4\n      add\n      0x20\n      dup6\n      add\n      keccak256\n      dup2\n      dup4\n      mstore\n      dup1\n      swap6\n      pop\n      pop\n      pop\n      pop\n      pop\n      pop\n      0x00\n      swap2\n      pop\n      swap1\n      pop\n      dup1\n      0x00\n      add\n      dup1\n      sload\n      tag_95\n      swap1\n      tag_96\n      jump\t// in\n    tag_95:\n      dup1\n      0x1f\n      add\n      0x20\n      dup1\n      swap2\n      div\n      mul\n      0x20\n      add\n      mload(0x40)\n      swap1\n      dup2\n      add\n      0x40\n      mstore\n      dup1\n      swap3\n      swap2\n      swap1\n      dup2\n      dup2\n      mstore\n      0x20\n      add\n      dup3\n      dup1\n      sload\n      tag_97\n      swap1\n      tag_96\n      jump\t// in\n    tag_97:\n      dup1\n      iszero\n      tag_98\n      jumpi\n      dup1\n      0x1f\n      lt\n      tag_99\n      jumpi\n      0x0100\n      dup1\n      dup4\n      sload\n      div\n      mul\n      dup4\n      mstore\n      swap2\n      0x20\n      add\n      swap2\n      jump(tag_98)\n    tag_99:\n      dup3\n      add\n      swap2\n      swap1\n      0x00\n      mstore\n      keccak256(0x00, 0x20)\n      swap1\n    tag_100:\n      dup2\n      sload\n      dup2\n      mstore\n      swap1\n      0x01\n      add\n      swap1\n      0x20\n      add\n      dup1\n      dup4\n      gt\n      tag_100\n      jumpi\n      dup3\n      swap1\n      sub\n      0x1f\n      and\n      dup3\n      add\n      swap2\n    tag_98:\n      pop\n      pop\n      pop\n      pop\n      pop\n      swap1\n      dup1\n      0x01\n      add\n      0x00\n      swap1\n      sload\n      swap1\n      0x0100\n      exp\n      swap1\n      div\n      0xffffffffffffffffffffffffffffffffffffffff\n      and\n      swap1\n      dup1\n      0x02\n      add\n      0x00\n      swap1\n      sload\n      swap1\n      0x0100\n      exp\n      swap1\n      div\n      0xffffffffffffffffffffffffffffffffffffffff\n      and\n      swap1\n      dup1\n      0x03\n      add\n      sload\n      swap1\n      dup1\n      0x04\n      add\n      sload\n      swap1\n      dup1\n      0x05\n      add\n      sload\n      swap1\n      dup1\n      0x06\n      add\n      0x00\n      swap1\n      sload\n      swap1\n      0x0100\n      exp\n      swap1\n      div\n      0xffffffffffffffffffffffffffffffffffffffff\n      and\n      swap1\n      dup1\n      0x07\n      add\n      0x00\n      swap1\n      sload\n      swap1\n      0x0100\n      exp\n      swap1\n      div\n      0xffffffffffffffffffffffffffffffffffffffff\n      and\n      swap1\n      dup1\n      0x08\n      add\n      sload\n      swap1\n      dup1\n      0x09\n      add\n      sload\n      swap1\n      pop\n      dup11\n      jump\t// out\n        /* \"oblig1/oblig1/RPS.sol\":1733:3868  function reveal(string memory vote, string memory salt, string memory _id) public {... */\n    tag_34:\n        /* \"oblig1/oblig1/RPS.sol\":1826:1844  bytes32 hashedVote */\n      0x00\n        /* \"oblig1/oblig1/RPS.sol\":1874:1878  vote */\n      dup4\n        /* \"oblig1/oblig1/RPS.sol\":1880:1884  salt */\n      dup4\n        /* \"oblig1/oblig1/RPS.sol\":1857:1885  abi.encodePacked(vote, salt) */\n      add(0x20, mload(0x40))\n      tag_102\n      swap3\n      swap2\n      swap1\n      tag_103\n      jump\t// in\n    tag_102:\n      mload(0x40)\n      0x20\n      dup2\n      dup4\n      sub\n      sub\n      dup2\n      mstore\n      swap1\n      0x40\n      mstore\n        /* \"oblig1/oblig1/RPS.sol\":1847:1886  keccak256(abi.encodePacked(vote, salt)) */\n      dup1\n      mload\n      swap1\n      0x20\n      add\n      keccak256\n        /* \"oblig1/oblig1/RPS.sol\":1826:1886  bytes32 hashedVote = keccak256(abi.encodePacked(vote, salt)) */\n      swap1\n      pop\n        /* \"oblig1/oblig1/RPS.sol\":1938:1939  0 */\n      0x00\n        /* \"oblig1/oblig1/RPS.sol\":1907:1940  activeGames[_id].p2 != address(0) */\n      0xffffffffffffffffffffffffffffffffffffffff\n      and\n        /* \"oblig1/oblig1/RPS.sol\":1907:1918  activeGames */\n      0x00\n        /* \"oblig1/oblig1/RPS.sol\":1919:1922  _id */\n      dup4\n        /* \"oblig1/oblig1/RPS.sol\":1907:1923  activeGames[_id] */\n      mload(0x40)\n      tag_104\n      swap2\n      swap1\n      tag_48\n      jump\t// in\n    tag_104:\n      swap1\n      dup2\n      mstore\n      0x20\n      add\n      mload(0x40)\n      dup1\n      swap2\n      sub\n      swap1\n      keccak256\n        /* \"oblig1/oblig1/RPS.sol\":1907:1926  activeGames[_id].p2 */\n      0x02\n      add\n      0x00\n      swap1\n      sload\n      swap1\n      0x0100\n      exp\n      swap1\n      div\n      0xffffffffffffffffffffffffffffffffffffffff\n      and\n        /* \"oblig1/oblig1/RPS.sol\":1907:1940  activeGames[_id].p2 != address(0) */\n      0xffffffffffffffffffffffffffffffffffffffff\n      and\n      sub\n        /* \"oblig1/oblig1/RPS.sol\":1899:1969  require(activeGames[_id].p2 != address(0), \"Player 2 not joined yet.\") */\n      tag_105\n      jumpi\n      mload(0x40)\n      0x08c379a000000000000000000000000000000000000000000000000000000000\n      dup2\n      mstore\n      0x04\n      add\n      tag_106\n      swap1\n      tag_107\n      jump\t// in\n    tag_106:\n      mload(0x40)\n      dup1\n      swap2\n      sub\n      swap1\n      revert\n    tag_105:\n        /* \"oblig1/oblig1/RPS.sol\":2004:2015  activeGames */\n      0x00\n        /* \"oblig1/oblig1/RPS.sol\":2016:2019  _id */\n      dup3\n        /* \"oblig1/oblig1/RPS.sol\":2004:2020  activeGames[_id] */\n      mload(0x40)\n      tag_108\n      swap2\n      swap1\n      tag_48\n      jump\t// in\n    tag_108:\n      swap1\n      dup2\n      mstore\n      0x20\n      add\n      mload(0x40)\n      dup1\n      swap2\n      sub\n      swap1\n      keccak256\n        /* \"oblig1/oblig1/RPS.sol\":2004:2023  activeGames[_id].p1 */\n      0x01\n      add\n      0x00\n      swap1\n      sload\n      swap1\n      0x0100\n      exp\n      swap1\n      div\n      0xffffffffffffffffffffffffffffffffffffffff\n      and\n        /* \"oblig1/oblig1/RPS.sol\":1990:2023  msg.sender == activeGames[_id].p1 */\n      0xffffffffffffffffffffffffffffffffffffffff\n      and\n        /* \"oblig1/oblig1/RPS.sol\":1990:2000  msg.sender */\n      caller\n        /* \"oblig1/oblig1/RPS.sol\":1990:2023  msg.sender == activeGames[_id].p1 */\n      0xffffffffffffffffffffffffffffffffffffffff\n      and\n      eq\n        /* \"oblig1/oblig1/RPS.sol\":1990:2060  msg.sender == activeGames[_id].p1 || msg.sender == activeGames[_id].p2 */\n      dup1\n      tag_109\n      jumpi\n      pop\n        /* \"oblig1/oblig1/RPS.sol\":2041:2052  activeGames */\n      0x00\n        /* \"oblig1/oblig1/RPS.sol\":2053:2056  _id */\n      dup3\n        /* \"oblig1/oblig1/RPS.sol\":2041:2057  activeGames[_id] */\n      mload(0x40)\n      tag_110\n      swap2\n      swap1\n      tag_48\n      jump\t// in\n    tag_110:\n      swap1\n      dup2\n      mstore\n      0x20\n      add\n      mload(0x40)\n      dup1\n      swap2\n      sub\n      swap1\n      keccak256\n        /* \"oblig1/oblig1/RPS.sol\":2041:2060  activeGames[_id].p2 */\n      0x02\n      add\n      0x00\n      swap1\n      sload\n      swap1\n      0x0100\n      exp\n      swap1\n      div\n      0xffffffffffffffffffffffffffffffffffffffff\n      and\n        /* \"oblig1/oblig1/RPS.sol\":2027:2060  msg.sender == activeGames[_id].p2 */\n      0xffffffffffffffffffffffffffffffffffffffff\n      and\n        /* \"oblig1/oblig1/RPS.sol\":2027:2037  msg.sender */\n      caller\n        /* \"oblig1/oblig1/RPS.sol\":2027:2060  msg.sender == activeGames[_id].p2 */\n      0xffffffffffffffffffffffffffffffffffffffff\n      and\n      eq\n        /* \"oblig1/oblig1/RPS.sol\":1990:2060  msg.sender == activeGames[_id].p1 || msg.sender == activeGames[_id].p2 */\n    tag_109:\n        /* \"oblig1/oblig1/RPS.sol\":1982:2097  require(msg.sender == activeGames[_id].p1 || msg.sender == activeGames[_id].p2, \"You are not a part of this game.\") */\n      tag_111\n      jumpi\n      mload(0x40)\n      0x08c379a000000000000000000000000000000000000000000000000000000000\n      dup2\n      mstore\n      0x04\n      add\n      tag_112\n      swap1\n      tag_113\n      jump\t// in\n    tag_112:\n      mload(0x40)\n      dup1\n      swap2\n      sub\n      swap1\n      revert\n    tag_111:\n        /* \"oblig1/oblig1/RPS.sol\":2132:2143  activeGames */\n      0x00\n        /* \"oblig1/oblig1/RPS.sol\":2144:2147  _id */\n      dup3\n        /* \"oblig1/oblig1/RPS.sol\":2132:2148  activeGames[_id] */\n      mload(0x40)\n      tag_114\n      swap2\n      swap1\n      tag_48\n      jump\t// in\n    tag_114:\n      swap1\n      dup2\n      mstore\n      0x20\n      add\n      mload(0x40)\n      dup1\n      swap2\n      sub\n      swap1\n      keccak256\n        /* \"oblig1/oblig1/RPS.sol\":2132:2151  activeGames[_id].v1 */\n      0x03\n      add\n      sload\n        /* \"oblig1/oblig1/RPS.sol\":2118:2128  hashedVote */\n      dup2\n        /* \"oblig1/oblig1/RPS.sol\":2118:2151  hashedVote != activeGames[_id].v1 */\n      eq\n      iszero\n        /* \"oblig1/oblig1/RPS.sol\":2118:2188  hashedVote != activeGames[_id].v1 || hashedVote != activeGames[_id].v2 */\n      dup1\n      tag_115\n      jumpi\n      pop\n        /* \"oblig1/oblig1/RPS.sol\":2169:2180  activeGames */\n      0x00\n        /* \"oblig1/oblig1/RPS.sol\":2181:2184  _id */\n      dup3\n        /* \"oblig1/oblig1/RPS.sol\":2169:2185  activeGames[_id] */\n      mload(0x40)\n      tag_116\n      swap2\n      swap1\n      tag_48\n      jump\t// in\n    tag_116:\n      swap1\n      dup2\n      mstore\n      0x20\n      add\n      mload(0x40)\n      dup1\n      swap2\n      sub\n      swap1\n      keccak256\n        /* \"oblig1/oblig1/RPS.sol\":2169:2188  activeGames[_id].v2 */\n      0x04\n      add\n      sload\n        /* \"oblig1/oblig1/RPS.sol\":2155:2165  hashedVote */\n      dup2\n        /* \"oblig1/oblig1/RPS.sol\":2155:2188  hashedVote != activeGames[_id].v2 */\n      eq\n      iszero\n        /* \"oblig1/oblig1/RPS.sol\":2118:2188  hashedVote != activeGames[_id].v1 || hashedVote != activeGames[_id].v2 */\n    tag_115:\n        /* \"oblig1/oblig1/RPS.sol\":2110:2209  require(hashedVote != activeGames[_id].v1 || hashedVote != activeGames[_id].v2, \"Wrong vote/salt.\") */\n      tag_117\n      jumpi\n      mload(0x40)\n      0x08c379a000000000000000000000000000000000000000000000000000000000\n      dup2\n      mstore\n      0x04\n      add\n      tag_118\n      swap1\n      tag_119\n      jump\t// in\n    tag_118:\n      mload(0x40)\n      dup1\n      swap2\n      sub\n      swap1\n      revert\n    tag_117:\n        /* \"oblig1/oblig1/RPS.sol\":2222:2236  uint voteScore */\n      0x00\n        /* \"oblig1/oblig1/RPS.sol\":2251:2272  bytes(vote)[0] == \"R\" */\n      0x5200000000000000000000000000000000000000000000000000000000000000\n        /* \"oblig1/oblig1/RPS.sol\":2257:2261  vote */\n      dup6\n        /* \"oblig1/oblig1/RPS.sol\":2263:2264  0 */\n      0x00\n        /* \"oblig1/oblig1/RPS.sol\":2251:2265  bytes(vote)[0] */\n      dup2\n      mload\n      dup2\n      lt\n      tag_120\n      jumpi\n      tag_121\n      tag_122\n      jump\t// in\n    tag_121:\n    tag_120:\n      0x20\n      add\n      add\n      mload\n      0xf8\n      shr\n      0xf8\n      shl\n        /* \"oblig1/oblig1/RPS.sol\":2251:2272  bytes(vote)[0] == \"R\" */\n      not(0xffffffffffffffffffffffffffffffffffffffffffffffffffffffffffffff)\n      and\n      sub\n        /* \"oblig1/oblig1/RPS.sol\":2247:2438  if (bytes(vote)[0] == \"R\")... */\n      tag_123\n      jumpi\n        /* \"oblig1/oblig1/RPS.sol\":2299:2300  0 */\n      0x00\n        /* \"oblig1/oblig1/RPS.sol\":2287:2300  voteScore = 0 */\n      swap1\n      pop\n        /* \"oblig1/oblig1/RPS.sol\":2247:2438  if (bytes(vote)[0] == \"R\")... */\n      jump(tag_124)\n    tag_123:\n        /* \"oblig1/oblig1/RPS.sol\":2320:2341  bytes(vote)[0] == \"P\" */\n      0x5000000000000000000000000000000000000000000000000000000000000000\n        /* \"oblig1/oblig1/RPS.sol\":2326:2330  vote */\n      dup6\n        /* \"oblig1/oblig1/RPS.sol\":2332:2333  0 */\n      0x00\n        /* \"oblig1/oblig1/RPS.sol\":2320:2334  bytes(vote)[0] */\n      dup2\n      mload\n      dup2\n      lt\n      tag_125\n      jumpi\n      tag_126\n      tag_122\n      jump\t// in\n    tag_126:\n    tag_125:\n      0x20\n      add\n      add\n      mload\n      0xf8\n      shr\n      0xf8\n      shl\n        /* \"oblig1/oblig1/RPS.sol\":2320:2341  bytes(vote)[0] == \"P\" */\n      not(0xffffffffffffffffffffffffffffffffffffffffffffffffffffffffffffff)\n      and\n      sub\n        /* \"oblig1/oblig1/RPS.sol\":2316:2438  if (bytes(vote)[0] == \"P\")... */\n      tag_127\n      jumpi\n        /* \"oblig1/oblig1/RPS.sol\":2368:2369  1 */\n      0x01\n        /* \"oblig1/oblig1/RPS.sol\":2356:2369  voteScore = 1 */\n      swap1\n      pop\n        /* \"oblig1/oblig1/RPS.sol\":2316:2438  if (bytes(vote)[0] == \"P\")... */\n      jump(tag_128)\n    tag_127:\n        /* \"oblig1/oblig1/RPS.sol\":2389:2410  bytes(vote)[0] == \"S\" */\n      0x5300000000000000000000000000000000000000000000000000000000000000\n        /* \"oblig1/oblig1/RPS.sol\":2395:2399  vote */\n      dup6\n        /* \"oblig1/oblig1/RPS.sol\":2401:2402  0 */\n      0x00\n        /* \"oblig1/oblig1/RPS.sol\":2389:2403  bytes(vote)[0] */\n      dup2\n      mload\n      dup2\n      lt\n      tag_129\n      jumpi\n      tag_130\n      tag_122\n      jump\t// in\n    tag_130:\n    tag_129:\n      0x20\n      add\n      add\n      mload\n      0xf8\n      shr\n      0xf8\n      shl\n        /* \"oblig1/oblig1/RPS.sol\":2389:2410  bytes(vote)[0] == \"S\" */\n      not(0xffffffffffffffffffffffffffffffffffffffffffffffffffffffffffffff)\n      and\n      sub\n        /* \"oblig1/oblig1/RPS.sol\":2385:2438  if (bytes(vote)[0] == \"S\")... */\n      tag_131\n      jumpi\n        /* \"oblig1/oblig1/RPS.sol\":2437:2438  2 */\n      0x02\n        /* \"oblig1/oblig1/RPS.sol\":2425:2438  voteScore = 2 */\n      swap1\n      pop\n        /* \"oblig1/oblig1/RPS.sol\":2385:2438  if (bytes(vote)[0] == \"S\")... */\n    tag_131:\n        /* \"oblig1/oblig1/RPS.sol\":2316:2438  if (bytes(vote)[0] == \"P\")... */\n    tag_128:\n        /* \"oblig1/oblig1/RPS.sol\":2247:2438  if (bytes(vote)[0] == \"R\")... */\n    tag_124:\n        /* \"oblig1/oblig1/RPS.sol\":2492:2493  0 */\n      0x00\n        /* \"oblig1/oblig1/RPS.sol\":2455:2494  activeGames[_id].revealer == address(0) */\n      0xffffffffffffffffffffffffffffffffffffffff\n      and\n        /* \"oblig1/oblig1/RPS.sol\":2455:2466  activeGames */\n      0x00\n        /* \"oblig1/oblig1/RPS.sol\":2467:2470  _id */\n      dup5\n        /* \"oblig1/oblig1/RPS.sol\":2455:2471  activeGames[_id] */\n      mload(0x40)\n      tag_132\n      swap2\n      swap1\n      tag_48\n      jump\t// in\n    tag_132:\n      swap1\n      dup2\n      mstore\n      0x20\n      add\n      mload(0x40)\n      dup1\n      swap2\n      sub\n      swap1\n      keccak256\n        /* \"oblig1/oblig1/RPS.sol\":2455:2480  activeGames[_id].revealer */\n      0x06\n      add\n      0x00\n      swap1\n      sload\n      swap1\n      0x0100\n      exp\n      swap1\n      div\n      0xffffffffffffffffffffffffffffffffffffffff\n      and\n        /* \"oblig1/oblig1/RPS.sol\":2455:2494  activeGames[_id].revealer == address(0) */\n      0xffffffffffffffffffffffffffffffffffffffff\n      and\n      sub\n        /* \"oblig1/oblig1/RPS.sol\":2451:3817  if (activeGames[_id].revealer == address(0)){... */\n      tag_133\n      jumpi\n        /* \"oblig1/oblig1/RPS.sol\":2538:2547  voteScore */\n      dup1\n        /* \"oblig1/oblig1/RPS.sol\":2510:2521  activeGames */\n      0x00\n        /* \"oblig1/oblig1/RPS.sol\":2522:2525  _id */\n      dup5\n        /* \"oblig1/oblig1/RPS.sol\":2510:2526  activeGames[_id] */\n      mload(0x40)\n      tag_134\n      swap2\n      swap1\n      tag_48\n      jump\t// in\n    tag_134:\n      swap1\n      dup2\n      mstore\n      0x20\n      add\n      mload(0x40)\n      dup1\n      swap2\n      sub\n      swap1\n      keccak256\n        /* \"oblig1/oblig1/RPS.sol\":2510:2535  activeGames[_id].revealed */\n      0x05\n      add\n        /* \"oblig1/oblig1/RPS.sol\":2510:2547  activeGames[_id].revealed = voteScore */\n      dup2\n      swap1\n      sstore\n      pop\n        /* \"oblig1/oblig1/RPS.sol\":2590:2600  msg.sender */\n      caller\n        /* \"oblig1/oblig1/RPS.sol\":2562:2573  activeGames */\n      0x00\n        /* \"oblig1/oblig1/RPS.sol\":2574:2577  _id */\n      dup5\n        /* \"oblig1/oblig1/RPS.sol\":2562:2578  activeGames[_id] */\n      mload(0x40)\n      tag_135\n      swap2\n      swap1\n      tag_48\n      jump\t// in\n    tag_135:\n      swap1\n      dup2\n      mstore\n      0x20\n      add\n      mload(0x40)\n      dup1\n      swap2\n      sub\n      swap1\n      keccak256\n        /* \"oblig1/oblig1/RPS.sol\":2562:2587  activeGames[_id].revealer */\n      0x06\n      add\n      0x00\n        /* \"oblig1/oblig1/RPS.sol\":2562:2600  activeGames[_id].revealer = msg.sender */\n      0x0100\n      exp\n      dup2\n      sload\n      dup2\n      0xffffffffffffffffffffffffffffffffffffffff\n      mul\n      not\n      and\n      swap1\n      dup4\n      0xffffffffffffffffffffffffffffffffffffffff\n      and\n      mul\n      or\n      swap1\n      sstore\n      pop\n        /* \"oblig1/oblig1/RPS.sol\":2451:3817  if (activeGames[_id].revealer == address(0)){... */\n      jump(tag_136)\n    tag_133:\n        /* \"oblig1/oblig1/RPS.sol\":2633:2644  uint winner */\n      0x00\n        /* \"oblig1/oblig1/RPS.sol\":2689:2690  3 */\n      0x03\n        /* \"oblig1/oblig1/RPS.sol\":2676:2685  voteScore */\n      dup3\n        /* \"oblig1/oblig1/RPS.sol\":2648:2659  activeGames */\n      0x00\n        /* \"oblig1/oblig1/RPS.sol\":2660:2663  _id */\n      dup7\n        /* \"oblig1/oblig1/RPS.sol\":2648:2664  activeGames[_id] */\n      mload(0x40)\n      tag_137\n      swap2\n      swap1\n      tag_48\n      jump\t// in\n    tag_137:\n      swap1\n      dup2\n      mstore\n      0x20\n      add\n      mload(0x40)\n      dup1\n      swap2\n      sub\n      swap1\n      keccak256\n        /* \"oblig1/oblig1/RPS.sol\":2648:2673  activeGames[_id].revealed */\n      0x05\n      add\n      sload\n        /* \"oblig1/oblig1/RPS.sol\":2648:2685  activeGames[_id].revealed - voteScore */\n      tag_138\n      swap2\n      swap1\n      tag_139\n      jump\t// in\n    tag_138:\n        /* \"oblig1/oblig1/RPS.sol\":2647:2690  (activeGames[_id].revealed - voteScore) % 3 */\n      tag_140\n      swap2\n      swap1\n      tag_141\n      jump\t// in\n    tag_140:\n        /* \"oblig1/oblig1/RPS.sol\":2633:2690  uint winner = (activeGames[_id].revealed - voteScore) % 3 */\n      swap1\n      pop\n        /* \"oblig1/oblig1/RPS.sol\":2721:2722  0 */\n      0x00\n        /* \"oblig1/oblig1/RPS.sol\":2711:2717  winner */\n      dup2\n        /* \"oblig1/oblig1/RPS.sol\":2711:2722  winner == 0 */\n      sub\n        /* \"oblig1/oblig1/RPS.sol\":2705:3755  if   (winner == 0){... */\n      tag_142\n      jumpi\n        /* \"oblig1/oblig1/RPS.sol\":2750:2761  activeGames */\n      0x00\n        /* \"oblig1/oblig1/RPS.sol\":2762:2765  _id */\n      dup5\n        /* \"oblig1/oblig1/RPS.sol\":2750:2766  activeGames[_id] */\n      mload(0x40)\n      tag_143\n      swap2\n      swap1\n      tag_48\n      jump\t// in\n    tag_143:\n      swap1\n      dup2\n      mstore\n      0x20\n      add\n      mload(0x40)\n      dup1\n      swap2\n      sub\n      swap1\n      keccak256\n        /* \"oblig1/oblig1/RPS.sol\":2750:2769  activeGames[_id].p1 */\n      0x01\n      add\n      0x00\n      swap1\n      sload\n      swap1\n      0x0100\n      exp\n      swap1\n      div\n      0xffffffffffffffffffffffffffffffffffffffff\n      and\n        /* \"oblig1/oblig1/RPS.sol\":2742:2779  payable(activeGames[_id].p1).transfer */\n      0xffffffffffffffffffffffffffffffffffffffff\n      and\n        /* \"oblig1/oblig1/RPS.sol\":2742:2803  payable(activeGames[_id].p1).transfer(activeGames[_id].stake) */\n      0x08fc\n        /* \"oblig1/oblig1/RPS.sol\":2780:2791  activeGames */\n      0x00\n        /* \"oblig1/oblig1/RPS.sol\":2792:2795  _id */\n      dup7\n        /* \"oblig1/oblig1/RPS.sol\":2780:2796  activeGames[_id] */\n      mload(0x40)\n      tag_144\n      swap2\n      swap1\n      tag_48\n      jump\t// in\n    tag_144:\n      swap1\n      dup2\n      mstore\n      0x20\n      add\n      mload(0x40)\n      dup1\n      swap2\n      sub\n      swap1\n      keccak256\n        /* \"oblig1/oblig1/RPS.sol\":2780:2802  activeGames[_id].stake */\n      0x08\n      add\n      sload\n        /* \"oblig1/oblig1/RPS.sol\":2742:2803  payable(activeGames[_id].p1).transfer(activeGames[_id].stake) */\n      swap1\n      dup2\n      iszero\n      mul\n      swap1\n      mload(0x40)\n      0x00\n      mload(0x40)\n      dup1\n      dup4\n      sub\n      dup2\n      dup6\n      dup9\n      dup9\n      call\n      swap4\n      pop\n      pop\n      pop\n      pop\n      iszero\n      dup1\n      iszero\n      tag_146\n      jumpi\n      returndatasize\n      0x00\n      dup1\n      returndatacopy\n      revert(0x00, returndatasize)\n    tag_146:\n      pop\n        /* \"oblig1/oblig1/RPS.sol\":2830:2841  activeGames */\n      0x00\n        /* \"oblig1/oblig1/RPS.sol\":2842:2845  _id */\n      dup5\n        /* \"oblig1/oblig1/RPS.sol\":2830:2846  activeGames[_id] */\n      mload(0x40)\n      tag_147\n      swap2\n      swap1\n      tag_48\n      jump\t// in\n    tag_147:\n      swap1\n      dup2\n      mstore\n      0x20\n      add\n      mload(0x40)\n      dup1\n      swap2\n      sub\n      swap1\n      keccak256\n        /* \"oblig1/oblig1/RPS.sol\":2830:2849  activeGames[_id].p2 */\n      0x02\n      add\n      0x00\n      swap1\n      sload\n      swap1\n      0x0100\n      exp\n      swap1\n      div\n      0xffffffffffffffffffffffffffffffffffffffff\n      and\n        /* \"oblig1/oblig1/RPS.sol\":2822:2859  payable(activeGames[_id].p2).transfer */\n      0xffffffffffffffffffffffffffffffffffffffff\n      and\n        /* \"oblig1/oblig1/RPS.sol\":2822:2883  payable(activeGames[_id].p2).transfer(activeGames[_id].stake) */\n      0x08fc\n        /* \"oblig1/oblig1/RPS.sol\":2860:2871  activeGames */\n      0x00\n        /* \"oblig1/oblig1/RPS.sol\":2872:2875  _id */\n      dup7\n        /* \"oblig1/oblig1/RPS.sol\":2860:2876  activeGames[_id] */\n      mload(0x40)\n      tag_148\n      swap2\n      swap1\n      tag_48\n      jump\t// in\n    tag_148:\n      swap1\n      dup2\n      mstore\n      0x20\n      add\n      mload(0x40)\n      dup1\n      swap2\n      sub\n      swap1\n      keccak256\n        /* \"oblig1/oblig1/RPS.sol\":2860:2882  activeGames[_id].stake */\n      0x08\n      add\n      sload\n        /* \"oblig1/oblig1/RPS.sol\":2822:2883  payable(activeGames[_id].p2).transfer(activeGames[_id].stake) */\n      swap1\n      dup2\n      iszero\n      mul\n      swap1\n      mload(0x40)\n      0x00\n      mload(0x40)\n      dup1\n      dup4\n      sub\n      dup2\n      dup6\n      dup9\n      dup9\n      call\n      swap4\n      pop\n      pop\n      pop\n      pop\n      iszero\n      dup1\n      iszero\n      tag_150\n      jumpi\n      returndatasize\n      0x00\n      dup1\n      returndatacopy\n      revert(0x00, returndatasize)\n    tag_150:\n      pop\n        /* \"oblig1/oblig1/RPS.sol\":2925:3312  Game({... */\n      mload(0x40)\n      dup1\n      0x0140\n      add\n      0x40\n      mstore\n      dup1\n      mload(0x40)\n      dup1\n      0x20\n      add\n      0x40\n      mstore\n      dup1\n      0x00\n      dup2\n      mstore\n      pop\n      dup2\n      mstore\n      0x20\n      add\n        /* \"oblig1/oblig1/RPS.sol\":2994:2995  0 */\n      0x00\n        /* \"oblig1/oblig1/RPS.sol\":2925:3312  Game({... */\n      0xffffffffffffffffffffffffffffffffffffffff\n      and\n      dup2\n      mstore\n      0x20\n      add\n        /* \"oblig1/oblig1/RPS.sol\":3031:3032  0 */\n      0x00\n        /* \"oblig1/oblig1/RPS.sol\":2925:3312  Game({... */\n      0xffffffffffffffffffffffffffffffffffffffff\n      and\n      dup2\n      mstore\n      0x20\n      add\n        /* \"oblig1/oblig1/RPS.sol\":3068:3069  0 */\n      0x00\n        /* \"oblig1/oblig1/RPS.sol\":3060:3070  bytes32(0) */\n      dup1\n      shl\n        /* \"oblig1/oblig1/RPS.sol\":2925:3312  Game({... */\n      dup2\n      mstore\n      0x20\n      add\n        /* \"oblig1/oblig1/RPS.sol\":3105:3106  0 */\n      0x00\n        /* \"oblig1/oblig1/RPS.sol\":3097:3107  bytes32(0) */\n      dup1\n      shl\n        /* \"oblig1/oblig1/RPS.sol\":2925:3312  Game({... */\n      dup2\n      mstore\n      0x20\n      add\n        /* \"oblig1/oblig1/RPS.sol\":3140:3142  99 */\n      0x63\n        /* \"oblig1/oblig1/RPS.sol\":2925:3312  Game({... */\n      dup2\n      mstore\n      0x20\n      add\n        /* \"oblig1/oblig1/RPS.sol\":3183:3184  0 */\n      0x00\n        /* \"oblig1/oblig1/RPS.sol\":2925:3312  Game({... */\n      0xffffffffffffffffffffffffffffffffffffffff\n      and\n      dup2\n      mstore\n      0x20\n      add\n        /* \"oblig1/oblig1/RPS.sol\":3224:3225  0 */\n      0x00\n        /* \"oblig1/oblig1/RPS.sol\":2925:3312  Game({... */\n      0xffffffffffffffffffffffffffffffffffffffff\n      and\n      dup2\n      mstore\n      0x20\n      add\n        /* \"oblig1/oblig1/RPS.sol\":3256:3257  0 */\n      0x00\n        /* \"oblig1/oblig1/RPS.sol\":2925:3312  Game({... */\n      dup2\n      mstore\n      0x20\n      add\n        /* \"oblig1/oblig1/RPS.sol\":3291:3292  0 */\n      0x00\n        /* \"oblig1/oblig1/RPS.sol\":2925:3312  Game({... */\n      dup2\n      mstore\n      pop\n        /* \"oblig1/oblig1/RPS.sol\":2906:2917  activeGames */\n      0x00\n        /* \"oblig1/oblig1/RPS.sol\":2918:2921  _id */\n      dup6\n        /* \"oblig1/oblig1/RPS.sol\":2906:2922  activeGames[_id] */\n      mload(0x40)\n      tag_151\n      swap2\n      swap1\n      tag_48\n      jump\t// in\n    tag_151:\n      swap1\n      dup2\n      mstore\n      0x20\n      add\n      mload(0x40)\n      dup1\n      swap2\n      sub\n      swap1\n      keccak256\n        /* \"oblig1/oblig1/RPS.sol\":2906:3312  activeGames[_id] = Game({... */\n      0x00\n      dup3\n      add\n      mload\n      dup2\n      0x00\n      add\n      swap1\n      dup2\n      tag_152\n      swap2\n      swap1\n      tag_52\n      jump\t// in\n    tag_152:\n      pop\n      0x20\n      dup3\n      add\n      mload\n      dup2\n      0x01\n      add\n      exp(0x0100, 0x00)\n      dup2\n      sload\n      dup2\n      0xffffffffffffffffffffffffffffffffffffffff\n      mul\n      not\n      and\n      swap1\n      dup4\n      0xffffffffffffffffffffffffffffffffffffffff\n      and\n      mul\n      or\n      swap1\n      sstore\n      pop\n      0x40\n      dup3\n      add\n      mload\n      dup2\n      0x02\n      add\n      exp(0x0100, 0x00)\n      dup2\n      sload\n      dup2\n      0xffffffffffffffffffffffffffffffffffffffff\n      mul\n      not\n      and\n      swap1\n      dup4\n      0xffffffffffffffffffffffffffffffffffffffff\n      and\n      mul\n      or\n      swap1\n      sstore\n      pop\n      0x60\n      dup3\n      add\n      mload\n      dup2\n      0x03\n      add\n      sstore\n      0x80\n      dup3\n      add\n      mload\n      dup2\n      0x04\n      add\n      sstore\n      0xa0\n      dup3\n      add\n      mload\n      dup2\n      0x05\n      add\n      sstore\n      0xc0\n      dup3\n      add\n      mload\n      dup2\n      0x06\n      add\n      exp(0x0100, 0x00)\n      dup2\n      sload\n      dup2\n      0xffffffffffffffffffffffffffffffffffffffff\n      mul\n      not\n      and\n      swap1\n      dup4\n      0xffffffffffffffffffffffffffffffffffffffff\n      and\n      mul\n      or\n      swap1\n      sstore\n      pop\n      0xe0\n      dup3\n      add\n      mload\n      dup2\n      0x07\n      add\n      exp(0x0100, 0x00)\n      dup2\n      sload\n      dup2\n      0xffffffffffffffffffffffffffffffffffffffff\n      mul\n      not\n      and\n      swap1\n      dup4\n      0xffffffffffffffffffffffffffffffffffffffff\n      and\n      mul\n      or\n      swap1\n      sstore\n      pop\n      0x0100\n      dup3\n      add\n      mload\n      dup2\n      0x08\n      add\n      sstore\n      0x0120\n      dup3\n      add\n      mload\n      dup2\n      0x09\n      add\n      sstore\n      swap1\n      pop\n      pop\n        /* \"oblig1/oblig1/RPS.sol\":3365:3370  false */\n      0x00\n        /* \"oblig1/oblig1/RPS.sol\":3333:3341  isInGame */\n      0x01\n        /* \"oblig1/oblig1/RPS.sol\":3333:3362  isInGame[activeGames[_id].p1] */\n      0x00\n        /* \"oblig1/oblig1/RPS.sol\":3342:3353  activeGames */\n      dup1\n        /* \"oblig1/oblig1/RPS.sol\":3354:3357  _id */\n      dup8\n        /* \"oblig1/oblig1/RPS.sol\":3342:3358  activeGames[_id] */\n      mload(0x40)\n      tag_153\n      swap2\n      swap1\n      tag_48\n      jump\t// in\n    tag_153:\n      swap1\n      dup2\n      mstore\n      0x20\n      add\n      mload(0x40)\n      dup1\n      swap2\n      sub\n      swap1\n      keccak256\n        /* \"oblig1/oblig1/RPS.sol\":3342:3361  activeGames[_id].p1 */\n      0x01\n      add\n      0x00\n      swap1\n      sload\n      swap1\n      0x0100\n      exp\n      swap1\n      div\n      0xffffffffffffffffffffffffffffffffffffffff\n      and\n        /* \"oblig1/oblig1/RPS.sol\":3333:3362  isInGame[activeGames[_id].p1] */\n      0xffffffffffffffffffffffffffffffffffffffff\n      and\n      0xffffffffffffffffffffffffffffffffffffffff\n      and\n      dup2\n      mstore\n      0x20\n      add\n      swap1\n      dup2\n      mstore\n      0x20\n      add\n      0x00\n      keccak256\n      0x00\n        /* \"oblig1/oblig1/RPS.sol\":3333:3370  isInGame[activeGames[_id].p1] = false */\n      0x0100\n      exp\n      dup2\n      sload\n      dup2\n      0xff\n      mul\n      not\n      and\n      swap1\n      dup4\n      iszero\n      iszero\n      mul\n      or\n      swap1\n      sstore\n      pop\n        /* \"oblig1/oblig1/RPS.sol\":3421:3426  false */\n      0x00\n        /* \"oblig1/oblig1/RPS.sol\":3389:3397  isInGame */\n      0x01\n        /* \"oblig1/oblig1/RPS.sol\":3389:3418  isInGame[activeGames[_id].p2] */\n      0x00\n        /* \"oblig1/oblig1/RPS.sol\":3398:3409  activeGames */\n      dup1\n        /* \"oblig1/oblig1/RPS.sol\":3410:3413  _id */\n      dup8\n        /* \"oblig1/oblig1/RPS.sol\":3398:3414  activeGames[_id] */\n      mload(0x40)\n      tag_154\n      swap2\n      swap1\n      tag_48\n      jump\t// in\n    tag_154:\n      swap1\n      dup2\n      mstore\n      0x20\n      add\n      mload(0x40)\n      dup1\n      swap2\n      sub\n      swap1\n      keccak256\n        /* \"oblig1/oblig1/RPS.sol\":3398:3417  activeGames[_id].p2 */\n      0x02\n      add\n      0x00\n      swap1\n      sload\n      swap1\n      0x0100\n      exp\n      swap1\n      div\n      0xffffffffffffffffffffffffffffffffffffffff\n      and\n        /* \"oblig1/oblig1/RPS.sol\":3389:3418  isInGame[activeGames[_id].p2] */\n      0xffffffffffffffffffffffffffffffffffffffff\n      and\n      0xffffffffffffffffffffffffffffffffffffffff\n      and\n      dup2\n      mstore\n      0x20\n      add\n      swap1\n      dup2\n      mstore\n      0x20\n      add\n      0x00\n      keccak256\n      0x00\n        /* \"oblig1/oblig1/RPS.sol\":3389:3426  isInGame[activeGames[_id].p2] = false */\n      0x0100\n      exp\n      dup2\n      sload\n      dup2\n      0xff\n      mul\n      not\n      and\n      swap1\n      dup4\n      iszero\n      iszero\n      mul\n      or\n      swap1\n      sstore\n      pop\n        /* \"oblig1/oblig1/RPS.sol\":3445:3452  return; */\n      pop\n      pop\n      pop\n      jump(tag_101)\n        /* \"oblig1/oblig1/RPS.sol\":2705:3755  if   (winner == 0){... */\n    tag_142:\n        /* \"oblig1/oblig1/RPS.sol\":3560:3561  1 */\n      0x01\n        /* \"oblig1/oblig1/RPS.sol\":3550:3556  winner */\n      dup2\n        /* \"oblig1/oblig1/RPS.sol\":3550:3561  winner == 1 */\n      sub\n        /* \"oblig1/oblig1/RPS.sol\":3546:3755  if (winner == 1)... */\n      tag_156\n      jumpi\n        /* \"oblig1/oblig1/RPS.sol\":3606:3617  activeGames */\n      0x00\n        /* \"oblig1/oblig1/RPS.sol\":3618:3621  _id */\n      dup5\n        /* \"oblig1/oblig1/RPS.sol\":3606:3622  activeGames[_id] */\n      mload(0x40)\n      tag_157\n      swap2\n      swap1\n      tag_48\n      jump\t// in\n    tag_157:\n      swap1\n      dup2\n      mstore\n      0x20\n      add\n      mload(0x40)\n      dup1\n      swap2\n      sub\n      swap1\n      keccak256\n        /* \"oblig1/oblig1/RPS.sol\":3606:3631  activeGames[_id].revealer */\n      0x06\n      add\n      0x00\n      swap1\n      sload\n      swap1\n      0x0100\n      exp\n      swap1\n      div\n      0xffffffffffffffffffffffffffffffffffffffff\n      and\n        /* \"oblig1/oblig1/RPS.sol\":3580:3591  activeGames */\n      0x00\n        /* \"oblig1/oblig1/RPS.sol\":3592:3595  _id */\n      dup6\n        /* \"oblig1/oblig1/RPS.sol\":3580:3596  activeGames[_id] */\n      mload(0x40)\n      tag_158\n      swap2\n      swap1\n      tag_48\n      jump\t// in\n    tag_158:\n      swap1\n      dup2\n      mstore\n      0x20\n      add\n      mload(0x40)\n      dup1\n      swap2\n      sub\n      swap1\n      keccak256\n        /* \"oblig1/oblig1/RPS.sol\":3580:3603  activeGames[_id].winner */\n      0x07\n      add\n      0x00\n        /* \"oblig1/oblig1/RPS.sol\":3580:3631  activeGames[_id].winner = activeGames[_id].revealer */\n      0x0100\n      exp\n      dup2\n      sload\n      dup2\n      0xffffffffffffffffffffffffffffffffffffffff\n      mul\n      not\n      and\n      swap1\n      dup4\n      0xffffffffffffffffffffffffffffffffffffffff\n      and\n      mul\n      or\n      swap1\n      sstore\n      pop\n        /* \"oblig1/oblig1/RPS.sol\":3546:3755  if (winner == 1)... */\n      jump(tag_159)\n    tag_156:\n        /* \"oblig1/oblig1/RPS.sol\":3699:3700  2 */\n      0x02\n        /* \"oblig1/oblig1/RPS.sol\":3689:3695  winner */\n      dup2\n        /* \"oblig1/oblig1/RPS.sol\":3689:3700  winner == 2 */\n      sub\n        /* \"oblig1/oblig1/RPS.sol\":3685:3755  if (winner == 2)... */\n      tag_160\n      jumpi\n        /* \"oblig1/oblig1/RPS.sol\":3745:3755  msg.sender */\n      caller\n        /* \"oblig1/oblig1/RPS.sol\":3719:3730  activeGames */\n      0x00\n        /* \"oblig1/oblig1/RPS.sol\":3731:3734  _id */\n      dup6\n        /* \"oblig1/oblig1/RPS.sol\":3719:3735  activeGames[_id] */\n      mload(0x40)\n      tag_161\n      swap2\n      swap1\n      tag_48\n      jump\t// in\n    tag_161:\n      swap1\n      dup2\n      mstore\n      0x20\n      add\n      mload(0x40)\n      dup1\n      swap2\n      sub\n      swap1\n      keccak256\n        /* \"oblig1/oblig1/RPS.sol\":3719:3742  activeGames[_id].winner */\n      0x07\n      add\n      0x00\n        /* \"oblig1/oblig1/RPS.sol\":3719:3755  activeGames[_id].winner = msg.sender */\n      0x0100\n      exp\n      dup2\n      sload\n      dup2\n      0xffffffffffffffffffffffffffffffffffffffff\n      mul\n      not\n      and\n      swap1\n      dup4\n      0xffffffffffffffffffffffffffffffffffffffff\n      and\n      mul\n      or\n      swap1\n      sstore\n      pop\n        /* \"oblig1/oblig1/RPS.sol\":3685:3755  if (winner == 2)... */\n    tag_160:\n        /* \"oblig1/oblig1/RPS.sol\":3546:3755  if (winner == 1)... */\n    tag_159:\n        /* \"oblig1/oblig1/RPS.sol\":2618:3817  {... */\n      pop\n        /* \"oblig1/oblig1/RPS.sol\":2451:3817  if (activeGames[_id].revealer == address(0)){... */\n    tag_136:\n        /* \"oblig1/oblig1/RPS.sol\":3832:3860  revealVote(msg.sender, vote) */\n      0x396aba985c9dff270bb71a0e3b5ec32eabd9983ed6a9c8f69d861d1a0b92c1af\n        /* \"oblig1/oblig1/RPS.sol\":3843:3853  msg.sender */\n      caller\n        /* \"oblig1/oblig1/RPS.sol\":3855:3859  vote */\n      dup7\n        /* \"oblig1/oblig1/RPS.sol\":3832:3860  revealVote(msg.sender, vote) */\n      mload(0x40)\n      tag_162\n      swap3\n      swap2\n      swap1\n      tag_163\n      jump\t// in\n    tag_162:\n      mload(0x40)\n      dup1\n      swap2\n      sub\n      swap1\n      log1\n        /* \"oblig1/oblig1/RPS.sol\":1815:3868  {... */\n      pop\n      pop\n        /* \"oblig1/oblig1/RPS.sol\":1733:3868  function reveal(string memory vote, string memory salt, string memory _id) public {... */\n    tag_101:\n      pop\n      pop\n      pop\n      jump\t// out\n        /* \"oblig1/oblig1/RPS.sol\":5486:5683  function hashThis(string memory str, string memory salt) public {... */\n    tag_39:\n        /* \"oblig1/oblig1/RPS.sol\":5561:5580  bytes32 hashedValue */\n      0x00\n        /* \"oblig1/oblig1/RPS.sol\":5610:5613  str */\n      dup3\n        /* \"oblig1/oblig1/RPS.sol\":5615:5619  salt */\n      dup3\n        /* \"oblig1/oblig1/RPS.sol\":5593:5620  abi.encodePacked(str, salt) */\n      add(0x20, mload(0x40))\n      tag_165\n      swap3\n      swap2\n      swap1\n      tag_103\n      jump\t// in\n    tag_165:\n      mload(0x40)\n      0x20\n      dup2\n      dup4\n      sub\n      sub\n      dup2\n      mstore\n      swap1\n      0x40\n      mstore\n        /* \"oblig1/oblig1/RPS.sol\":5583:5621  keccak256(abi.encodePacked(str, salt)) */\n      dup1\n      mload\n      swap1\n      0x20\n      add\n      keccak256\n        /* \"oblig1/oblig1/RPS.sol\":5561:5621  bytes32 hashedValue = keccak256(abi.encodePacked(str, salt)) */\n      swap1\n      pop\n        /* \"oblig1/oblig1/RPS.sol\":5637:5675  makeHash(hashedValue, \"somethinghere\") */\n      0x2239ad6aab0ccf4f1a983f3ade7ee9767ede5427d5984fea19f91304a6994fd4\n        /* \"oblig1/oblig1/RPS.sol\":5646:5657  hashedValue */\n      dup2\n        /* \"oblig1/oblig1/RPS.sol\":5637:5675  makeHash(hashedValue, \"somethinghere\") */\n      mload(0x40)\n      tag_166\n      swap2\n      swap1\n      tag_167\n      jump\t// in\n    tag_166:\n      mload(0x40)\n      dup1\n      swap2\n      sub\n      swap1\n      log1\n        /* \"oblig1/oblig1/RPS.sol\":5550:5683  {... */\n      pop\n        /* \"oblig1/oblig1/RPS.sol\":5486:5683  function hashThis(string memory str, string memory salt) public {... */\n      pop\n      pop\n      jump\t// out\n        /* \"#utility.yul\":7:82   */\n    tag_168:\n        /* \"#utility.yul\":40:46   */\n      0x00\n        /* \"#utility.yul\":73:75   */\n      0x40\n        /* \"#utility.yul\":67:76   */\n      mload\n        /* \"#utility.yul\":57:76   */\n      swap1\n      pop\n        /* \"#utility.yul\":7:82   */\n      swap1\n      jump\t// out\n        /* \"#utility.yul\":88:205   */\n    tag_169:\n        /* \"#utility.yul\":197:198   */\n      0x00\n        /* \"#utility.yul\":194:195   */\n      dup1\n        /* \"#utility.yul\":187:199   */\n      revert\n        /* \"#utility.yul\":211:328   */\n    tag_170:\n        /* \"#utility.yul\":320:321   */\n      0x00\n        /* \"#utility.yul\":317:318   */\n      dup1\n        /* \"#utility.yul\":310:322   */\n      revert\n        /* \"#utility.yul\":334:411   */\n    tag_171:\n        /* \"#utility.yul\":371:378   */\n      0x00\n        /* \"#utility.yul\":400:405   */\n      dup2\n        /* \"#utility.yul\":389:405   */\n      swap1\n      pop\n        /* \"#utility.yul\":334:411   */\n      swap2\n      swap1\n      pop\n      jump\t// out\n        /* \"#utility.yul\":417:539   */\n    tag_172:\n        /* \"#utility.yul\":490:514   */\n      tag_242\n        /* \"#utility.yul\":508:513   */\n      dup2\n        /* \"#utility.yul\":490:514   */\n      tag_171\n      jump\t// in\n    tag_242:\n        /* \"#utility.yul\":483:488   */\n      dup2\n        /* \"#utility.yul\":480:515   */\n      eq\n        /* \"#utility.yul\":470:533   */\n      tag_243\n      jumpi\n        /* \"#utility.yul\":529:530   */\n      0x00\n        /* \"#utility.yul\":526:527   */\n      dup1\n        /* \"#utility.yul\":519:531   */\n      revert\n        /* \"#utility.yul\":470:533   */\n    tag_243:\n        /* \"#utility.yul\":417:539   */\n      pop\n      jump\t// out\n        /* \"#utility.yul\":545:684   */\n    tag_173:\n        /* \"#utility.yul\":591:596   */\n      0x00\n        /* \"#utility.yul\":629:635   */\n      dup2\n        /* \"#utility.yul\":616:636   */\n      calldataload\n        /* \"#utility.yul\":607:636   */\n      swap1\n      pop\n        /* \"#utility.yul\":645:678   */\n      tag_245\n        /* \"#utility.yul\":672:677   */\n      dup2\n        /* \"#utility.yul\":645:678   */\n      tag_172\n      jump\t// in\n    tag_245:\n        /* \"#utility.yul\":545:684   */\n      swap3\n      swap2\n      pop\n      pop\n      jump\t// out\n        /* \"#utility.yul\":690:807   */\n    tag_174:\n        /* \"#utility.yul\":799:800   */\n      0x00\n        /* \"#utility.yul\":796:797   */\n      dup1\n        /* \"#utility.yul\":789:801   */\n      revert\n        /* \"#utility.yul\":813:930   */\n    tag_175:\n        /* \"#utility.yul\":922:923   */\n      0x00\n        /* \"#utility.yul\":919:920   */\n      dup1\n        /* \"#utility.yul\":912:924   */\n      revert\n        /* \"#utility.yul\":936:1038   */\n    tag_176:\n        /* \"#utility.yul\":977:983   */\n      0x00\n        /* \"#utility.yul\":1028:1030   */\n      0x1f\n        /* \"#utility.yul\":1024:1031   */\n      not\n        /* \"#utility.yul\":1019:1021   */\n      0x1f\n        /* \"#utility.yul\":1012:1017   */\n      dup4\n        /* \"#utility.yul\":1008:1022   */\n      add\n        /* \"#utility.yul\":1004:1032   */\n      and\n        /* \"#utility.yul\":994:1032   */\n      swap1\n      pop\n        /* \"#utility.yul\":936:1038   */\n      swap2\n      swap1\n      pop\n      jump\t// out\n        /* \"#utility.yul\":1044:1224   */\n    tag_177:\n        /* \"#utility.yul\":1092:1169   */\n      0x4e487b7100000000000000000000000000000000000000000000000000000000\n        /* \"#utility.yul\":1089:1090   */\n      0x00\n        /* \"#utility.yul\":1082:1170   */\n      mstore\n        /* \"#utility.yul\":1189:1193   */\n      0x41\n        /* \"#utility.yul\":1186:1187   */\n      0x04\n        /* \"#utility.yul\":1179:1194   */\n      mstore\n        /* \"#utility.yul\":1213:1217   */\n      0x24\n        /* \"#utility.yul\":1210:1211   */\n      0x00\n        /* \"#utility.yul\":1203:1218   */\n      revert\n        /* \"#utility.yul\":1230:1511   */\n    tag_178:\n        /* \"#utility.yul\":1313:1340   */\n      tag_251\n        /* \"#utility.yul\":1335:1339   */\n      dup3\n        /* \"#utility.yul\":1313:1340   */\n      tag_176\n      jump\t// in\n    tag_251:\n        /* \"#utility.yul\":1305:1311   */\n      dup2\n        /* \"#utility.yul\":1301:1341   */\n      add\n        /* \"#utility.yul\":1443:1449   */\n      dup2\n        /* \"#utility.yul\":1431:1441   */\n      dup2\n        /* \"#utility.yul\":1428:1450   */\n      lt\n        /* \"#utility.yul\":1407:1425   */\n      0xffffffffffffffff\n        /* \"#utility.yul\":1395:1405   */\n      dup3\n        /* \"#utility.yul\":1392:1426   */\n      gt\n        /* \"#utility.yul\":1389:1451   */\n      or\n        /* \"#utility.yul\":1386:1474   */\n      iszero\n      tag_252\n      jumpi\n        /* \"#utility.yul\":1454:1472   */\n      tag_253\n      tag_177\n      jump\t// in\n    tag_253:\n        /* \"#utility.yul\":1386:1474   */\n    tag_252:\n        /* \"#utility.yul\":1494:1504   */\n      dup1\n        /* \"#utility.yul\":1490:1492   */\n      0x40\n        /* \"#utility.yul\":1483:1505   */\n      mstore\n        /* \"#utility.yul\":1273:1511   */\n      pop\n        /* \"#utility.yul\":1230:1511   */\n      pop\n      pop\n      jump\t// out\n        /* \"#utility.yul\":1517:1646   */\n    tag_179:\n        /* \"#utility.yul\":1551:1557   */\n      0x00\n        /* \"#utility.yul\":1578:1598   */\n      tag_255\n      tag_168\n      jump\t// in\n    tag_255:\n        /* \"#utility.yul\":1568:1598   */\n      swap1\n      pop\n        /* \"#utility.yul\":1607:1640   */\n      tag_256\n        /* \"#utility.yul\":1635:1639   */\n      dup3\n        /* \"#utility.yul\":1627:1633   */\n      dup3\n        /* \"#utility.yul\":1607:1640   */\n      tag_178\n      jump\t// in\n    tag_256:\n        /* \"#utility.yul\":1517:1646   */\n      swap2\n      swap1\n      pop\n      jump\t// out\n        /* \"#utility.yul\":1652:1960   */\n    tag_180:\n        /* \"#utility.yul\":1714:1718   */\n      0x00\n        /* \"#utility.yul\":1804:1822   */\n      0xffffffffffffffff\n        /* \"#utility.yul\":1796:1802   */\n      dup3\n        /* \"#utility.yul\":1793:1823   */\n      gt\n        /* \"#utility.yul\":1790:1846   */\n      iszero\n      tag_258\n      jumpi\n        /* \"#utility.yul\":1826:1844   */\n      tag_259\n      tag_177\n      jump\t// in\n    tag_259:\n        /* \"#utility.yul\":1790:1846   */\n    tag_258:\n        /* \"#utility.yul\":1864:1893   */\n      tag_260\n        /* \"#utility.yul\":1886:1892   */\n      dup3\n        /* \"#utility.yul\":1864:1893   */\n      tag_176\n      jump\t// in\n    tag_260:\n        /* \"#utility.yul\":1856:1893   */\n      swap1\n      pop\n        /* \"#utility.yul\":1948:1952   */\n      0x20\n        /* \"#utility.yul\":1942:1946   */\n      dup2\n        /* \"#utility.yul\":1938:1953   */\n      add\n        /* \"#utility.yul\":1930:1953   */\n      swap1\n      pop\n        /* \"#utility.yul\":1652:1960   */\n      swap2\n      swap1\n      pop\n      jump\t// out\n        /* \"#utility.yul\":1966:2114   */\n    tag_181:\n        /* \"#utility.yul\":2064:2070   */\n      dup3\n        /* \"#utility.yul\":2059:2062   */\n      dup2\n        /* \"#utility.yul\":2054:2057   */\n      dup4\n        /* \"#utility.yul\":2041:2071   */\n      calldatacopy\n        /* \"#utility.yul\":2105:2106   */\n      0x00\n        /* \"#utility.yul\":2096:2102   */\n      dup4\n        /* \"#utility.yul\":2091:2094   */\n      dup4\n        /* \"#utility.yul\":2087:2103   */\n      add\n        /* \"#utility.yul\":2080:2107   */\n      mstore\n        /* \"#utility.yul\":1966:2114   */\n      pop\n      pop\n      pop\n      jump\t// out\n        /* \"#utility.yul\":2120:2545   */\n    tag_182:\n        /* \"#utility.yul\":2198:2203   */\n      0x00\n        /* \"#utility.yul\":2223:2289   */\n      tag_263\n        /* \"#utility.yul\":2239:2288   */\n      tag_264\n        /* \"#utility.yul\":2281:2287   */\n      dup5\n        /* \"#utility.yul\":2239:2288   */\n      tag_180\n      jump\t// in\n    tag_264:\n        /* \"#utility.yul\":2223:2289   */\n      tag_179\n      jump\t// in\n    tag_263:\n        /* \"#utility.yul\":2214:2289   */\n      swap1\n      pop\n        /* \"#utility.yul\":2312:2318   */\n      dup3\n        /* \"#utility.yul\":2305:2310   */\n      dup2\n        /* \"#utility.yul\":2298:2319   */\n      mstore\n        /* \"#utility.yul\":2350:2354   */\n      0x20\n        /* \"#utility.yul\":2343:2348   */\n      dup2\n        /* \"#utility.yul\":2339:2355   */\n      add\n        /* \"#utility.yul\":2388:2391   */\n      dup5\n        /* \"#utility.yul\":2379:2385   */\n      dup5\n        /* \"#utility.yul\":2374:2377   */\n      dup5\n        /* \"#utility.yul\":2370:2386   */\n      add\n        /* \"#utility.yul\":2367:2392   */\n      gt\n        /* \"#utility.yul\":2364:2476   */\n      iszero\n      tag_265\n      jumpi\n        /* \"#utility.yul\":2395:2474   */\n      tag_266\n      tag_175\n      jump\t// in\n    tag_266:\n        /* \"#utility.yul\":2364:2476   */\n    tag_265:\n        /* \"#utility.yul\":2485:2539   */\n      tag_267\n        /* \"#utility.yul\":2532:2538   */\n      dup5\n        /* \"#utility.yul\":2527:2530   */\n      dup3\n        /* \"#utility.yul\":2522:2525   */\n      dup6\n        /* \"#utility.yul\":2485:2539   */\n      tag_181\n      jump\t// in\n    tag_267:\n        /* \"#utility.yul\":2204:2545   */\n      pop\n        /* \"#utility.yul\":2120:2545   */\n      swap4\n      swap3\n      pop\n      pop\n      pop\n      jump\t// out\n        /* \"#utility.yul\":2565:2905   */\n    tag_183:\n        /* \"#utility.yul\":2621:2626   */\n      0x00\n        /* \"#utility.yul\":2670:2673   */\n      dup3\n        /* \"#utility.yul\":2663:2667   */\n      0x1f\n        /* \"#utility.yul\":2655:2661   */\n      dup4\n        /* \"#utility.yul\":2651:2668   */\n      add\n        /* \"#utility.yul\":2647:2674   */\n      slt\n        /* \"#utility.yul\":2637:2759   */\n      tag_269\n      jumpi\n        /* \"#utility.yul\":2678:2757   */\n      tag_270\n      tag_174\n      jump\t// in\n    tag_270:\n        /* \"#utility.yul\":2637:2759   */\n    tag_269:\n        /* \"#utility.yul\":2795:2801   */\n      dup2\n        /* \"#utility.yul\":2782:2802   */\n      calldataload\n        /* \"#utility.yul\":2820:2899   */\n      tag_271\n        /* \"#utility.yul\":2895:2898   */\n      dup5\n        /* \"#utility.yul\":2887:2893   */\n      dup3\n        /* \"#utility.yul\":2880:2884   */\n      0x20\n        /* \"#utility.yul\":2872:2878   */\n      dup7\n        /* \"#utility.yul\":2868:2885   */\n      add\n        /* \"#utility.yul\":2820:2899   */\n      tag_182\n      jump\t// in\n    tag_271:\n        /* \"#utility.yul\":2811:2899   */\n      swap2\n      pop\n        /* \"#utility.yul\":2627:2905   */\n      pop\n        /* \"#utility.yul\":2565:2905   */\n      swap3\n      swap2\n      pop\n      pop\n      jump\t// out\n        /* \"#utility.yul\":2911:3565   */\n    tag_10:\n        /* \"#utility.yul\":2989:2995   */\n      0x00\n        /* \"#utility.yul\":2997:3003   */\n      dup1\n        /* \"#utility.yul\":3046:3048   */\n      0x40\n        /* \"#utility.yul\":3034:3043   */\n      dup4\n        /* \"#utility.yul\":3025:3032   */\n      dup6\n        /* \"#utility.yul\":3021:3044   */\n      sub\n        /* \"#utility.yul\":3017:3049   */\n      slt\n        /* \"#utility.yul\":3014:3133   */\n      iszero\n      tag_273\n      jumpi\n        /* \"#utility.yul\":3052:3131   */\n      tag_274\n      tag_169\n      jump\t// in\n    tag_274:\n        /* \"#utility.yul\":3014:3133   */\n    tag_273:\n        /* \"#utility.yul\":3172:3173   */\n      0x00\n        /* \"#utility.yul\":3197:3250   */\n      tag_275\n        /* \"#utility.yul\":3242:3249   */\n      dup6\n        /* \"#utility.yul\":3233:3239   */\n      dup3\n        /* \"#utility.yul\":3222:3231   */\n      dup7\n        /* \"#utility.yul\":3218:3240   */\n      add\n        /* \"#utility.yul\":3197:3250   */\n      tag_173\n      jump\t// in\n    tag_275:\n        /* \"#utility.yul\":3187:3250   */\n      swap3\n      pop\n        /* \"#utility.yul\":3143:3260   */\n      pop\n        /* \"#utility.yul\":3327:3329   */\n      0x20\n        /* \"#utility.yul\":3316:3325   */\n      dup4\n        /* \"#utility.yul\":3312:3330   */\n      add\n        /* \"#utility.yul\":3299:3331   */\n      calldataload\n        /* \"#utility.yul\":3358:3376   */\n      0xffffffffffffffff\n        /* \"#utility.yul\":3350:3356   */\n      dup2\n        /* \"#utility.yul\":3347:3377   */\n      gt\n        /* \"#utility.yul\":3344:3461   */\n      iszero\n      tag_276\n      jumpi\n        /* \"#utility.yul\":3380:3459   */\n      tag_277\n      tag_170\n      jump\t// in\n    tag_277:\n        /* \"#utility.yul\":3344:3461   */\n    tag_276:\n        /* \"#utility.yul\":3485:3548   */\n      tag_278\n        /* \"#utility.yul\":3540:3547   */\n      dup6\n        /* \"#utility.yul\":3531:3537   */\n      dup3\n        /* \"#utility.yul\":3520:3529   */\n      dup7\n        /* \"#utility.yul\":3516:3538   */\n      add\n        /* \"#utility.yul\":3485:3548   */\n      tag_183\n      jump\t// in\n    tag_278:\n        /* \"#utility.yul\":3475:3548   */\n      swap2\n      pop\n        /* \"#utility.yul\":3270:3558   */\n      pop\n        /* \"#utility.yul\":2911:3565   */\n      swap3\n      pop\n      swap3\n      swap1\n      pop\n      jump\t// out\n        /* \"#utility.yul\":3571:4080   */\n    tag_15:\n        /* \"#utility.yul\":3640:3646   */\n      0x00\n        /* \"#utility.yul\":3689:3691   */\n      0x20\n        /* \"#utility.yul\":3677:3686   */\n      dup3\n        /* \"#utility.yul\":3668:3675   */\n      dup5\n        /* \"#utility.yul\":3664:3687   */\n      sub\n        /* \"#utility.yul\":3660:3692   */\n      slt\n        /* \"#utility.yul\":3657:3776   */\n      iszero\n      tag_280\n      jumpi\n        /* \"#utility.yul\":3695:3774   */\n      tag_281\n      tag_169\n      jump\t// in\n    tag_281:\n        /* \"#utility.yul\":3657:3776   */\n    tag_280:\n        /* \"#utility.yul\":3843:3844   */\n      0x00\n        /* \"#utility.yul\":3832:3841   */\n      dup3\n        /* \"#utility.yul\":3828:3845   */\n      add\n        /* \"#utility.yul\":3815:3846   */\n      calldataload\n        /* \"#utility.yul\":3873:3891   */\n      0xffffffffffffffff\n        /* \"#utility.yul\":3865:3871   */\n      dup2\n        /* \"#utility.yul\":3862:3892   */\n      gt\n        /* \"#utility.yul\":3859:3976   */\n      iszero\n      tag_282\n      jumpi\n        /* \"#utility.yul\":3895:3974   */\n      tag_283\n      tag_170\n      jump\t// in\n    tag_283:\n        /* \"#utility.yul\":3859:3976   */\n    tag_282:\n        /* \"#utility.yul\":4000:4063   */\n      tag_284\n        /* \"#utility.yul\":4055:4062   */\n      dup5\n        /* \"#utility.yul\":4046:4052   */\n      dup3\n        /* \"#utility.yul\":4035:4044   */\n      dup6\n        /* \"#utility.yul\":4031:4053   */\n      add\n        /* \"#utility.yul\":4000:4063   */\n      tag_183\n      jump\t// in\n    tag_284:\n        /* \"#utility.yul\":3990:4063   */\n      swap2\n      pop\n        /* \"#utility.yul\":3786:4073   */\n      pop\n        /* \"#utility.yul\":3571:4080   */\n      swap3\n      swap2\n      pop\n      pop\n      jump\t// out\n        /* \"#utility.yul\":4086:4212   */\n    tag_184:\n        /* \"#utility.yul\":4123:4130   */\n      0x00\n        /* \"#utility.yul\":4163:4205   */\n      0xffffffffffffffffffffffffffffffffffffffff\n        /* \"#utility.yul\":4156:4161   */\n      dup3\n        /* \"#utility.yul\":4152:4206   */\n      and\n        /* \"#utility.yul\":4141:4206   */\n      swap1\n      pop\n        /* \"#utility.yul\":4086:4212   */\n      swap2\n      swap1\n      pop\n      jump\t// out\n        /* \"#utility.yul\":4218:4314   */\n    tag_185:\n        /* \"#utility.yul\":4255:4262   */\n      0x00\n        /* \"#utility.yul\":4284:4308   */\n      tag_287\n        /* \"#utility.yul\":4302:4307   */\n      dup3\n        /* \"#utility.yul\":4284:4308   */\n      tag_184\n      jump\t// in\n    tag_287:\n        /* \"#utility.yul\":4273:4308   */\n      swap1\n      pop\n        /* \"#utility.yul\":4218:4314   */\n      swap2\n      swap1\n      pop\n      jump\t// out\n        /* \"#utility.yul\":4320:4442   */\n    tag_186:\n        /* \"#utility.yul\":4393:4417   */\n      tag_289\n        /* \"#utility.yul\":4411:4416   */\n      dup2\n        /* \"#utility.yul\":4393:4417   */\n      tag_185\n      jump\t// in\n    tag_289:\n        /* \"#utility.yul\":4386:4391   */\n      dup2\n        /* \"#utility.yul\":4383:4418   */\n      eq\n        /* \"#utility.yul\":4373:4436   */\n      tag_290\n      jumpi\n        /* \"#utility.yul\":4432:4433   */\n      0x00\n        /* \"#utility.yul\":4429:4430   */\n      dup1\n        /* \"#utility.yul\":4422:4434   */\n      revert\n        /* \"#utility.yul\":4373:4436   */\n    tag_290:\n        /* \"#utility.yul\":4320:4442   */\n      pop\n      jump\t// out\n        /* \"#utility.yul\":4448:4587   */\n    tag_187:\n        /* \"#utility.yul\":4494:4499   */\n      0x00\n        /* \"#utility.yul\":4532:4538   */\n      dup2\n        /* \"#utility.yul\":4519:4539   */\n      calldataload\n        /* \"#utility.yul\":4510:4539   */\n      swap1\n      pop\n        /* \"#utility.yul\":4548:4581   */\n      tag_292\n        /* \"#utility.yul\":4575:4580   */\n      dup2\n        /* \"#utility.yul\":4548:4581   */\n      tag_186\n      jump\t// in\n    tag_292:\n        /* \"#utility.yul\":4448:4587   */\n      swap3\n      swap2\n      pop\n      pop\n      jump\t// out\n        /* \"#utility.yul\":4593:4922   */\n    tag_20:\n        /* \"#utility.yul\":4652:4658   */\n      0x00\n        /* \"#utility.yul\":4701:4703   */\n      0x20\n        /* \"#utility.yul\":4689:4698   */\n      dup3\n        /* \"#utility.yul\":4680:4687   */\n      dup5\n        /* \"#utility.yul\":4676:4699   */\n      sub\n        /* \"#utility.yul\":4672:4704   */\n      slt\n        /* \"#utility.yul\":4669:4788   */\n      iszero\n      tag_294\n      jumpi\n        /* \"#utility.yul\":4707:4786   */\n      tag_295\n      tag_169\n      jump\t// in\n    tag_295:\n        /* \"#utility.yul\":4669:4788   */\n    tag_294:\n        /* \"#utility.yul\":4827:4828   */\n      0x00\n        /* \"#utility.yul\":4852:4905   */\n      tag_296\n        /* \"#utility.yul\":4897:4904   */\n      dup5\n        /* \"#utility.yul\":4888:4894   */\n      dup3\n        /* \"#utility.yul\":4877:4886   */\n      dup6\n        /* \"#utility.yul\":4873:4895   */\n      add\n        /* \"#utility.yul\":4852:4905   */\n      tag_187\n      jump\t// in\n    tag_296:\n        /* \"#utility.yul\":4842:4905   */\n      swap2\n      pop\n        /* \"#utility.yul\":4798:4915   */\n      pop\n        /* \"#utility.yul\":4593:4922   */\n      swap3\n      swap2\n      pop\n      pop\n      jump\t// out\n        /* \"#utility.yul\":4928:5018   */\n    tag_188:\n        /* \"#utility.yul\":4962:4969   */\n      0x00\n        /* \"#utility.yul\":5005:5010   */\n      dup2\n        /* \"#utility.yul\":4998:5011   */\n      iszero\n        /* \"#utility.yul\":4991:5012   */\n      iszero\n        /* \"#utility.yul\":4980:5012   */\n      swap1\n      pop\n        /* \"#utility.yul\":4928:5018   */\n      swap2\n      swap1\n      pop\n      jump\t// out\n        /* \"#utility.yul\":5024:5133   */\n    tag_189:\n        /* \"#utility.yul\":5105:5126   */\n      tag_299\n        /* \"#utility.yul\":5120:5125   */\n      dup2\n        /* \"#utility.yul\":5105:5126   */\n      tag_188\n      jump\t// in\n    tag_299:\n        /* \"#utility.yul\":5100:5103   */\n      dup3\n        /* \"#utility.yul\":5093:5127   */\n      mstore\n        /* \"#utility.yul\":5024:5133   */\n      pop\n      pop\n      jump\t// out\n        /* \"#utility.yul\":5139:5349   */\n    tag_23:\n        /* \"#utility.yul\":5226:5230   */\n      0x00\n        /* \"#utility.yul\":5264:5266   */\n      0x20\n        /* \"#utility.yul\":5253:5262   */\n      dup3\n        /* \"#utility.yul\":5249:5267   */\n      add\n        /* \"#utility.yul\":5241:5267   */\n      swap1\n      pop\n        /* \"#utility.yul\":5277:5342   */\n      tag_301\n        /* \"#utility.yul\":5339:5340   */\n      0x00\n        /* \"#utility.yul\":5328:5337   */\n      dup4\n        /* \"#utility.yul\":5324:5341   */\n      add\n        /* \"#utility.yul\":5315:5321   */\n      dup5\n        /* \"#utility.yul\":5277:5342   */\n      tag_189\n      jump\t// in\n    tag_301:\n        /* \"#utility.yul\":5139:5349   */\n      swap3\n      swap2\n      pop\n      pop\n      jump\t// out\n        /* \"#utility.yul\":5355:5454   */\n    tag_190:\n        /* \"#utility.yul\":5407:5413   */\n      0x00\n        /* \"#utility.yul\":5441:5446   */\n      dup2\n        /* \"#utility.yul\":5435:5447   */\n      mload\n        /* \"#utility.yul\":5425:5447   */\n      swap1\n      pop\n        /* \"#utility.yul\":5355:5454   */\n      swap2\n      swap1\n      pop\n      jump\t// out\n        /* \"#utility.yul\":5460:5629   */\n    tag_191:\n        /* \"#utility.yul\":5544:5555   */\n      0x00\n        /* \"#utility.yul\":5578:5584   */\n      dup3\n        /* \"#utility.yul\":5573:5576   */\n      dup3\n        /* \"#utility.yul\":5566:5585   */\n      mstore\n        /* \"#utility.yul\":5618:5622   */\n      0x20\n        /* \"#utility.yul\":5613:5616   */\n      dup3\n        /* \"#utility.yul\":5609:5623   */\n      add\n        /* \"#utility.yul\":5594:5623   */\n      swap1\n      pop\n        /* \"#utility.yul\":5460:5629   */\n      swap3\n      swap2\n      pop\n      pop\n      jump\t// out\n        /* \"#utility.yul\":5635:5774   */\n    tag_192:\n        /* \"#utility.yul\":5724:5730   */\n      dup3\n        /* \"#utility.yul\":5719:5722   */\n      dup2\n        /* \"#utility.yul\":5714:5717   */\n      dup4\n        /* \"#utility.yul\":5708:5731   */\n      mcopy\n        /* \"#utility.yul\":5765:5766   */\n      0x00\n        /* \"#utility.yul\":5756:5762   */\n      dup4\n        /* \"#utility.yul\":5751:5754   */\n      dup4\n        /* \"#utility.yul\":5747:5763   */\n      add\n        /* \"#utility.yul\":5740:5767   */\n      mstore\n        /* \"#utility.yul\":5635:5774   */\n      pop\n      pop\n      pop\n      jump\t// out\n        /* \"#utility.yul\":5780:6157   */\n    tag_193:\n        /* \"#utility.yul\":5868:5871   */\n      0x00\n        /* \"#utility.yul\":5896:5935   */\n      tag_306\n        /* \"#utility.yul\":5929:5934   */\n      dup3\n        /* \"#utility.yul\":5896:5935   */\n      tag_190\n      jump\t// in\n    tag_306:\n        /* \"#utility.yul\":5951:6022   */\n      tag_307\n        /* \"#utility.yul\":6015:6021   */\n      dup2\n        /* \"#utility.yul\":6010:6013   */\n      dup6\n        /* \"#utility.yul\":5951:6022   */\n      tag_191\n      jump\t// in\n    tag_307:\n        /* \"#utility.yul\":5944:6022   */\n      swap4\n      pop\n        /* \"#utility.yul\":6031:6096   */\n      tag_308\n        /* \"#utility.yul\":6089:6095   */\n      dup2\n        /* \"#utility.yul\":6084:6087   */\n      dup6\n        /* \"#utility.yul\":6077:6081   */\n      0x20\n        /* \"#utility.yul\":6070:6075   */\n      dup7\n        /* \"#utility.yul\":6066:6082   */\n      add\n        /* \"#utility.yul\":6031:6096   */\n      tag_192\n      jump\t// in\n    tag_308:\n        /* \"#utility.yul\":6121:6150   */\n      tag_309\n        /* \"#utility.yul\":6143:6149   */\n      dup2\n        /* \"#utility.yul\":6121:6150   */\n      tag_176\n      jump\t// in\n    tag_309:\n        /* \"#utility.yul\":6116:6119   */\n      dup5\n        /* \"#utility.yul\":6112:6151   */\n      add\n        /* \"#utility.yul\":6105:6151   */\n      swap2\n      pop\n        /* \"#utility.yul\":5872:6157   */\n      pop\n        /* \"#utility.yul\":5780:6157   */\n      swap3\n      swap2\n      pop\n      pop\n      jump\t// out\n        /* \"#utility.yul\":6163:6281   */\n    tag_194:\n        /* \"#utility.yul\":6250:6274   */\n      tag_311\n        /* \"#utility.yul\":6268:6273   */\n      dup2\n        /* \"#utility.yul\":6250:6274   */\n      tag_185\n      jump\t// in\n    tag_311:\n        /* \"#utility.yul\":6245:6248   */\n      dup3\n        /* \"#utility.yul\":6238:6275   */\n      mstore\n        /* \"#utility.yul\":6163:6281   */\n      pop\n      pop\n      jump\t// out\n        /* \"#utility.yul\":6287:6405   */\n    tag_195:\n        /* \"#utility.yul\":6374:6398   */\n      tag_313\n        /* \"#utility.yul\":6392:6397   */\n      dup2\n        /* \"#utility.yul\":6374:6398   */\n      tag_171\n      jump\t// in\n    tag_313:\n        /* \"#utility.yul\":6369:6372   */\n      dup3\n        /* \"#utility.yul\":6362:6399   */\n      mstore\n        /* \"#utility.yul\":6287:6405   */\n      pop\n      pop\n      jump\t// out\n        /* \"#utility.yul\":6411:6488   */\n    tag_196:\n        /* \"#utility.yul\":6448:6455   */\n      0x00\n        /* \"#utility.yul\":6477:6482   */\n      dup2\n        /* \"#utility.yul\":6466:6482   */\n      swap1\n      pop\n        /* \"#utility.yul\":6411:6488   */\n      swap2\n      swap1\n      pop\n      jump\t// out\n        /* \"#utility.yul\":6494:6612   */\n    tag_197:\n        /* \"#utility.yul\":6581:6605   */\n      tag_316\n        /* \"#utility.yul\":6599:6604   */\n      dup2\n        /* \"#utility.yul\":6581:6605   */\n      tag_196\n      jump\t// in\n    tag_316:\n        /* \"#utility.yul\":6576:6579   */\n      dup3\n        /* \"#utility.yul\":6569:6606   */\n      mstore\n        /* \"#utility.yul\":6494:6612   */\n      pop\n      pop\n      jump\t// out\n        /* \"#utility.yul\":6618:7928   */\n    tag_29:\n        /* \"#utility.yul\":6983:6987   */\n      0x00\n        /* \"#utility.yul\":7021:7024   */\n      0x0140\n        /* \"#utility.yul\":7010:7019   */\n      dup3\n        /* \"#utility.yul\":7006:7025   */\n      add\n        /* \"#utility.yul\":6998:7025   */\n      swap1\n      pop\n        /* \"#utility.yul\":7071:7080   */\n      dup2\n        /* \"#utility.yul\":7065:7069   */\n      dup2\n        /* \"#utility.yul\":7061:7081   */\n      sub\n        /* \"#utility.yul\":7057:7058   */\n      0x00\n        /* \"#utility.yul\":7046:7055   */\n      dup4\n        /* \"#utility.yul\":7042:7059   */\n      add\n        /* \"#utility.yul\":7035:7082   */\n      mstore\n        /* \"#utility.yul\":7099:7177   */\n      tag_318\n        /* \"#utility.yul\":7172:7176   */\n      dup2\n        /* \"#utility.yul\":7163:7169   */\n      dup14\n        /* \"#utility.yul\":7099:7177   */\n      tag_193\n      jump\t// in\n    tag_318:\n        /* \"#utility.yul\":7091:7177   */\n      swap1\n      pop\n        /* \"#utility.yul\":7187:7259   */\n      tag_319\n        /* \"#utility.yul\":7255:7257   */\n      0x20\n        /* \"#utility.yul\":7244:7253   */\n      dup4\n        /* \"#utility.yul\":7240:7258   */\n      add\n        /* \"#utility.yul\":7231:7237   */\n      dup13\n        /* \"#utility.yul\":7187:7259   */\n      tag_194\n      jump\t// in\n    tag_319:\n        /* \"#utility.yul\":7269:7341   */\n      tag_320\n        /* \"#utility.yul\":7337:7339   */\n      0x40\n        /* \"#utility.yul\":7326:7335   */\n      dup4\n        /* \"#utility.yul\":7322:7340   */\n      add\n        /* \"#utility.yul\":7313:7319   */\n      dup12\n        /* \"#utility.yul\":7269:7341   */\n      tag_194\n      jump\t// in\n    tag_320:\n        /* \"#utility.yul\":7351:7423   */\n      tag_321\n        /* \"#utility.yul\":7419:7421   */\n      0x60\n        /* \"#utility.yul\":7408:7417   */\n      dup4\n        /* \"#utility.yul\":7404:7422   */\n      add\n        /* \"#utility.yul\":7395:7401   */\n      dup11\n        /* \"#utility.yul\":7351:7423   */\n      tag_195\n      jump\t// in\n    tag_321:\n        /* \"#utility.yul\":7433:7506   */\n      tag_322\n        /* \"#utility.yul\":7501:7504   */\n      0x80\n        /* \"#utility.yul\":7490:7499   */\n      dup4\n        /* \"#utility.yul\":7486:7505   */\n      add\n        /* \"#utility.yul\":7477:7483   */\n      dup10\n        /* \"#utility.yul\":7433:7506   */\n      tag_195\n      jump\t// in\n    tag_322:\n        /* \"#utility.yul\":7516:7589   */\n      tag_323\n        /* \"#utility.yul\":7584:7587   */\n      0xa0\n        /* \"#utility.yul\":7573:7582   */\n      dup4\n        /* \"#utility.yul\":7569:7588   */\n      add\n        /* \"#utility.yul\":7560:7566   */\n      dup9\n        /* \"#utility.yul\":7516:7589   */\n      tag_197\n      jump\t// in\n    tag_323:\n        /* \"#utility.yul\":7599:7672   */\n      tag_324\n        /* \"#utility.yul\":7667:7670   */\n      0xc0\n        /* \"#utility.yul\":7656:7665   */\n      dup4\n        /* \"#utility.yul\":7652:7671   */\n      add\n        /* \"#utility.yul\":7643:7649   */\n      dup8\n        /* \"#utility.yul\":7599:7672   */\n      tag_194\n      jump\t// in\n    tag_324:\n        /* \"#utility.yul\":7682:7755   */\n      tag_325\n        /* \"#utility.yul\":7750:7753   */\n      0xe0\n        /* \"#utility.yul\":7739:7748   */\n      dup4\n        /* \"#utility.yul\":7735:7754   */\n      add\n        /* \"#utility.yul\":7726:7732   */\n      dup7\n        /* \"#utility.yul\":7682:7755   */\n      tag_194\n      jump\t// in\n    tag_325:\n        /* \"#utility.yul\":7765:7838   */\n      tag_326\n        /* \"#utility.yul\":7833:7836   */\n      0x0100\n        /* \"#utility.yul\":7822:7831   */\n      dup4\n        /* \"#utility.yul\":7818:7837   */\n      add\n        /* \"#utility.yul\":7809:7815   */\n      dup6\n        /* \"#utility.yul\":7765:7838   */\n      tag_197\n      jump\t// in\n    tag_326:\n        /* \"#utility.yul\":7848:7921   */\n      tag_327\n        /* \"#utility.yul\":7916:7919   */\n      0x0120\n        /* \"#utility.yul\":7905:7914   */\n      dup4\n        /* \"#utility.yul\":7901:7920   */\n      add\n        /* \"#utility.yul\":7892:7898   */\n      dup5\n        /* \"#utility.yul\":7848:7921   */\n      tag_197\n      jump\t// in\n    tag_327:\n        /* \"#utility.yul\":6618:7928   */\n      swap12\n      swap11\n      pop\n      pop\n      pop\n      pop\n      pop\n      pop\n      pop\n      pop\n      pop\n      pop\n      pop\n      jump\t// out\n        /* \"#utility.yul\":7934:9093   */\n    tag_33:\n        /* \"#utility.yul\":8041:8047   */\n      0x00\n        /* \"#utility.yul\":8049:8055   */\n      dup1\n        /* \"#utility.yul\":8057:8063   */\n      0x00\n        /* \"#utility.yul\":8106:8108   */\n      0x60\n        /* \"#utility.yul\":8094:8103   */\n      dup5\n        /* \"#utility.yul\":8085:8092   */\n      dup7\n        /* \"#utility.yul\":8081:8104   */\n      sub\n        /* \"#utility.yul\":8077:8109   */\n      slt\n        /* \"#utility.yul\":8074:8193   */\n      iszero\n      tag_329\n      jumpi\n        /* \"#utility.yul\":8112:8191   */\n      tag_330\n      tag_169\n      jump\t// in\n    tag_330:\n        /* \"#utility.yul\":8074:8193   */\n    tag_329:\n        /* \"#utility.yul\":8260:8261   */\n      0x00\n        /* \"#utility.yul\":8249:8258   */\n      dup5\n        /* \"#utility.yul\":8245:8262   */\n      add\n        /* \"#utility.yul\":8232:8263   */\n      calldataload\n        /* \"#utility.yul\":8290:8308   */\n      0xffffffffffffffff\n        /* \"#utility.yul\":8282:8288   */\n      dup2\n        /* \"#utility.yul\":8279:8309   */\n      gt\n        /* \"#utility.yul\":8276:8393   */\n      iszero\n      tag_331\n      jumpi\n        /* \"#utility.yul\":8312:8391   */\n      tag_332\n      tag_170\n      jump\t// in\n    tag_332:\n        /* \"#utility.yul\":8276:8393   */\n    tag_331:\n        /* \"#utility.yul\":8417:8480   */\n      tag_333\n        /* \"#utility.yul\":8472:8479   */\n      dup7\n        /* \"#utility.yul\":8463:8469   */\n      dup3\n        /* \"#utility.yul\":8452:8461   */\n      dup8\n        /* \"#utility.yul\":8448:8470   */\n      add\n        /* \"#utility.yul\":8417:8480   */\n      tag_183\n      jump\t// in\n    tag_333:\n        /* \"#utility.yul\":8407:8480   */\n      swap4\n      pop\n        /* \"#utility.yul\":8203:8490   */\n      pop\n        /* \"#utility.yul\":8557:8559   */\n      0x20\n        /* \"#utility.yul\":8546:8555   */\n      dup5\n        /* \"#utility.yul\":8542:8560   */\n      add\n        /* \"#utility.yul\":8529:8561   */\n      calldataload\n        /* \"#utility.yul\":8588:8606   */\n      0xffffffffffffffff\n        /* \"#utility.yul\":8580:8586   */\n      dup2\n        /* \"#utility.yul\":8577:8607   */\n      gt\n        /* \"#utility.yul\":8574:8691   */\n      iszero\n      tag_334\n      jumpi\n        /* \"#utility.yul\":8610:8689   */\n      tag_335\n      tag_170\n      jump\t// in\n    tag_335:\n        /* \"#utility.yul\":8574:8691   */\n    tag_334:\n        /* \"#utility.yul\":8715:8778   */\n      tag_336\n        /* \"#utility.yul\":8770:8777   */\n      dup7\n        /* \"#utility.yul\":8761:8767   */\n      dup3\n        /* \"#utility.yul\":8750:8759   */\n      dup8\n        /* \"#utility.yul\":8746:8768   */\n      add\n        /* \"#utility.yul\":8715:8778   */\n      tag_183\n      jump\t// in\n    tag_336:\n        /* \"#utility.yul\":8705:8778   */\n      swap3\n      pop\n        /* \"#utility.yul\":8500:8788   */\n      pop\n        /* \"#utility.yul\":8855:8857   */\n      0x40\n        /* \"#utility.yul\":8844:8853   */\n      dup5\n        /* \"#utility.yul\":8840:8858   */\n      add\n        /* \"#utility.yul\":8827:8859   */\n      calldataload\n        /* \"#utility.yul\":8886:8904   */\n      0xffffffffffffffff\n        /* \"#utility.yul\":8878:8884   */\n      dup2\n        /* \"#utility.yul\":8875:8905   */\n      gt\n        /* \"#utility.yul\":8872:8989   */\n      iszero\n      tag_337\n      jumpi\n        /* \"#utility.yul\":8908:8987   */\n      tag_338\n      tag_170\n      jump\t// in\n    tag_338:\n        /* \"#utility.yul\":8872:8989   */\n    tag_337:\n        /* \"#utility.yul\":9013:9076   */\n      tag_339\n        /* \"#utility.yul\":9068:9075   */\n      dup7\n        /* \"#utility.yul\":9059:9065   */\n      dup3\n        /* \"#utility.yul\":9048:9057   */\n      dup8\n        /* \"#utility.yul\":9044:9066   */\n      add\n        /* \"#utility.yul\":9013:9076   */\n      tag_183\n      jump\t// in\n    tag_339:\n        /* \"#utility.yul\":9003:9076   */\n      swap2\n      pop\n        /* \"#utility.yul\":8798:9086   */\n      pop\n        /* \"#utility.yul\":7934:9093   */\n      swap3\n      pop\n      swap3\n      pop\n      swap3\n      jump\t// out\n        /* \"#utility.yul\":9099:9933   */\n    tag_38:\n        /* \"#utility.yul\":9187:9193   */\n      0x00\n        /* \"#utility.yul\":9195:9201   */\n      dup1\n        /* \"#utility.yul\":9244:9246   */\n      0x40\n        /* \"#utility.yul\":9232:9241   */\n      dup4\n        /* \"#utility.yul\":9223:9230   */\n      dup6\n        /* \"#utility.yul\":9219:9242   */\n      sub\n        /* \"#utility.yul\":9215:9247   */\n      slt\n        /* \"#utility.yul\":9212:9331   */\n      iszero\n      tag_341\n      jumpi\n        /* \"#utility.yul\":9250:9329   */\n      tag_342\n      tag_169\n      jump\t// in\n    tag_342:\n        /* \"#utility.yul\":9212:9331   */\n    tag_341:\n        /* \"#utility.yul\":9398:9399   */\n      0x00\n        /* \"#utility.yul\":9387:9396   */\n      dup4\n        /* \"#utility.yul\":9383:9400   */\n      add\n        /* \"#utility.yul\":9370:9401   */\n      calldataload\n        /* \"#utility.yul\":9428:9446   */\n      0xffffffffffffffff\n        /* \"#utility.yul\":9420:9426   */\n      dup2\n        /* \"#utility.yul\":9417:9447   */\n      gt\n        /* \"#utility.yul\":9414:9531   */\n      iszero\n      tag_343\n      jumpi\n        /* \"#utility.yul\":9450:9529   */\n      tag_344\n      tag_170\n      jump\t// in\n    tag_344:\n        /* \"#utility.yul\":9414:9531   */\n    tag_343:\n        /* \"#utility.yul\":9555:9618   */\n      tag_345\n        /* \"#utility.yul\":9610:9617   */\n      dup6\n        /* \"#utility.yul\":9601:9607   */\n      dup3\n        /* \"#utility.yul\":9590:9599   */\n      dup7\n        /* \"#utility.yul\":9586:9608   */\n      add\n        /* \"#utility.yul\":9555:9618   */\n      tag_183\n      jump\t// in\n    tag_345:\n        /* \"#utility.yul\":9545:9618   */\n      swap3\n      pop\n        /* \"#utility.yul\":9341:9628   */\n      pop\n        /* \"#utility.yul\":9695:9697   */\n      0x20\n        /* \"#utility.yul\":9684:9693   */\n      dup4\n        /* \"#utility.yul\":9680:9698   */\n      add\n        /* \"#utility.yul\":9667:9699   */\n      calldataload\n        /* \"#utility.yul\":9726:9744   */\n      0xffffffffffffffff\n        /* \"#utility.yul\":9718:9724   */\n      dup2\n        /* \"#utility.yul\":9715:9745   */\n      gt\n        /* \"#utility.yul\":9712:9829   */\n      iszero\n      tag_346\n      jumpi\n        /* \"#utility.yul\":9748:9827   */\n      tag_347\n      tag_170\n      jump\t// in\n    tag_347:\n        /* \"#utility.yul\":9712:9829   */\n    tag_346:\n        /* \"#utility.yul\":9853:9916   */\n      tag_348\n        /* \"#utility.yul\":9908:9915   */\n      dup6\n        /* \"#utility.yul\":9899:9905   */\n      dup3\n        /* \"#utility.yul\":9888:9897   */\n      dup7\n        /* \"#utility.yul\":9884:9906   */\n      add\n        /* \"#utility.yul\":9853:9916   */\n      tag_183\n      jump\t// in\n    tag_348:\n        /* \"#utility.yul\":9843:9916   */\n      swap2\n      pop\n        /* \"#utility.yul\":9638:9926   */\n      pop\n        /* \"#utility.yul\":9099:9933   */\n      swap3\n      pop\n      swap3\n      swap1\n      pop\n      jump\t// out\n        /* \"#utility.yul\":9939:10114   */\n    tag_198:\n        /* \"#utility.yul\":10079:10106   */\n      0x596f752061726520616c726561647920696e20612067616d6500000000000000\n        /* \"#utility.yul\":10075:10076   */\n      0x00\n        /* \"#utility.yul\":10067:10073   */\n      dup3\n        /* \"#utility.yul\":10063:10077   */\n      add\n        /* \"#utility.yul\":10056:10107   */\n      mstore\n        /* \"#utility.yul\":9939:10114   */\n      pop\n      jump\t// out\n        /* \"#utility.yul\":10120:10486   */\n    tag_199:\n        /* \"#utility.yul\":10262:10265   */\n      0x00\n        /* \"#utility.yul\":10283:10350   */\n      tag_351\n        /* \"#utility.yul\":10347:10349   */\n      0x19\n        /* \"#utility.yul\":10342:10345   */\n      dup4\n        /* \"#utility.yul\":10283:10350   */\n      tag_191\n      jump\t// in\n    tag_351:\n        /* \"#utility.yul\":10276:10350   */\n      swap2\n      pop\n        /* \"#utility.yul\":10359:10452   */\n      tag_352\n        /* \"#utility.yul\":10448:10451   */\n      dup3\n        /* \"#utility.yul\":10359:10452   */\n      tag_198\n      jump\t// in\n    tag_352:\n        /* \"#utility.yul\":10477:10479   */\n      0x20\n        /* \"#utility.yul\":10472:10475   */\n      dup3\n        /* \"#utility.yul\":10468:10480   */\n      add\n        /* \"#utility.yul\":10461:10480   */\n      swap1\n      pop\n        /* \"#utility.yul\":10120:10486   */\n      swap2\n      swap1\n      pop\n      jump\t// out\n        /* \"#utility.yul\":10492:10911   */\n    tag_43:\n        /* \"#utility.yul\":10658:10662   */\n      0x00\n        /* \"#utility.yul\":10696:10698   */\n      0x20\n        /* \"#utility.yul\":10685:10694   */\n      dup3\n        /* \"#utility.yul\":10681:10699   */\n      add\n        /* \"#utility.yul\":10673:10699   */\n      swap1\n      pop\n        /* \"#utility.yul\":10745:10754   */\n      dup2\n        /* \"#utility.yul\":10739:10743   */\n      dup2\n        /* \"#utility.yul\":10735:10755   */\n      sub\n        /* \"#utility.yul\":10731:10732   */\n      0x00\n        /* \"#utility.yul\":10720:10729   */\n      dup4\n        /* \"#utility.yul\":10716:10733   */\n      add\n        /* \"#utility.yul\":10709:10756   */\n      mstore\n        /* \"#utility.yul\":10773:10904   */\n      tag_354\n        /* \"#utility.yul\":10899:10903   */\n      dup2\n        /* \"#utility.yul\":10773:10904   */\n      tag_199\n      jump\t// in\n    tag_354:\n        /* \"#utility.yul\":10765:10904   */\n      swap1\n      pop\n        /* \"#utility.yul\":10492:10911   */\n      swap2\n      swap1\n      pop\n      jump\t// out\n        /* \"#utility.yul\":10917:11080   */\n    tag_200:\n        /* \"#utility.yul\":11057:11072   */\n      0x5374616b6520746f6f206c6f7700000000000000000000000000000000000000\n        /* \"#utility.yul\":11053:11054   */\n      0x00\n        /* \"#utility.yul\":11045:11051   */\n      dup3\n        /* \"#utility.yul\":11041:11055   */\n      add\n        /* \"#utility.yul\":11034:11073   */\n      mstore\n        /* \"#utility.yul\":10917:11080   */\n      pop\n      jump\t// out\n        /* \"#utility.yul\":11086:11452   */\n    tag_201:\n        /* \"#utility.yul\":11228:11231   */\n      0x00\n        /* \"#utility.yul\":11249:11316   */\n      tag_357\n        /* \"#utility.yul\":11313:11315   */\n      0x0d\n        /* \"#utility.yul\":11308:11311   */\n      dup4\n        /* \"#utility.yul\":11249:11316   */\n      tag_191\n      jump\t// in\n    tag_357:\n        /* \"#utility.yul\":11242:11316   */\n      swap2\n      pop\n        /* \"#utility.yul\":11325:11418   */\n      tag_358\n        /* \"#utility.yul\":11414:11417   */\n      dup3\n        /* \"#utility.yul\":11325:11418   */\n      tag_200\n      jump\t// in\n    tag_358:\n        /* \"#utility.yul\":11443:11445   */\n      0x20\n        /* \"#utility.yul\":11438:11441   */\n      dup3\n        /* \"#utility.yul\":11434:11446   */\n      add\n        /* \"#utility.yul\":11427:11446   */\n      swap1\n      pop\n        /* \"#utility.yul\":11086:11452   */\n      swap2\n      swap1\n      pop\n      jump\t// out\n        /* \"#utility.yul\":11458:11877   */\n    tag_46:\n        /* \"#utility.yul\":11624:11628   */\n      0x00\n        /* \"#utility.yul\":11662:11664   */\n      0x20\n        /* \"#utility.yul\":11651:11660   */\n      dup3\n        /* \"#utility.yul\":11647:11665   */\n      add\n        /* \"#utility.yul\":11639:11665   */\n      swap1\n      pop\n        /* \"#utility.yul\":11711:11720   */\n      dup2\n        /* \"#utility.yul\":11705:11709   */\n      dup2\n        /* \"#utility.yul\":11701:11721   */\n      sub\n        /* \"#utility.yul\":11697:11698   */\n      0x00\n        /* \"#utility.yul\":11686:11695   */\n      dup4\n        /* \"#utility.yul\":11682:11699   */\n      add\n        /* \"#utility.yul\":11675:11722   */\n      mstore\n        /* \"#utility.yul\":11739:11870   */\n      tag_360\n        /* \"#utility.yul\":11865:11869   */\n      dup2\n        /* \"#utility.yul\":11739:11870   */\n      tag_201\n      jump\t// in\n    tag_360:\n        /* \"#utility.yul\":11731:11870   */\n      swap1\n      pop\n        /* \"#utility.yul\":11458:11877   */\n      swap2\n      swap1\n      pop\n      jump\t// out\n        /* \"#utility.yul\":11883:12031   */\n    tag_202:\n        /* \"#utility.yul\":11985:11996   */\n      0x00\n        /* \"#utility.yul\":12022:12025   */\n      dup2\n        /* \"#utility.yul\":12007:12025   */\n      swap1\n      pop\n        /* \"#utility.yul\":11883:12031   */\n      swap3\n      swap2\n      pop\n      pop\n      jump\t// out\n        /* \"#utility.yul\":12037:12427   */\n    tag_203:\n        /* \"#utility.yul\":12143:12146   */\n      0x00\n        /* \"#utility.yul\":12171:12210   */\n      tag_363\n        /* \"#utility.yul\":12204:12209   */\n      dup3\n        /* \"#utility.yul\":12171:12210   */\n      tag_190\n      jump\t// in\n    tag_363:\n        /* \"#utility.yul\":12226:12315   */\n      tag_364\n        /* \"#utility.yul\":12308:12314   */\n      dup2\n        /* \"#utility.yul\":12303:12306   */\n      dup6\n        /* \"#utility.yul\":12226:12315   */\n      tag_202\n      jump\t// in\n    tag_364:\n        /* \"#utility.yul\":12219:12315   */\n      swap4\n      pop\n        /* \"#utility.yul\":12324:12389   */\n      tag_365\n        /* \"#utility.yul\":12382:12388   */\n      dup2\n        /* \"#utility.yul\":12377:12380   */\n      dup6\n        /* \"#utility.yul\":12370:12374   */\n      0x20\n        /* \"#utility.yul\":12363:12368   */\n      dup7\n        /* \"#utility.yul\":12359:12375   */\n      add\n        /* \"#utility.yul\":12324:12389   */\n      tag_192\n      jump\t// in\n    tag_365:\n        /* \"#utility.yul\":12414:12420   */\n      dup1\n        /* \"#utility.yul\":12409:12412   */\n      dup5\n        /* \"#utility.yul\":12405:12421   */\n      add\n        /* \"#utility.yul\":12398:12421   */\n      swap2\n      pop\n        /* \"#utility.yul\":12147:12427   */\n      pop\n        /* \"#utility.yul\":12037:12427   */\n      swap3\n      swap2\n      pop\n      pop\n      jump\t// out\n        /* \"#utility.yul\":12433:12708   */\n    tag_48:\n        /* \"#utility.yul\":12565:12568   */\n      0x00\n        /* \"#utility.yul\":12587:12682   */\n      tag_367\n        /* \"#utility.yul\":12678:12681   */\n      dup3\n        /* \"#utility.yul\":12669:12675   */\n      dup5\n        /* \"#utility.yul\":12587:12682   */\n      tag_203\n      jump\t// in\n    tag_367:\n        /* \"#utility.yul\":12580:12682   */\n      swap2\n      pop\n        /* \"#utility.yul\":12699:12702   */\n      dup2\n        /* \"#utility.yul\":12692:12702   */\n      swap1\n      pop\n        /* \"#utility.yul\":12433:12708   */\n      swap3\n      swap2\n      pop\n      pop\n      jump\t// out\n        /* \"#utility.yul\":12714:12894   */\n    tag_204:\n        /* \"#utility.yul\":12762:12839   */\n      0x4e487b7100000000000000000000000000000000000000000000000000000000\n        /* \"#utility.yul\":12759:12760   */\n      0x00\n        /* \"#utility.yul\":12752:12840   */\n      mstore\n        /* \"#utility.yul\":12859:12863   */\n      0x22\n        /* \"#utility.yul\":12856:12857   */\n      0x04\n        /* \"#utility.yul\":12849:12864   */\n      mstore\n        /* \"#utility.yul\":12883:12887   */\n      0x24\n        /* \"#utility.yul\":12880:12881   */\n      0x00\n        /* \"#utility.yul\":12873:12888   */\n      revert\n        /* \"#utility.yul\":12900:13220   */\n    tag_96:\n        /* \"#utility.yul\":12944:12950   */\n      0x00\n        /* \"#utility.yul\":12981:12982   */\n      0x02\n        /* \"#utility.yul\":12975:12979   */\n      dup3\n        /* \"#utility.yul\":12971:12983   */\n      div\n        /* \"#utility.yul\":12961:12983   */\n      swap1\n      pop\n        /* \"#utility.yul\":13028:13029   */\n      0x01\n        /* \"#utility.yul\":13022:13026   */\n      dup3\n        /* \"#utility.yul\":13018:13030   */\n      and\n        /* \"#utility.yul\":13049:13067   */\n      dup1\n        /* \"#utility.yul\":13039:13120   */\n      tag_370\n      jumpi\n        /* \"#utility.yul\":13105:13109   */\n      0x7f\n        /* \"#utility.yul\":13097:13103   */\n      dup3\n        /* \"#utility.yul\":13093:13110   */\n      and\n        /* \"#utility.yul\":13083:13110   */\n      swap2\n      pop\n        /* \"#utility.yul\":13039:13120   */\n    tag_370:\n        /* \"#utility.yul\":13167:13169   */\n      0x20\n        /* \"#utility.yul\":13159:13165   */\n      dup3\n        /* \"#utility.yul\":13156:13170   */\n      lt\n        /* \"#utility.yul\":13136:13154   */\n      dup2\n        /* \"#utility.yul\":13133:13171   */\n      sub\n        /* \"#utility.yul\":13130:13214   */\n      tag_371\n      jumpi\n        /* \"#utility.yul\":13186:13204   */\n      tag_372\n      tag_204\n      jump\t// in\n    tag_372:\n        /* \"#utility.yul\":13130:13214   */\n    tag_371:\n        /* \"#utility.yul\":12951:13220   */\n      pop\n        /* \"#utility.yul\":12900:13220   */\n      swap2\n      swap1\n      pop\n      jump\t// out\n        /* \"#utility.yul\":13226:13367   */\n    tag_205:\n        /* \"#utility.yul\":13275:13279   */\n      0x00\n        /* \"#utility.yul\":13298:13301   */\n      dup2\n        /* \"#utility.yul\":13290:13301   */\n      swap1\n      pop\n        /* \"#utility.yul\":13321:13324   */\n      dup2\n        /* \"#utility.yul\":13318:13319   */\n      0x00\n        /* \"#utility.yul\":13311:13325   */\n      mstore\n        /* \"#utility.yul\":13355:13359   */\n      0x20\n        /* \"#utility.yul\":13352:13353   */\n      0x00\n        /* \"#utility.yul\":13342:13360   */\n      keccak256\n        /* \"#utility.yul\":13334:13360   */\n      swap1\n      pop\n        /* \"#utility.yul\":13226:13367   */\n      swap2\n      swap1\n      pop\n      jump\t// out\n        /* \"#utility.yul\":13373:13466   */\n    tag_206:\n        /* \"#utility.yul\":13410:13416   */\n      0x00\n        /* \"#utility.yul\":13457:13459   */\n      0x20\n        /* \"#utility.yul\":13452:13454   */\n      0x1f\n        /* \"#utility.yul\":13445:13450   */\n      dup4\n        /* \"#utility.yul\":13441:13455   */\n      add\n        /* \"#utility.yul\":13437:13460   */\n      div\n        /* \"#utility.yul\":13427:13460   */\n      swap1\n      pop\n        /* \"#utility.yul\":13373:13466   */\n      swap2\n      swap1\n      pop\n      jump\t// out\n        /* \"#utility.yul\":13472:13579   */\n    tag_207:\n        /* \"#utility.yul\":13516:13524   */\n      0x00\n        /* \"#utility.yul\":13566:13571   */\n      dup3\n        /* \"#utility.yul\":13560:13564   */\n      dup3\n        /* \"#utility.yul\":13556:13572   */\n      shl\n        /* \"#utility.yul\":13535:13572   */\n      swap1\n      pop\n        /* \"#utility.yul\":13472:13579   */\n      swap3\n      swap2\n      pop\n      pop\n      jump\t// out\n        /* \"#utility.yul\":13585:13978   */\n    tag_208:\n        /* \"#utility.yul\":13654:13660   */\n      0x00\n        /* \"#utility.yul\":13704:13705   */\n      0x08\n        /* \"#utility.yul\":13692:13702   */\n      dup4\n        /* \"#utility.yul\":13688:13706   */\n      mul\n        /* \"#utility.yul\":13727:13824   */\n      tag_377\n        /* \"#utility.yul\":13757:13823   */\n      0xffffffffffffffffffffffffffffffffffffffffffffffffffffffffffffffff\n        /* \"#utility.yul\":13746:13755   */\n      dup3\n        /* \"#utility.yul\":13727:13824   */\n      tag_207\n      jump\t// in\n    tag_377:\n        /* \"#utility.yul\":13845:13884   */\n      tag_378\n        /* \"#utility.yul\":13875:13883   */\n      dup7\n        /* \"#utility.yul\":13864:13873   */\n      dup4\n        /* \"#utility.yul\":13845:13884   */\n      tag_207\n      jump\t// in\n    tag_378:\n        /* \"#utility.yul\":13833:13884   */\n      swap6\n      pop\n        /* \"#utility.yul\":13917:13921   */\n      dup1\n        /* \"#utility.yul\":13913:13922   */\n      not\n        /* \"#utility.yul\":13906:13911   */\n      dup5\n        /* \"#utility.yul\":13902:13923   */\n      and\n        /* \"#utility.yul\":13893:13923   */\n      swap4\n      pop\n        /* \"#utility.yul\":13966:13970   */\n      dup1\n        /* \"#utility.yul\":13956:13964   */\n      dup7\n        /* \"#utility.yul\":13952:13971   */\n      and\n        /* \"#utility.yul\":13945:13950   */\n      dup5\n        /* \"#utility.yul\":13942:13972   */\n      or\n        /* \"#utility.yul\":13932:13972   */\n      swap3\n      pop\n        /* \"#utility.yul\":13661:13978   */\n      pop\n      pop\n        /* \"#utility.yul\":13585:13978   */\n      swap4\n      swap3\n      pop\n      pop\n      pop\n      jump\t// out\n        /* \"#utility.yul\":13984:14044   */\n    tag_209:\n        /* \"#utility.yul\":14012:14015   */\n      0x00\n        /* \"#utility.yul\":14033:14038   */\n      dup2\n        /* \"#utility.yul\":14026:14038   */\n      swap1\n      pop\n        /* \"#utility.yul\":13984:14044   */\n      swap2\n      swap1\n      pop\n      jump\t// out\n        /* \"#utility.yul\":14050:14192   */\n    tag_210:\n        /* \"#utility.yul\":14100:14109   */\n      0x00\n        /* \"#utility.yul\":14133:14186   */\n      tag_381\n        /* \"#utility.yul\":14151:14185   */\n      tag_382\n        /* \"#utility.yul\":14160:14184   */\n      tag_383\n        /* \"#utility.yul\":14178:14183   */\n      dup5\n        /* \"#utility.yul\":14160:14184   */\n      tag_196\n      jump\t// in\n    tag_383:\n        /* \"#utility.yul\":14151:14185   */\n      tag_209\n      jump\t// in\n    tag_382:\n        /* \"#utility.yul\":14133:14186   */\n      tag_196\n      jump\t// in\n    tag_381:\n        /* \"#utility.yul\":14120:14186   */\n      swap1\n      pop\n        /* \"#utility.yul\":14050:14192   */\n      swap2\n      swap1\n      pop\n      jump\t// out\n        /* \"#utility.yul\":14198:14273   */\n    tag_211:\n        /* \"#utility.yul\":14241:14244   */\n      0x00\n        /* \"#utility.yul\":14262:14267   */\n      dup2\n        /* \"#utility.yul\":14255:14267   */\n      swap1\n      pop\n        /* \"#utility.yul\":14198:14273   */\n      swap2\n      swap1\n      pop\n      jump\t// out\n        /* \"#utility.yul\":14279:14548   */\n    tag_212:\n        /* \"#utility.yul\":14389:14428   */\n      tag_386\n        /* \"#utility.yul\":14420:14427   */\n      dup4\n        /* \"#utility.yul\":14389:14428   */\n      tag_210\n      jump\t// in\n    tag_386:\n        /* \"#utility.yul\":14450:14541   */\n      tag_387\n        /* \"#utility.yul\":14499:14540   */\n      tag_388\n        /* \"#utility.yul\":14523:14539   */\n      dup3\n        /* \"#utility.yul\":14499:14540   */\n      tag_211\n      jump\t// in\n    tag_388:\n        /* \"#utility.yul\":14491:14497   */\n      dup5\n        /* \"#utility.yul\":14484:14488   */\n      dup5\n        /* \"#utility.yul\":14478:14489   */\n      sload\n        /* \"#utility.yul\":14450:14541   */\n      tag_208\n      jump\t// in\n    tag_387:\n        /* \"#utility.yul\":14444:14448   */\n      dup3\n        /* \"#utility.yul\":14437:14542   */\n      sstore\n        /* \"#utility.yul\":14355:14548   */\n      pop\n        /* \"#utility.yul\":14279:14548   */\n      pop\n      pop\n      pop\n      jump\t// out\n        /* \"#utility.yul\":14554:14627   */\n    tag_213:\n        /* \"#utility.yul\":14599:14602   */\n      0x00\n        /* \"#utility.yul\":14554:14627   */\n      swap1\n      jump\t// out\n        /* \"#utility.yul\":14633:14822   */\n    tag_214:\n        /* \"#utility.yul\":14710:14742   */\n      tag_391\n      tag_213\n      jump\t// in\n    tag_391:\n        /* \"#utility.yul\":14751:14816   */\n      tag_392\n        /* \"#utility.yul\":14809:14815   */\n      dup2\n        /* \"#utility.yul\":14801:14807   */\n      dup5\n        /* \"#utility.yul\":14795:14799   */\n      dup5\n        /* \"#utility.yul\":14751:14816   */\n      tag_212\n      jump\t// in\n    tag_392:\n        /* \"#utility.yul\":14686:14822   */\n      pop\n        /* \"#utility.yul\":14633:14822   */\n      pop\n      pop\n      jump\t// out\n        /* \"#utility.yul\":14828:15014   */\n    tag_215:\n        /* \"#utility.yul\":14888:15008   */\n    tag_394:\n        /* \"#utility.yul\":14905:14908   */\n      dup2\n        /* \"#utility.yul\":14898:14903   */\n      dup2\n        /* \"#utility.yul\":14895:14909   */\n      lt\n        /* \"#utility.yul\":14888:15008   */\n      iszero\n      tag_396\n      jumpi\n        /* \"#utility.yul\":14959:14998   */\n      tag_397\n        /* \"#utility.yul\":14996:14997   */\n      0x00\n        /* \"#utility.yul\":14989:14994   */\n      dup3\n        /* \"#utility.yul\":14959:14998   */\n      tag_214\n      jump\t// in\n    tag_397:\n        /* \"#utility.yul\":14932:14933   */\n      0x01\n        /* \"#utility.yul\":14925:14930   */\n      dup2\n        /* \"#utility.yul\":14921:14934   */\n      add\n        /* \"#utility.yul\":14912:14934   */\n      swap1\n      pop\n        /* \"#utility.yul\":14888:15008   */\n      jump(tag_394)\n    tag_396:\n        /* \"#utility.yul\":14828:15014   */\n      pop\n      pop\n      jump\t// out\n        /* \"#utility.yul\":15020:15563   */\n    tag_216:\n        /* \"#utility.yul\":15121:15123   */\n      0x1f\n        /* \"#utility.yul\":15116:15119   */\n      dup3\n        /* \"#utility.yul\":15113:15124   */\n      gt\n        /* \"#utility.yul\":15110:15556   */\n      iszero\n      tag_399\n      jumpi\n        /* \"#utility.yul\":15155:15193   */\n      tag_400\n        /* \"#utility.yul\":15187:15192   */\n      dup2\n        /* \"#utility.yul\":15155:15193   */\n      tag_205\n      jump\t// in\n    tag_400:\n        /* \"#utility.yul\":15239:15268   */\n      tag_401\n        /* \"#utility.yul\":15257:15267   */\n      dup5\n        /* \"#utility.yul\":15239:15268   */\n      tag_206\n      jump\t// in\n    tag_401:\n        /* \"#utility.yul\":15229:15237   */\n      dup2\n        /* \"#utility.yul\":15225:15269   */\n      add\n        /* \"#utility.yul\":15422:15424   */\n      0x20\n        /* \"#utility.yul\":15410:15420   */\n      dup6\n        /* \"#utility.yul\":15407:15425   */\n      lt\n        /* \"#utility.yul\":15404:15453   */\n      iszero\n      tag_402\n      jumpi\n        /* \"#utility.yul\":15443:15451   */\n      dup2\n        /* \"#utility.yul\":15428:15451   */\n      swap1\n      pop\n        /* \"#utility.yul\":15404:15453   */\n    tag_402:\n        /* \"#utility.yul\":15466:15546   */\n      tag_403\n        /* \"#utility.yul\":15522:15544   */\n      tag_404\n        /* \"#utility.yul\":15540:15543   */\n      dup6\n        /* \"#utility.yul\":15522:15544   */\n      tag_206\n      jump\t// in\n    tag_404:\n        /* \"#utility.yul\":15512:15520   */\n      dup4\n        /* \"#utility.yul\":15508:15545   */\n      add\n        /* \"#utility.yul\":15495:15506   */\n      dup3\n        /* \"#utility.yul\":15466:15546   */\n      tag_215\n      jump\t// in\n    tag_403:\n        /* \"#utility.yul\":15125:15556   */\n      pop\n      pop\n        /* \"#utility.yul\":15110:15556   */\n    tag_399:\n        /* \"#utility.yul\":15020:15563   */\n      pop\n      pop\n      pop\n      jump\t// out\n        /* \"#utility.yul\":15569:15686   */\n    tag_217:\n        /* \"#utility.yul\":15623:15631   */\n      0x00\n        /* \"#utility.yul\":15673:15678   */\n      dup3\n        /* \"#utility.yul\":15667:15671   */\n      dup3\n        /* \"#utility.yul\":15663:15679   */\n      shr\n        /* \"#utility.yul\":15642:15679   */\n      swap1\n      pop\n        /* \"#utility.yul\":15569:15686   */\n      swap3\n      swap2\n      pop\n      pop\n      jump\t// out\n        /* \"#utility.yul\":15692:15861   */\n    tag_218:\n        /* \"#utility.yul\":15736:15742   */\n      0x00\n        /* \"#utility.yul\":15769:15820   */\n      tag_407\n        /* \"#utility.yul\":15817:15818   */\n      0x00\n        /* \"#utility.yul\":15813:15819   */\n      not\n        /* \"#utility.yul\":15805:15810   */\n      dup5\n        /* \"#utility.yul\":15802:15803   */\n      0x08\n        /* \"#utility.yul\":15798:15811   */\n      mul\n        /* \"#utility.yul\":15769:15820   */\n      tag_217\n      jump\t// in\n    tag_407:\n        /* \"#utility.yul\":15765:15821   */\n      not\n        /* \"#utility.yul\":15850:15854   */\n      dup1\n        /* \"#utility.yul\":15844:15848   */\n      dup4\n        /* \"#utility.yul\":15840:15855   */\n      and\n        /* \"#utility.yul\":15830:15855   */\n      swap2\n      pop\n        /* \"#utility.yul\":15743:15861   */\n      pop\n        /* \"#utility.yul\":15692:15861   */\n      swap3\n      swap2\n      pop\n      pop\n      jump\t// out\n        /* \"#utility.yul\":15866:16161   */\n    tag_219:\n        /* \"#utility.yul\":15942:15946   */\n      0x00\n        /* \"#utility.yul\":16088:16117   */\n      tag_409\n        /* \"#utility.yul\":16113:16116   */\n      dup4\n        /* \"#utility.yul\":16107:16111   */\n      dup4\n        /* \"#utility.yul\":16088:16117   */\n      tag_218\n      jump\t// in\n    tag_409:\n        /* \"#utility.yul\":16080:16117   */\n      swap2\n      pop\n        /* \"#utility.yul\":16150:16153   */\n      dup3\n        /* \"#utility.yul\":16147:16148   */\n      0x02\n        /* \"#utility.yul\":16143:16154   */\n      mul\n        /* \"#utility.yul\":16137:16141   */\n      dup3\n        /* \"#utility.yul\":16134:16155   */\n      or\n        /* \"#utility.yul\":16126:16155   */\n      swap1\n      pop\n        /* \"#utility.yul\":15866:16161   */\n      swap3\n      swap2\n      pop\n      pop\n      jump\t// out\n        /* \"#utility.yul\":16166:17561   */\n    tag_52:\n        /* \"#utility.yul\":16283:16320   */\n      tag_411\n        /* \"#utility.yul\":16316:16319   */\n      dup3\n        /* \"#utility.yul\":16283:16320   */\n      tag_190\n      jump\t// in\n    tag_411:\n        /* \"#utility.yul\":16385:16403   */\n      0xffffffffffffffff\n        /* \"#utility.yul\":16377:16383   */\n      dup2\n        /* \"#utility.yul\":16374:16404   */\n      gt\n        /* \"#utility.yul\":16371:16427   */\n      iszero\n      tag_412\n      jumpi\n        /* \"#utility.yul\":16407:16425   */\n      tag_413\n      tag_177\n      jump\t// in\n    tag_413:\n        /* \"#utility.yul\":16371:16427   */\n    tag_412:\n        /* \"#utility.yul\":16451:16489   */\n      tag_414\n        /* \"#utility.yul\":16483:16487   */\n      dup3\n        /* \"#utility.yul\":16477:16488   */\n      sload\n        /* \"#utility.yul\":16451:16489   */\n      tag_96\n      jump\t// in\n    tag_414:\n        /* \"#utility.yul\":16536:16603   */\n      tag_415\n        /* \"#utility.yul\":16596:16602   */\n      dup3\n        /* \"#utility.yul\":16588:16594   */\n      dup3\n        /* \"#utility.yul\":16582:16586   */\n      dup6\n        /* \"#utility.yul\":16536:16603   */\n      tag_216\n      jump\t// in\n    tag_415:\n        /* \"#utility.yul\":16630:16631   */\n      0x00\n        /* \"#utility.yul\":16654:16658   */\n      0x20\n        /* \"#utility.yul\":16641:16658   */\n      swap1\n      pop\n        /* \"#utility.yul\":16686:16688   */\n      0x1f\n        /* \"#utility.yul\":16678:16684   */\n      dup4\n        /* \"#utility.yul\":16675:16689   */\n      gt\n        /* \"#utility.yul\":16703:16704   */\n      0x01\n        /* \"#utility.yul\":16698:17316   */\n      dup2\n      eq\n      tag_417\n      jumpi\n        /* \"#utility.yul\":17360:17361   */\n      0x00\n        /* \"#utility.yul\":17377:17383   */\n      dup5\n        /* \"#utility.yul\":17374:17451   */\n      iszero\n      tag_418\n      jumpi\n        /* \"#utility.yul\":17426:17435   */\n      dup3\n        /* \"#utility.yul\":17421:17424   */\n      dup8\n        /* \"#utility.yul\":17417:17436   */\n      add\n        /* \"#utility.yul\":17411:17437   */\n      mload\n        /* \"#utility.yul\":17402:17437   */\n      swap1\n      pop\n        /* \"#utility.yul\":17374:17451   */\n    tag_418:\n        /* \"#utility.yul\":17477:17544   */\n      tag_419\n        /* \"#utility.yul\":17537:17543   */\n      dup6\n        /* \"#utility.yul\":17530:17535   */\n      dup3\n        /* \"#utility.yul\":17477:17544   */\n      tag_219\n      jump\t// in\n    tag_419:\n        /* \"#utility.yul\":17471:17475   */\n      dup7\n        /* \"#utility.yul\":17464:17545   */\n      sstore\n        /* \"#utility.yul\":17333:17555   */\n      pop\n        /* \"#utility.yul\":16668:17555   */\n      jump(tag_416)\n        /* \"#utility.yul\":16698:17316   */\n    tag_417:\n        /* \"#utility.yul\":16750:16754   */\n      0x1f\n        /* \"#utility.yul\":16746:16755   */\n      not\n        /* \"#utility.yul\":16738:16744   */\n      dup5\n        /* \"#utility.yul\":16734:16756   */\n      and\n        /* \"#utility.yul\":16784:16821   */\n      tag_420\n        /* \"#utility.yul\":16816:16820   */\n      dup7\n        /* \"#utility.yul\":16784:16821   */\n      tag_205\n      jump\t// in\n    tag_420:\n        /* \"#utility.yul\":16843:16844   */\n      0x00\n        /* \"#utility.yul\":16857:17065   */\n    tag_421:\n        /* \"#utility.yul\":16871:16878   */\n      dup3\n        /* \"#utility.yul\":16868:16869   */\n      dup2\n        /* \"#utility.yul\":16865:16879   */\n      lt\n        /* \"#utility.yul\":16857:17065   */\n      iszero\n      tag_423\n      jumpi\n        /* \"#utility.yul\":16950:16959   */\n      dup5\n        /* \"#utility.yul\":16945:16948   */\n      dup10\n        /* \"#utility.yul\":16941:16960   */\n      add\n        /* \"#utility.yul\":16935:16961   */\n      mload\n        /* \"#utility.yul\":16927:16933   */\n      dup3\n        /* \"#utility.yul\":16920:16962   */\n      sstore\n        /* \"#utility.yul\":17001:17002   */\n      0x01\n        /* \"#utility.yul\":16993:16999   */\n      dup3\n        /* \"#utility.yul\":16989:17003   */\n      add\n        /* \"#utility.yul\":16979:17003   */\n      swap2\n      pop\n        /* \"#utility.yul\":17048:17050   */\n      0x20\n        /* \"#utility.yul\":17037:17046   */\n      dup6\n        /* \"#utility.yul\":17033:17051   */\n      add\n        /* \"#utility.yul\":17020:17051   */\n      swap5\n      pop\n        /* \"#utility.yul\":16894:16898   */\n      0x20\n        /* \"#utility.yul\":16891:16892   */\n      dup2\n        /* \"#utility.yul\":16887:16899   */\n      add\n        /* \"#utility.yul\":16882:16899   */\n      swap1\n      pop\n        /* \"#utility.yul\":16857:17065   */\n      jump(tag_421)\n    tag_423:\n        /* \"#utility.yul\":17093:17099   */\n      dup7\n        /* \"#utility.yul\":17084:17091   */\n      dup4\n        /* \"#utility.yul\":17081:17100   */\n      lt\n        /* \"#utility.yul\":17078:17257   */\n      iszero\n      tag_424\n      jumpi\n        /* \"#utility.yul\":17151:17160   */\n      dup5\n        /* \"#utility.yul\":17146:17149   */\n      dup10\n        /* \"#utility.yul\":17142:17161   */\n      add\n        /* \"#utility.yul\":17136:17162   */\n      mload\n        /* \"#utility.yul\":17194:17242   */\n      tag_425\n        /* \"#utility.yul\":17236:17240   */\n      0x1f\n        /* \"#utility.yul\":17228:17234   */\n      dup10\n        /* \"#utility.yul\":17224:17241   */\n      and\n        /* \"#utility.yul\":17213:17222   */\n      dup3\n        /* \"#utility.yul\":17194:17242   */\n      tag_218\n      jump\t// in\n    tag_425:\n        /* \"#utility.yul\":17186:17192   */\n      dup4\n        /* \"#utility.yul\":17179:17243   */\n      sstore\n        /* \"#utility.yul\":17101:17257   */\n      pop\n        /* \"#utility.yul\":17078:17257   */\n    tag_424:\n        /* \"#utility.yul\":17303:17304   */\n      0x01\n        /* \"#utility.yul\":17299:17300   */\n      0x02\n        /* \"#utility.yul\":17291:17297   */\n      dup9\n        /* \"#utility.yul\":17287:17301   */\n      mul\n        /* \"#utility.yul\":17283:17305   */\n      add\n        /* \"#utility.yul\":17277:17281   */\n      dup9\n        /* \"#utility.yul\":17270:17306   */\n      sstore\n        /* \"#utility.yul\":16705:17316   */\n      pop\n      pop\n      pop\n        /* \"#utility.yul\":16668:17555   */\n    tag_416:\n      pop\n        /* \"#utility.yul\":16258:17561   */\n      pop\n      pop\n      pop\n        /* \"#utility.yul\":16166:17561   */\n      pop\n      pop\n      jump\t// out\n        /* \"#utility.yul\":17567:17728   */\n    tag_220:\n        /* \"#utility.yul\":17707:17720   */\n      0x57726f6e67207374616b65000000000000000000000000000000000000000000\n        /* \"#utility.yul\":17703:17704   */\n      0x00\n        /* \"#utility.yul\":17695:17701   */\n      dup3\n        /* \"#utility.yul\":17691:17705   */\n      add\n        /* \"#utility.yul\":17684:17721   */\n      mstore\n        /* \"#utility.yul\":17567:17728   */\n      pop\n      jump\t// out\n        /* \"#utility.yul\":17734:18100   */\n    tag_221:\n        /* \"#utility.yul\":17876:17879   */\n      0x00\n        /* \"#utility.yul\":17897:17964   */\n      tag_428\n        /* \"#utility.yul\":17961:17963   */\n      0x0b\n        /* \"#utility.yul\":17956:17959   */\n      dup4\n        /* \"#utility.yul\":17897:17964   */\n      tag_191\n      jump\t// in\n    tag_428:\n        /* \"#utility.yul\":17890:17964   */\n      swap2\n      pop\n        /* \"#utility.yul\":17973:18066   */\n      tag_429\n        /* \"#utility.yul\":18062:18065   */\n      dup3\n        /* \"#utility.yul\":17973:18066   */\n      tag_220\n      jump\t// in\n    tag_429:\n        /* \"#utility.yul\":18091:18093   */\n      0x20\n        /* \"#utility.yul\":18086:18089   */\n      dup3\n        /* \"#utility.yul\":18082:18094   */\n      add\n        /* \"#utility.yul\":18075:18094   */\n      swap1\n      pop\n        /* \"#utility.yul\":17734:18100   */\n      swap2\n      swap1\n      pop\n      jump\t// out\n        /* \"#utility.yul\":18106:18525   */\n    tag_57:\n        /* \"#utility.yul\":18272:18276   */\n      0x00\n        /* \"#utility.yul\":18310:18312   */\n      0x20\n        /* \"#utility.yul\":18299:18308   */\n      dup3\n        /* \"#utility.yul\":18295:18313   */\n      add\n        /* \"#utility.yul\":18287:18313   */\n      swap1\n      pop\n        /* \"#utility.yul\":18359:18368   */\n      dup2\n        /* \"#utility.yul\":18353:18357   */\n      dup2\n        /* \"#utility.yul\":18349:18369   */\n      sub\n        /* \"#utility.yul\":18345:18346   */\n      0x00\n        /* \"#utility.yul\":18334:18343   */\n      dup4\n        /* \"#utility.yul\":18330:18347   */\n      add\n        /* \"#utility.yul\":18323:18370   */\n      mstore\n        /* \"#utility.yul\":18387:18518   */\n      tag_431\n        /* \"#utility.yul\":18513:18517   */\n      dup2\n        /* \"#utility.yul\":18387:18518   */\n      tag_221\n      jump\t// in\n    tag_431:\n        /* \"#utility.yul\":18379:18518   */\n      swap1\n      pop\n        /* \"#utility.yul\":18106:18525   */\n      swap2\n      swap1\n      pop\n      jump\t// out\n        /* \"#utility.yul\":18531:18690   */\n    tag_222:\n        /* \"#utility.yul\":18671:18682   */\n      0x47616d652066756c6c0000000000000000000000000000000000000000000000\n        /* \"#utility.yul\":18667:18668   */\n      0x00\n        /* \"#utility.yul\":18659:18665   */\n      dup3\n        /* \"#utility.yul\":18655:18669   */\n      add\n        /* \"#utility.yul\":18648:18683   */\n      mstore\n        /* \"#utility.yul\":18531:18690   */\n      pop\n      jump\t// out\n        /* \"#utility.yul\":18696:19061   */\n    tag_223:\n        /* \"#utility.yul\":18838:18841   */\n      0x00\n        /* \"#utility.yul\":18859:18925   */\n      tag_434\n        /* \"#utility.yul\":18923:18924   */\n      0x09\n        /* \"#utility.yul\":18918:18921   */\n      dup4\n        /* \"#utility.yul\":18859:18925   */\n      tag_191\n      jump\t// in\n    tag_434:\n        /* \"#utility.yul\":18852:18925   */\n      swap2\n      pop\n        /* \"#utility.yul\":18934:19027   */\n      tag_435\n        /* \"#utility.yul\":19023:19026   */\n      dup3\n        /* \"#utility.yul\":18934:19027   */\n      tag_222\n      jump\t// in\n    tag_435:\n        /* \"#utility.yul\":19052:19054   */\n      0x20\n        /* \"#utility.yul\":19047:19050   */\n      dup3\n        /* \"#utility.yul\":19043:19055   */\n      add\n        /* \"#utility.yul\":19036:19055   */\n      swap1\n      pop\n        /* \"#utility.yul\":18696:19061   */\n      swap2\n      swap1\n      pop\n      jump\t// out\n        /* \"#utility.yul\":19067:19486   */\n    tag_60:\n        /* \"#utility.yul\":19233:19237   */\n      0x00\n        /* \"#utility.yul\":19271:19273   */\n      0x20\n        /* \"#utility.yul\":19260:19269   */\n      dup3\n        /* \"#utility.yul\":19256:19274   */\n      add\n        /* \"#utility.yul\":19248:19274   */\n      swap1\n      pop\n        /* \"#utility.yul\":19320:19329   */\n      dup2\n        /* \"#utility.yul\":19314:19318   */\n      dup2\n        /* \"#utility.yul\":19310:19330   */\n      sub\n        /* \"#utility.yul\":19306:19307   */\n      0x00\n        /* \"#utility.yul\":19295:19304   */\n      dup4\n        /* \"#utility.yul\":19291:19308   */\n      add\n        /* \"#utility.yul\":19284:19331   */\n      mstore\n        /* \"#utility.yul\":19348:19479   */\n      tag_437\n        /* \"#utility.yul\":19474:19478   */\n      dup2\n        /* \"#utility.yul\":19348:19479   */\n      tag_223\n      jump\t// in\n    tag_437:\n        /* \"#utility.yul\":19340:19479   */\n      swap1\n      pop\n        /* \"#utility.yul\":19067:19486   */\n      swap2\n      swap1\n      pop\n      jump\t// out\n        /* \"#utility.yul\":19492:19824   */\n    tag_62:\n        /* \"#utility.yul\":19613:19617   */\n      0x00\n        /* \"#utility.yul\":19651:19653   */\n      0x40\n        /* \"#utility.yul\":19640:19649   */\n      dup3\n        /* \"#utility.yul\":19636:19654   */\n      add\n        /* \"#utility.yul\":19628:19654   */\n      swap1\n      pop\n        /* \"#utility.yul\":19664:19735   */\n      tag_439\n        /* \"#utility.yul\":19732:19733   */\n      0x00\n        /* \"#utility.yul\":19721:19730   */\n      dup4\n        /* \"#utility.yul\":19717:19734   */\n      add\n        /* \"#utility.yul\":19708:19714   */\n      dup6\n        /* \"#utility.yul\":19664:19735   */\n      tag_194\n      jump\t// in\n    tag_439:\n        /* \"#utility.yul\":19745:19817   */\n      tag_440\n        /* \"#utility.yul\":19813:19815   */\n      0x20\n        /* \"#utility.yul\":19802:19811   */\n      dup4\n        /* \"#utility.yul\":19798:19816   */\n      add\n        /* \"#utility.yul\":19789:19795   */\n      dup5\n        /* \"#utility.yul\":19745:19817   */\n      tag_195\n      jump\t// in\n    tag_440:\n        /* \"#utility.yul\":19492:19824   */\n      swap4\n      swap3\n      pop\n      pop\n      pop\n      jump\t// out\n        /* \"#utility.yul\":19830:20010   */\n    tag_224:\n        /* \"#utility.yul\":19878:19955   */\n      0x4e487b7100000000000000000000000000000000000000000000000000000000\n        /* \"#utility.yul\":19875:19876   */\n      0x00\n        /* \"#utility.yul\":19868:19956   */\n      mstore\n        /* \"#utility.yul\":19975:19979   */\n      0x11\n        /* \"#utility.yul\":19972:19973   */\n      0x04\n        /* \"#utility.yul\":19965:19980   */\n      mstore\n        /* \"#utility.yul\":19999:20003   */\n      0x24\n        /* \"#utility.yul\":19996:19997   */\n      0x00\n        /* \"#utility.yul\":19989:20004   */\n      revert\n        /* \"#utility.yul\":20016:20207   */\n    tag_66:\n        /* \"#utility.yul\":20056:20059   */\n      0x00\n        /* \"#utility.yul\":20075:20095   */\n      tag_443\n        /* \"#utility.yul\":20093:20094   */\n      dup3\n        /* \"#utility.yul\":20075:20095   */\n      tag_196\n      jump\t// in\n    tag_443:\n        /* \"#utility.yul\":20070:20095   */\n      swap2\n      pop\n        /* \"#utility.yul\":20109:20129   */\n      tag_444\n        /* \"#utility.yul\":20127:20128   */\n      dup4\n        /* \"#utility.yul\":20109:20129   */\n      tag_196\n      jump\t// in\n    tag_444:\n        /* \"#utility.yul\":20104:20129   */\n      swap3\n      pop\n        /* \"#utility.yul\":20152:20153   */\n      dup3\n        /* \"#utility.yul\":20149:20150   */\n      dup3\n        /* \"#utility.yul\":20145:20154   */\n      add\n        /* \"#utility.yul\":20138:20154   */\n      swap1\n      pop\n        /* \"#utility.yul\":20173:20176   */\n      dup1\n        /* \"#utility.yul\":20170:20171   */\n      dup3\n        /* \"#utility.yul\":20167:20177   */\n      gt\n        /* \"#utility.yul\":20164:20200   */\n      iszero\n      tag_445\n      jumpi\n        /* \"#utility.yul\":20180:20198   */\n      tag_446\n      tag_224\n      jump\t// in\n    tag_446:\n        /* \"#utility.yul\":20164:20200   */\n    tag_445:\n        /* \"#utility.yul\":20016:20207   */\n      swap3\n      swap2\n      pop\n      pop\n      jump\t// out\n        /* \"#utility.yul\":20213:20623   */\n    tag_76:\n        /* \"#utility.yul\":20253:20260   */\n      0x00\n        /* \"#utility.yul\":20276:20296   */\n      tag_448\n        /* \"#utility.yul\":20294:20295   */\n      dup3\n        /* \"#utility.yul\":20276:20296   */\n      tag_196\n      jump\t// in\n    tag_448:\n        /* \"#utility.yul\":20271:20296   */\n      swap2\n      pop\n        /* \"#utility.yul\":20310:20330   */\n      tag_449\n        /* \"#utility.yul\":20328:20329   */\n      dup4\n        /* \"#utility.yul\":20310:20330   */\n      tag_196\n      jump\t// in\n    tag_449:\n        /* \"#utility.yul\":20305:20330   */\n      swap3\n      pop\n        /* \"#utility.yul\":20365:20366   */\n      dup3\n        /* \"#utility.yul\":20362:20363   */\n      dup3\n        /* \"#utility.yul\":20358:20367   */\n      mul\n        /* \"#utility.yul\":20387:20417   */\n      tag_450\n        /* \"#utility.yul\":20405:20416   */\n      dup2\n        /* \"#utility.yul\":20387:20417   */\n      tag_196\n      jump\t// in\n    tag_450:\n        /* \"#utility.yul\":20376:20417   */\n      swap2\n      pop\n        /* \"#utility.yul\":20566:20567   */\n      dup3\n        /* \"#utility.yul\":20557:20564   */\n      dup3\n        /* \"#utility.yul\":20553:20568   */\n      div\n        /* \"#utility.yul\":20550:20551   */\n      dup5\n        /* \"#utility.yul\":20547:20569   */\n      eq\n        /* \"#utility.yul\":20527:20528   */\n      dup4\n        /* \"#utility.yul\":20520:20529   */\n      iszero\n        /* \"#utility.yul\":20500:20583   */\n      or\n        /* \"#utility.yul\":20477:20616   */\n      tag_451\n      jumpi\n        /* \"#utility.yul\":20596:20614   */\n      tag_452\n      tag_224\n      jump\t// in\n    tag_452:\n        /* \"#utility.yul\":20477:20616   */\n    tag_451:\n        /* \"#utility.yul\":20261:20623   */\n      pop\n        /* \"#utility.yul\":20213:20623   */\n      swap3\n      swap2\n      pop\n      pop\n      jump\t// out\n        /* \"#utility.yul\":20629:20811   */\n    tag_225:\n        /* \"#utility.yul\":20769:20803   */\n      0x596f7520646964206e6f742077696e20746861742067616d6520287965742921\n        /* \"#utility.yul\":20765:20766   */\n      0x00\n        /* \"#utility.yul\":20757:20763   */\n      dup3\n        /* \"#utility.yul\":20753:20767   */\n      add\n        /* \"#utility.yul\":20746:20804   */\n      mstore\n        /* \"#utility.yul\":20629:20811   */\n      pop\n      jump\t// out\n        /* \"#utility.yul\":20817:21183   */\n    tag_226:\n        /* \"#utility.yul\":20959:20962   */\n      0x00\n        /* \"#utility.yul\":20980:21047   */\n      tag_455\n        /* \"#utility.yul\":21044:21046   */\n      0x20\n        /* \"#utility.yul\":21039:21042   */\n      dup4\n        /* \"#utility.yul\":20980:21047   */\n      tag_191\n      jump\t// in\n    tag_455:\n        /* \"#utility.yul\":20973:21047   */\n      swap2\n      pop\n        /* \"#utility.yul\":21056:21149   */\n      tag_456\n        /* \"#utility.yul\":21145:21148   */\n      dup3\n        /* \"#utility.yul\":21056:21149   */\n      tag_225\n      jump\t// in\n    tag_456:\n        /* \"#utility.yul\":21174:21176   */\n      0x20\n        /* \"#utility.yul\":21169:21172   */\n      dup3\n        /* \"#utility.yul\":21165:21177   */\n      add\n        /* \"#utility.yul\":21158:21177   */\n      swap1\n      pop\n        /* \"#utility.yul\":20817:21183   */\n      swap2\n      swap1\n      pop\n      jump\t// out\n        /* \"#utility.yul\":21189:21608   */\n    tag_86:\n        /* \"#utility.yul\":21355:21359   */\n      0x00\n        /* \"#utility.yul\":21393:21395   */\n      0x20\n        /* \"#utility.yul\":21382:21391   */\n      dup3\n        /* \"#utility.yul\":21378:21396   */\n      add\n        /* \"#utility.yul\":21370:21396   */\n      swap1\n      pop\n        /* \"#utility.yul\":21442:21451   */\n      dup2\n        /* \"#utility.yul\":21436:21440   */\n      dup2\n        /* \"#utility.yul\":21432:21452   */\n      sub\n        /* \"#utility.yul\":21428:21429   */\n      0x00\n        /* \"#utility.yul\":21417:21426   */\n      dup4\n        /* \"#utility.yul\":21413:21430   */\n      add\n        /* \"#utility.yul\":21406:21453   */\n      mstore\n        /* \"#utility.yul\":21470:21601   */\n      tag_458\n        /* \"#utility.yul\":21596:21600   */\n      dup2\n        /* \"#utility.yul\":21470:21601   */\n      tag_226\n      jump\t// in\n    tag_458:\n        /* \"#utility.yul\":21462:21601   */\n      swap1\n      pop\n        /* \"#utility.yul\":21189:21608   */\n      swap2\n      swap1\n      pop\n      jump\t// out\n        /* \"#utility.yul\":21614:22049   */\n    tag_103:\n        /* \"#utility.yul\":21794:21797   */\n      0x00\n        /* \"#utility.yul\":21816:21911   */\n      tag_460\n        /* \"#utility.yul\":21907:21910   */\n      dup3\n        /* \"#utility.yul\":21898:21904   */\n      dup6\n        /* \"#utility.yul\":21816:21911   */\n      tag_203\n      jump\t// in\n    tag_460:\n        /* \"#utility.yul\":21809:21911   */\n      swap2\n      pop\n        /* \"#utility.yul\":21928:22023   */\n      tag_461\n        /* \"#utility.yul\":22019:22022   */\n      dup3\n        /* \"#utility.yul\":22010:22016   */\n      dup5\n        /* \"#utility.yul\":21928:22023   */\n      tag_203\n      jump\t// in\n    tag_461:\n        /* \"#utility.yul\":21921:22023   */\n      swap2\n      pop\n        /* \"#utility.yul\":22040:22043   */\n      dup2\n        /* \"#utility.yul\":22033:22043   */\n      swap1\n      pop\n        /* \"#utility.yul\":21614:22049   */\n      swap4\n      swap3\n      pop\n      pop\n      pop\n      jump\t// out\n        /* \"#utility.yul\":22055:22229   */\n    tag_227:\n        /* \"#utility.yul\":22195:22221   */\n      0x506c617965722032206e6f74206a6f696e6564207965742e0000000000000000\n        /* \"#utility.yul\":22191:22192   */\n      0x00\n        /* \"#utility.yul\":22183:22189   */\n      dup3\n        /* \"#utility.yul\":22179:22193   */\n      add\n        /* \"#utility.yul\":22172:22222   */\n      mstore\n        /* \"#utility.yul\":22055:22229   */\n      pop\n      jump\t// out\n        /* \"#utility.yul\":22235:22601   */\n    tag_228:\n        /* \"#utility.yul\":22377:22380   */\n      0x00\n        /* \"#utility.yul\":22398:22465   */\n      tag_464\n        /* \"#utility.yul\":22462:22464   */\n      0x18\n        /* \"#utility.yul\":22457:22460   */\n      dup4\n        /* \"#utility.yul\":22398:22465   */\n      tag_191\n      jump\t// in\n    tag_464:\n        /* \"#utility.yul\":22391:22465   */\n      swap2\n      pop\n        /* \"#utility.yul\":22474:22567   */\n      tag_465\n        /* \"#utility.yul\":22563:22566   */\n      dup3\n        /* \"#utility.yul\":22474:22567   */\n      tag_227\n      jump\t// in\n    tag_465:\n        /* \"#utility.yul\":22592:22594   */\n      0x20\n        /* \"#utility.yul\":22587:22590   */\n      dup3\n        /* \"#utility.yul\":22583:22595   */\n      add\n        /* \"#utility.yul\":22576:22595   */\n      swap1\n      pop\n        /* \"#utility.yul\":22235:22601   */\n      swap2\n      swap1\n      pop\n      jump\t// out\n        /* \"#utility.yul\":22607:23026   */\n    tag_107:\n        /* \"#utility.yul\":22773:22777   */\n      0x00\n        /* \"#utility.yul\":22811:22813   */\n      0x20\n        /* \"#utility.yul\":22800:22809   */\n      dup3\n        /* \"#utility.yul\":22796:22814   */\n      add\n        /* \"#utility.yul\":22788:22814   */\n      swap1\n      pop\n        /* \"#utility.yul\":22860:22869   */\n      dup2\n        /* \"#utility.yul\":22854:22858   */\n      dup2\n        /* \"#utility.yul\":22850:22870   */\n      sub\n        /* \"#utility.yul\":22846:22847   */\n      0x00\n        /* \"#utility.yul\":22835:22844   */\n      dup4\n        /* \"#utility.yul\":22831:22848   */\n      add\n        /* \"#utility.yul\":22824:22871   */\n      mstore\n        /* \"#utility.yul\":22888:23019   */\n      tag_467\n        /* \"#utility.yul\":23014:23018   */\n      dup2\n        /* \"#utility.yul\":22888:23019   */\n      tag_228\n      jump\t// in\n    tag_467:\n        /* \"#utility.yul\":22880:23019   */\n      swap1\n      pop\n        /* \"#utility.yul\":22607:23026   */\n      swap2\n      swap1\n      pop\n      jump\t// out\n        /* \"#utility.yul\":23032:23214   */\n    tag_229:\n        /* \"#utility.yul\":23172:23206   */\n      0x596f7520617265206e6f7420612070617274206f6620746869732067616d652e\n        /* \"#utility.yul\":23168:23169   */\n      0x00\n        /* \"#utility.yul\":23160:23166   */\n      dup3\n        /* \"#utility.yul\":23156:23170   */\n      add\n        /* \"#utility.yul\":23149:23207   */\n      mstore\n        /* \"#utility.yul\":23032:23214   */\n      pop\n      jump\t// out\n        /* \"#utility.yul\":23220:23586   */\n    tag_230:\n        /* \"#utility.yul\":23362:23365   */\n      0x00\n        /* \"#utility.yul\":23383:23450   */\n      tag_470\n        /* \"#utility.yul\":23447:23449   */\n      0x20\n        /* \"#utility.yul\":23442:23445   */\n      dup4\n        /* \"#utility.yul\":23383:23450   */\n      tag_191\n      jump\t// in\n    tag_470:\n        /* \"#utility.yul\":23376:23450   */\n      swap2\n      pop\n        /* \"#utility.yul\":23459:23552   */\n      tag_471\n        /* \"#utility.yul\":23548:23551   */\n      dup3\n        /* \"#utility.yul\":23459:23552   */\n      tag_229\n      jump\t// in\n    tag_471:\n        /* \"#utility.yul\":23577:23579   */\n      0x20\n        /* \"#utility.yul\":23572:23575   */\n      dup3\n        /* \"#utility.yul\":23568:23580   */\n      add\n        /* \"#utility.yul\":23561:23580   */\n      swap1\n      pop\n        /* \"#utility.yul\":23220:23586   */\n      swap2\n      swap1\n      pop\n      jump\t// out\n        /* \"#utility.yul\":23592:24011   */\n    tag_113:\n        /* \"#utility.yul\":23758:23762   */\n      0x00\n        /* \"#utility.yul\":23796:23798   */\n      0x20\n        /* \"#utility.yul\":23785:23794   */\n      dup3\n        /* \"#utility.yul\":23781:23799   */\n      add\n        /* \"#utility.yul\":23773:23799   */\n      swap1\n      pop\n        /* \"#utility.yul\":23845:23854   */\n      dup2\n        /* \"#utility.yul\":23839:23843   */\n      dup2\n        /* \"#utility.yul\":23835:23855   */\n      sub\n        /* \"#utility.yul\":23831:23832   */\n      0x00\n        /* \"#utility.yul\":23820:23829   */\n      dup4\n        /* \"#utility.yul\":23816:23833   */\n      add\n        /* \"#utility.yul\":23809:23856   */\n      mstore\n        /* \"#utility.yul\":23873:24004   */\n      tag_473\n        /* \"#utility.yul\":23999:24003   */\n      dup2\n        /* \"#utility.yul\":23873:24004   */\n      tag_230\n      jump\t// in\n    tag_473:\n        /* \"#utility.yul\":23865:24004   */\n      swap1\n      pop\n        /* \"#utility.yul\":23592:24011   */\n      swap2\n      swap1\n      pop\n      jump\t// out\n        /* \"#utility.yul\":24017:24183   */\n    tag_231:\n        /* \"#utility.yul\":24157:24175   */\n      0x57726f6e6720766f74652f73616c742e00000000000000000000000000000000\n        /* \"#utility.yul\":24153:24154   */\n      0x00\n        /* \"#utility.yul\":24145:24151   */\n      dup3\n        /* \"#utility.yul\":24141:24155   */\n      add\n        /* \"#utility.yul\":24134:24176   */\n      mstore\n        /* \"#utility.yul\":24017:24183   */\n      pop\n      jump\t// out\n        /* \"#utility.yul\":24189:24555   */\n    tag_232:\n        /* \"#utility.yul\":24331:24334   */\n      0x00\n        /* \"#utility.yul\":24352:24419   */\n      tag_476\n        /* \"#utility.yul\":24416:24418   */\n      0x10\n        /* \"#utility.yul\":24411:24414   */\n      dup4\n        /* \"#utility.yul\":24352:24419   */\n      tag_191\n      jump\t// in\n    tag_476:\n        /* \"#utility.yul\":24345:24419   */\n      swap2\n      pop\n        /* \"#utility.yul\":24428:24521   */\n      tag_477\n        /* \"#utility.yul\":24517:24520   */\n      dup3\n        /* \"#utility.yul\":24428:24521   */\n      tag_231\n      jump\t// in\n    tag_477:\n        /* \"#utility.yul\":24546:24548   */\n      0x20\n        /* \"#utility.yul\":24541:24544   */\n      dup3\n        /* \"#utility.yul\":24537:24549   */\n      add\n        /* \"#utility.yul\":24530:24549   */\n      swap1\n      pop\n        /* \"#utility.yul\":24189:24555   */\n      swap2\n      swap1\n      pop\n      jump\t// out\n        /* \"#utility.yul\":24561:24980   */\n    tag_119:\n        /* \"#utility.yul\":24727:24731   */\n      0x00\n        /* \"#utility.yul\":24765:24767   */\n      0x20\n        /* \"#utility.yul\":24754:24763   */\n      dup3\n        /* \"#utility.yul\":24750:24768   */\n      add\n        /* \"#utility.yul\":24742:24768   */\n      swap1\n      pop\n        /* \"#utility.yul\":24814:24823   */\n      dup2\n        /* \"#utility.yul\":24808:24812   */\n      dup2\n        /* \"#utility.yul\":24804:24824   */\n      sub\n        /* \"#utility.yul\":24800:24801   */\n      0x00\n        /* \"#utility.yul\":24789:24798   */\n      dup4\n        /* \"#utility.yul\":24785:24802   */\n      add\n        /* \"#utility.yul\":24778:24825   */\n      mstore\n        /* \"#utility.yul\":24842:24973   */\n      tag_479\n        /* \"#utility.yul\":24968:24972   */\n      dup2\n        /* \"#utility.yul\":24842:24973   */\n      tag_232\n      jump\t// in\n    tag_479:\n        /* \"#utility.yul\":24834:24973   */\n      swap1\n      pop\n        /* \"#utility.yul\":24561:24980   */\n      swap2\n      swap1\n      pop\n      jump\t// out\n        /* \"#utility.yul\":24986:25166   */\n    tag_122:\n        /* \"#utility.yul\":25034:25111   */\n      0x4e487b7100000000000000000000000000000000000000000000000000000000\n        /* \"#utility.yul\":25031:25032   */\n      0x00\n        /* \"#utility.yul\":25024:25112   */\n      mstore\n        /* \"#utility.yul\":25131:25135   */\n      0x32\n        /* \"#utility.yul\":25128:25129   */\n      0x04\n        /* \"#utility.yul\":25121:25136   */\n      mstore\n        /* \"#utility.yul\":25155:25159   */\n      0x24\n        /* \"#utility.yul\":25152:25153   */\n      0x00\n        /* \"#utility.yul\":25145:25160   */\n      revert\n        /* \"#utility.yul\":25172:25366   */\n    tag_139:\n        /* \"#utility.yul\":25212:25216   */\n      0x00\n        /* \"#utility.yul\":25232:25252   */\n      tag_482\n        /* \"#utility.yul\":25250:25251   */\n      dup3\n        /* \"#utility.yul\":25232:25252   */\n      tag_196\n      jump\t// in\n    tag_482:\n        /* \"#utility.yul\":25227:25252   */\n      swap2\n      pop\n        /* \"#utility.yul\":25266:25286   */\n      tag_483\n        /* \"#utility.yul\":25284:25285   */\n      dup4\n        /* \"#utility.yul\":25266:25286   */\n      tag_196\n      jump\t// in\n    tag_483:\n        /* \"#utility.yul\":25261:25286   */\n      swap3\n      pop\n        /* \"#utility.yul\":25310:25311   */\n      dup3\n        /* \"#utility.yul\":25307:25308   */\n      dup3\n        /* \"#utility.yul\":25303:25312   */\n      sub\n        /* \"#utility.yul\":25295:25312   */\n      swap1\n      pop\n        /* \"#utility.yul\":25334:25335   */\n      dup2\n        /* \"#utility.yul\":25328:25332   */\n      dup2\n        /* \"#utility.yul\":25325:25336   */\n      gt\n        /* \"#utility.yul\":25322:25359   */\n      iszero\n      tag_484\n      jumpi\n        /* \"#utility.yul\":25339:25357   */\n      tag_485\n      tag_224\n      jump\t// in\n    tag_485:\n        /* \"#utility.yul\":25322:25359   */\n    tag_484:\n        /* \"#utility.yul\":25172:25366   */\n      swap3\n      swap2\n      pop\n      pop\n      jump\t// out\n        /* \"#utility.yul\":25372:25552   */\n    tag_233:\n        /* \"#utility.yul\":25420:25497   */\n      0x4e487b7100000000000000000000000000000000000000000000000000000000\n        /* \"#utility.yul\":25417:25418   */\n      0x00\n        /* \"#utility.yul\":25410:25498   */\n      mstore\n        /* \"#utility.yul\":25517:25521   */\n      0x12\n        /* \"#utility.yul\":25514:25515   */\n      0x04\n        /* \"#utility.yul\":25507:25522   */\n      mstore\n        /* \"#utility.yul\":25541:25545   */\n      0x24\n        /* \"#utility.yul\":25538:25539   */\n      0x00\n        /* \"#utility.yul\":25531:25546   */\n      revert\n        /* \"#utility.yul\":25558:25734   */\n    tag_141:\n        /* \"#utility.yul\":25590:25591   */\n      0x00\n        /* \"#utility.yul\":25607:25627   */\n      tag_488\n        /* \"#utility.yul\":25625:25626   */\n      dup3\n        /* \"#utility.yul\":25607:25627   */\n      tag_196\n      jump\t// in\n    tag_488:\n        /* \"#utility.yul\":25602:25627   */\n      swap2\n      pop\n        /* \"#utility.yul\":25641:25661   */\n      tag_489\n        /* \"#utility.yul\":25659:25660   */\n      dup4\n        /* \"#utility.yul\":25641:25661   */\n      tag_196\n      jump\t// in\n    tag_489:\n        /* \"#utility.yul\":25636:25661   */\n      swap3\n      pop\n        /* \"#utility.yul\":25680:25681   */\n      dup3\n        /* \"#utility.yul\":25670:25705   */\n      tag_490\n      jumpi\n        /* \"#utility.yul\":25685:25703   */\n      tag_491\n      tag_233\n      jump\t// in\n    tag_491:\n        /* \"#utility.yul\":25670:25705   */\n    tag_490:\n        /* \"#utility.yul\":25726:25727   */\n      dup3\n        /* \"#utility.yul\":25723:25724   */\n      dup3\n        /* \"#utility.yul\":25719:25728   */\n      mod\n        /* \"#utility.yul\":25714:25728   */\n      swap1\n      pop\n        /* \"#utility.yul\":25558:25734   */\n      swap3\n      swap2\n      pop\n      pop\n      jump\t// out\n        /* \"#utility.yul\":25740:26163   */\n    tag_163:\n        /* \"#utility.yul\":25881:25885   */\n      0x00\n        /* \"#utility.yul\":25919:25921   */\n      0x40\n        /* \"#utility.yul\":25908:25917   */\n      dup3\n        /* \"#utility.yul\":25904:25922   */\n      add\n        /* \"#utility.yul\":25896:25922   */\n      swap1\n      pop\n        /* \"#utility.yul\":25932:26003   */\n      tag_493\n        /* \"#utility.yul\":26000:26001   */\n      0x00\n        /* \"#utility.yul\":25989:25998   */\n      dup4\n        /* \"#utility.yul\":25985:26002   */\n      add\n        /* \"#utility.yul\":25976:25982   */\n      dup6\n        /* \"#utility.yul\":25932:26003   */\n      tag_194\n      jump\t// in\n    tag_493:\n        /* \"#utility.yul\":26050:26059   */\n      dup2\n        /* \"#utility.yul\":26044:26048   */\n      dup2\n        /* \"#utility.yul\":26040:26060   */\n      sub\n        /* \"#utility.yul\":26035:26037   */\n      0x20\n        /* \"#utility.yul\":26024:26033   */\n      dup4\n        /* \"#utility.yul\":26020:26038   */\n      add\n        /* \"#utility.yul\":26013:26061   */\n      mstore\n        /* \"#utility.yul\":26078:26156   */\n      tag_494\n        /* \"#utility.yul\":26151:26155   */\n      dup2\n        /* \"#utility.yul\":26142:26148   */\n      dup5\n        /* \"#utility.yul\":26078:26156   */\n      tag_193\n      jump\t// in\n    tag_494:\n        /* \"#utility.yul\":26070:26156   */\n      swap1\n      pop\n        /* \"#utility.yul\":25740:26163   */\n      swap4\n      swap3\n      pop\n      pop\n      pop\n      jump\t// out\n        /* \"#utility.yul\":26169:26332   */\n    tag_234:\n        /* \"#utility.yul\":26309:26324   */\n      0x736f6d657468696e676865726500000000000000000000000000000000000000\n        /* \"#utility.yul\":26305:26306   */\n      0x00\n        /* \"#utility.yul\":26297:26303   */\n      dup3\n        /* \"#utility.yul\":26293:26307   */\n      add\n        /* \"#utility.yul\":26286:26325   */\n      mstore\n        /* \"#utility.yul\":26169:26332   */\n      pop\n      jump\t// out\n        /* \"#utility.yul\":26338:26704   */\n    tag_235:\n        /* \"#utility.yul\":26480:26483   */\n      0x00\n        /* \"#utility.yul\":26501:26568   */\n      tag_497\n        /* \"#utility.yul\":26565:26567   */\n      0x0d\n        /* \"#utility.yul\":26560:26563   */\n      dup4\n        /* \"#utility.yul\":26501:26568   */\n      tag_191\n      jump\t// in\n    tag_497:\n        /* \"#utility.yul\":26494:26568   */\n      swap2\n      pop\n        /* \"#utility.yul\":26577:26670   */\n      tag_498\n        /* \"#utility.yul\":26666:26669   */\n      dup3\n        /* \"#utility.yul\":26577:26670   */\n      tag_234\n      jump\t// in\n    tag_498:\n        /* \"#utility.yul\":26695:26697   */\n      0x20\n        /* \"#utility.yul\":26690:26693   */\n      dup3\n        /* \"#utility.yul\":26686:26698   */\n      add\n        /* \"#utility.yul\":26679:26698   */\n      swap1\n      pop\n        /* \"#utility.yul\":26338:26704   */\n      swap2\n      swap1\n      pop\n      jump\t// out\n        /* \"#utility.yul\":26710:27239   */\n    tag_167:\n        /* \"#utility.yul\":26904:26908   */\n      0x00\n        /* \"#utility.yul\":26942:26944   */\n      0x40\n        /* \"#utility.yul\":26931:26940   */\n      dup3\n        /* \"#utility.yul\":26927:26945   */\n      add\n        /* \"#utility.yul\":26919:26945   */\n      swap1\n      pop\n        /* \"#utility.yul\":26955:27026   */\n      tag_500\n        /* \"#utility.yul\":27023:27024   */\n      0x00\n        /* \"#utility.yul\":27012:27021   */\n      dup4\n        /* \"#utility.yul\":27008:27025   */\n      add\n        /* \"#utility.yul\":26999:27005   */\n      dup5\n        /* \"#utility.yul\":26955:27026   */\n      tag_195\n      jump\t// in\n    tag_500:\n        /* \"#utility.yul\":27073:27082   */\n      dup2\n        /* \"#utility.yul\":27067:27071   */\n      dup2\n        /* \"#utility.yul\":27063:27083   */\n      sub\n        /* \"#utility.yul\":27058:27060   */\n      0x20\n        /* \"#utility.yul\":27047:27056   */\n      dup4\n        /* \"#utility.yul\":27043:27061   */\n      add\n        /* \"#utility.yul\":27036:27084   */\n      mstore\n        /* \"#utility.yul\":27101:27232   */\n      tag_501\n        /* \"#utility.yul\":27227:27231   */\n      dup2\n        /* \"#utility.yul\":27101:27232   */\n      tag_235\n      jump\t// in\n    tag_501:\n        /* \"#utility.yul\":27093:27232   */\n      swap1\n      pop\n        /* \"#utility.yul\":26710:27239   */\n      swap3\n      swap2\n      pop\n      pop\n      jump\t// out\n\n    auxdata: 0xa2646970667358221220232127d3b9bfe710be5f5bcee05d1fba218f962a5db29c890f0ad73f78e4e72c64736f6c634300081a0033\n}\n",
				"bytecode": {
					"linkReferences": {},
					"object": "6080604052600280553480156012575f80fd5b50612b00806100205f395ff3fe608060405260043610610054575f3560e01c806314582b771461005857806331fb67c21461007457806376e033c71461009c578063d5a86a43146100d8578063fb9a35911461011d578063fef3957214610145575b5f80fd5b610072600480360381019061006d9190611e7b565b61016d565b005b34801561007f575f80fd5b5061009a60048036038101906100959190611ed5565b6106a9565b005b3480156100a7575f80fd5b506100c260048036038101906100bd9190611f76565b611003565b6040516100cf9190611fbb565b60405180910390f35b3480156100e3575f80fd5b506100fe60048036038101906100f99190611ed5565b611020565b6040516101149a9998979695949392919061206a565b60405180910390f35b348015610128575f80fd5b50610143600480360381019061013e919061210b565b611189565b005b348015610150575f80fd5b5061016b600480360381019061016691906121af565b611c93565b005b60015f3373ffffffffffffffffffffffffffffffffffffffff1673ffffffffffffffffffffffffffffffffffffffff1681526020019081526020015f205f9054906101000a900460ff16156101f7576040517f08c379a00000000000000000000000000000000000000000000000000000000081526004016101ee9061226f565b60405180910390fd5b60025434101561023c576040517f08c379a0000000000000000000000000000000000000000000000000000000008152600401610233906122d7565b60405180910390fd5b5f73ffffffffffffffffffffffffffffffffffffffff165f82604051610262919061232f565b90815260200160405180910390206001015f9054906101000a900473ffffffffffffffffffffffffffffffffffffffff1673ffffffffffffffffffffffffffffffffffffffff16036104d4576040518061014001604052808281526020013373ffffffffffffffffffffffffffffffffffffffff1681526020015f73ffffffffffffffffffffffffffffffffffffffff1681526020018381526020015f801b8152602001606381526020015f73ffffffffffffffffffffffffffffffffffffffff1681526020015f73ffffffffffffffffffffffffffffffffffffffff168152602001348152602001428152505f8260405161035e919061232f565b90815260200160405180910390205f820151815f01908161037f919061253f565b506020820151816001015f6101000a81548173ffffffffffffffffffffffffffffffffffffffff021916908373ffffffffffffffffffffffffffffffffffffffff1602179055506040820151816002015f6101000a81548173ffffffffffffffffffffffffffffffffffffffff021916908373ffffffffffffffffffffffffffffffffffffffff160217905550606082015181600301556080820151816004015560a0820151816005015560c0820151816006015f6101000a81548173ffffffffffffffffffffffffffffffffffffffff021916908373ffffffffffffffffffffffffffffffffffffffff16021790555060e0820151816007015f6101000a81548173ffffffffffffffffffffffffffffffffffffffff021916908373ffffffffffffffffffffffffffffffffffffffff16021790555061010082015181600801556101208201518160090155905050610618565b5f80826040516104e4919061232f565b908152602001604051809103902090503481600801541461053a576040517f08c379a000000000000000000000000000000000000000000000000000000000815260040161053190612658565b60405180910390fd5b5f73ffffffffffffffffffffffffffffffffffffffff16816002015f9054906101000a900473ffffffffffffffffffffffffffffffffffffffff1673ffffffffffffffffffffffffffffffffffffffff16146105cb576040517f08c379a00000000000000000000000000000000000000000000000000000000081526004016105c2906126c0565b60405180910390fd5b33816002015f6101000a81548173ffffffffffffffffffffffffffffffffffffffff021916908373ffffffffffffffffffffffffffffffffffffffff160217905550828160040181905550505b6001805f3373ffffffffffffffffffffffffffffffffffffffff1673ffffffffffffffffffffffffffffffffffffffff1681526020019081526020015f205f6101000a81548160ff0219169083151502179055507fe810c81f17f47c45e4f5fed4c719d73de6fa94a77ad2745e3e6294801cf51ca4338360405161069d9291906126de565b60405180910390a15050565b4261012c5f836040516106bc919061232f565b9081526020016040518091039020600901546106d89190612732565b1015610b86575f73ffffffffffffffffffffffffffffffffffffffff165f82604051610704919061232f565b90815260200160405180910390206002015f9054906101000a900473ffffffffffffffffffffffffffffffffffffffff1673ffffffffffffffffffffffffffffffffffffffff16036107b9573373ffffffffffffffffffffffffffffffffffffffff166108fc5f83604051610779919061232f565b90815260200160405180910390206008015490811502906040515f60405180830381858888f193505050501580156107b3573d5f803e3d5ffd5b5061082a565b3373ffffffffffffffffffffffffffffffffffffffff166108fc60025f846040516107e4919061232f565b9081526020016040518091039020600801546108009190612765565b90811502906040515f60405180830381858888f19350505050158015610828573d5f803e3d5ffd5b505b60405180610140016040528060405180602001604052805f81525081526020015f73ffffffffffffffffffffffffffffffffffffffff1681526020015f73ffffffffffffffffffffffffffffffffffffffff1681526020015f801b81526020015f801b8152602001606381526020015f73ffffffffffffffffffffffffffffffffffffffff1681526020015f73ffffffffffffffffffffffffffffffffffffffff1681526020015f81526020015f8152505f826040516108ea919061232f565b90815260200160405180910390205f820151815f01908161090b919061253f565b506020820151816001015f6101000a81548173ffffffffffffffffffffffffffffffffffffffff021916908373ffffffffffffffffffffffffffffffffffffffff1602179055506040820151816002015f6101000a81548173ffffffffffffffffffffffffffffffffffffffff021916908373ffffffffffffffffffffffffffffffffffffffff160217905550606082015181600301556080820151816004015560a0820151816005015560c0820151816006015f6101000a81548173ffffffffffffffffffffffffffffffffffffffff021916908373ffffffffffffffffffffffffffffffffffffffff16021790555060e0820151816007015f6101000a81548173ffffffffffffffffffffffffffffffffffffffff021916908373ffffffffffffffffffffffffffffffffffffffff160217905550610100820151816008015561012082015181600901559050505f60015f8084604051610a6e919061232f565b90815260200160405180910390206001015f9054906101000a900473ffffffffffffffffffffffffffffffffffffffff1673ffffffffffffffffffffffffffffffffffffffff1673ffffffffffffffffffffffffffffffffffffffff1681526020019081526020015f205f6101000a81548160ff0219169083151502179055505f60015f8084604051610b01919061232f565b90815260200160405180910390206002015f9054906101000a900473ffffffffffffffffffffffffffffffffffffffff1673ffffffffffffffffffffffffffffffffffffffff1673ffffffffffffffffffffffffffffffffffffffff1681526020019081526020015f205f6101000a81548160ff021916908315150217905550611000565b3373ffffffffffffffffffffffffffffffffffffffff165f82604051610bac919061232f565b90815260200160405180910390206007015f9054906101000a900473ffffffffffffffffffffffffffffffffffffffff1673ffffffffffffffffffffffffffffffffffffffff1614610c33576040517f08c379a0000000000000000000000000000000000000000000000000000000008152600401610c2a906127f0565b60405180910390fd5b5f60025f83604051610c45919061232f565b908152602001604051809103902060080154610c619190612765565b90503373ffffffffffffffffffffffffffffffffffffffff166108fc8290811502906040515f60405180830381858888f19350505050158015610ca6573d5f803e3d5ffd5b5060405180610140016040528060405180602001604052805f81525081526020015f73ffffffffffffffffffffffffffffffffffffffff1681526020015f73ffffffffffffffffffffffffffffffffffffffff1681526020015f801b81526020015f801b8152602001606381526020015f73ffffffffffffffffffffffffffffffffffffffff1681526020015f73ffffffffffffffffffffffffffffffffffffffff1681526020015f81526020015f8152505f83604051610d67919061232f565b90815260200160405180910390205f820151815f019081610d88919061253f565b506020820151816001015f6101000a81548173ffffffffffffffffffffffffffffffffffffffff021916908373ffffffffffffffffffffffffffffffffffffffff1602179055506040820151816002015f6101000a81548173ffffffffffffffffffffffffffffffffffffffff021916908373ffffffffffffffffffffffffffffffffffffffff160217905550606082015181600301556080820151816004015560a0820151816005015560c0820151816006015f6101000a81548173ffffffffffffffffffffffffffffffffffffffff021916908373ffffffffffffffffffffffffffffffffffffffff16021790555060e0820151816007015f6101000a81548173ffffffffffffffffffffffffffffffffffffffff021916908373ffffffffffffffffffffffffffffffffffffffff160217905550610100820151816008015561012082015181600901559050505f60015f8085604051610eeb919061232f565b90815260200160405180910390206001015f9054906101000a900473ffffffffffffffffffffffffffffffffffffffff1673ffffffffffffffffffffffffffffffffffffffff1673ffffffffffffffffffffffffffffffffffffffff1681526020019081526020015f205f6101000a81548160ff0219169083151502179055505f60015f8085604051610f7e919061232f565b90815260200160405180910390206002015f9054906101000a900473ffffffffffffffffffffffffffffffffffffffff1673ffffffffffffffffffffffffffffffffffffffff1673ffffffffffffffffffffffffffffffffffffffff1681526020019081526020015f205f6101000a81548160ff021916908315150217905550505b50565b6001602052805f5260405f205f915054906101000a900460ff1681565b5f818051602081018201805184825260208301602085012081835280955050505050505f91509050805f01805461105690612372565b80601f016020809104026020016040519081016040528092919081815260200182805461108290612372565b80156110cd5780601f106110a4576101008083540402835291602001916110cd565b820191905f5260205f20905b8154815290600101906020018083116110b057829003601f168201915b505050505090806001015f9054906101000a900473ffffffffffffffffffffffffffffffffffffffff1690806002015f9054906101000a900473ffffffffffffffffffffffffffffffffffffffff1690806003015490806004015490806005015490806006015f9054906101000a900473ffffffffffffffffffffffffffffffffffffffff1690806007015f9054906101000a900473ffffffffffffffffffffffffffffffffffffffff1690806008015490806009015490508a565b5f838360405160200161119d92919061280e565b6040516020818303038152906040528051906020012090505f73ffffffffffffffffffffffffffffffffffffffff165f836040516111db919061232f565b90815260200160405180910390206002015f9054906101000a900473ffffffffffffffffffffffffffffffffffffffff1673ffffffffffffffffffffffffffffffffffffffff1603611262576040517f08c379a00000000000000000000000000000000000000000000000000000000081526004016112599061287b565b60405180910390fd5b5f82604051611271919061232f565b90815260200160405180910390206001015f9054906101000a900473ffffffffffffffffffffffffffffffffffffffff1673ffffffffffffffffffffffffffffffffffffffff163373ffffffffffffffffffffffffffffffffffffffff16148061134557505f826040516112e5919061232f565b90815260200160405180910390206002015f9054906101000a900473ffffffffffffffffffffffffffffffffffffffff1673ffffffffffffffffffffffffffffffffffffffff163373ffffffffffffffffffffffffffffffffffffffff16145b611384576040517f08c379a000000000000000000000000000000000000000000000000000000000815260040161137b906128e3565b60405180910390fd5b5f82604051611393919061232f565b908152602001604051809103902060030154811415806113d357505f826040516113bd919061232f565b9081526020016040518091039020600401548114155b611412576040517f08c379a00000000000000000000000000000000000000000000000000000000081526004016114099061294b565b60405180910390fd5b5f7f5200000000000000000000000000000000000000000000000000000000000000855f8151811061144757611446612969565b5b602001015160f81c60f81b7effffffffffffffffffffffffffffffffffffffffffffffffffffffffffffff191603611481575f905061155d565b7f5000000000000000000000000000000000000000000000000000000000000000855f815181106114b5576114b4612969565b5b602001015160f81c60f81b7effffffffffffffffffffffffffffffffffffffffffffffffffffffffffffff1916036114f0576001905061155c565b7f5300000000000000000000000000000000000000000000000000000000000000855f8151811061152457611523612969565b5b602001015160f81c60f81b7effffffffffffffffffffffffffffffffffffffffffffffffffffffffffffff19160361155b57600290505b5b5b5f73ffffffffffffffffffffffffffffffffffffffff165f84604051611583919061232f565b90815260200160405180910390206006015f9054906101000a900473ffffffffffffffffffffffffffffffffffffffff1673ffffffffffffffffffffffffffffffffffffffff160361165757805f846040516115df919061232f565b908152602001604051809103902060050181905550335f84604051611604919061232f565b90815260200160405180910390206006015f6101000a81548173ffffffffffffffffffffffffffffffffffffffff021916908373ffffffffffffffffffffffffffffffffffffffff160217905550611c52565b5f6003825f8660405161166a919061232f565b9081526020016040518091039020600501546116869190612996565b61169091906129f6565b90505f8103611b3e575f846040516116a8919061232f565b90815260200160405180910390206001015f9054906101000a900473ffffffffffffffffffffffffffffffffffffffff1673ffffffffffffffffffffffffffffffffffffffff166108fc5f86604051611701919061232f565b90815260200160405180910390206008015490811502906040515f60405180830381858888f1935050505015801561173b573d5f803e3d5ffd5b505f8460405161174b919061232f565b90815260200160405180910390206002015f9054906101000a900473ffffffffffffffffffffffffffffffffffffffff1673ffffffffffffffffffffffffffffffffffffffff166108fc5f866040516117a4919061232f565b90815260200160405180910390206008015490811502906040515f60405180830381858888f193505050501580156117de573d5f803e3d5ffd5b5060405180610140016040528060405180602001604052805f81525081526020015f73ffffffffffffffffffffffffffffffffffffffff1681526020015f73ffffffffffffffffffffffffffffffffffffffff1681526020015f801b81526020015f801b8152602001606381526020015f73ffffffffffffffffffffffffffffffffffffffff1681526020015f73ffffffffffffffffffffffffffffffffffffffff1681526020015f81526020015f8152505f8560405161189f919061232f565b90815260200160405180910390205f820151815f0190816118c0919061253f565b506020820151816001015f6101000a81548173ffffffffffffffffffffffffffffffffffffffff021916908373ffffffffffffffffffffffffffffffffffffffff1602179055506040820151816002015f6101000a81548173ffffffffffffffffffffffffffffffffffffffff021916908373ffffffffffffffffffffffffffffffffffffffff160217905550606082015181600301556080820151816004015560a0820151816005015560c0820151816006015f6101000a81548173ffffffffffffffffffffffffffffffffffffffff021916908373ffffffffffffffffffffffffffffffffffffffff16021790555060e0820151816007015f6101000a81548173ffffffffffffffffffffffffffffffffffffffff021916908373ffffffffffffffffffffffffffffffffffffffff160217905550610100820151816008015561012082015181600901559050505f60015f8087604051611a23919061232f565b90815260200160405180910390206001015f9054906101000a900473ffffffffffffffffffffffffffffffffffffffff1673ffffffffffffffffffffffffffffffffffffffff1673ffffffffffffffffffffffffffffffffffffffff1681526020019081526020015f205f6101000a81548160ff0219169083151502179055505f60015f8087604051611ab6919061232f565b90815260200160405180910390206002015f9054906101000a900473ffffffffffffffffffffffffffffffffffffffff1673ffffffffffffffffffffffffffffffffffffffff1673ffffffffffffffffffffffffffffffffffffffff1681526020019081526020015f205f6101000a81548160ff021916908315150217905550505050611c8e565b60018103611be8575f84604051611b55919061232f565b90815260200160405180910390206006015f9054906101000a900473ffffffffffffffffffffffffffffffffffffffff165f85604051611b95919061232f565b90815260200160405180910390206007015f6101000a81548173ffffffffffffffffffffffffffffffffffffffff021916908373ffffffffffffffffffffffffffffffffffffffff160217905550611c50565b60028103611c4f57335f85604051611c00919061232f565b90815260200160405180910390206007015f6101000a81548173ffffffffffffffffffffffffffffffffffffffff021916908373ffffffffffffffffffffffffffffffffffffffff1602179055505b5b505b7f396aba985c9dff270bb71a0e3b5ec32eabd9983ed6a9c8f69d861d1a0b92c1af3386604051611c83929190612a26565b60405180910390a150505b505050565b5f8282604051602001611ca792919061280e565b6040516020818303038152906040528051906020012090507f2239ad6aab0ccf4f1a983f3ade7ee9767ede5427d5984fea19f91304a6994fd481604051611cee9190612a9e565b60405180910390a1505050565b5f604051905090565b5f80fd5b5f80fd5b5f819050919050565b611d1e81611d0c565b8114611d28575f80fd5b50565b5f81359050611d3981611d15565b92915050565b5f80fd5b5f80fd5b5f601f19601f8301169050919050565b7f4e487b71000000000000000000000000000000000000000000000000000000005f52604160045260245ffd5b611d8d82611d47565b810181811067ffffffffffffffff82111715611dac57611dab611d57565b5b80604052505050565b5f611dbe611cfb565b9050611dca8282611d84565b919050565b5f67ffffffffffffffff821115611de957611de8611d57565b5b611df282611d47565b9050602081019050919050565b828183375f83830152505050565b5f611e1f611e1a84611dcf565b611db5565b905082815260208101848484011115611e3b57611e3a611d43565b5b611e46848285611dff565b509392505050565b5f82601f830112611e6257611e61611d3f565b5b8135611e72848260208601611e0d565b91505092915050565b5f8060408385031215611e9157611e90611d04565b5b5f611e9e85828601611d2b565b925050602083013567ffffffffffffffff811115611ebf57611ebe611d08565b5b611ecb85828601611e4e565b9150509250929050565b5f60208284031215611eea57611ee9611d04565b5b5f82013567ffffffffffffffff811115611f0757611f06611d08565b5b611f1384828501611e4e565b91505092915050565b5f73ffffffffffffffffffffffffffffffffffffffff82169050919050565b5f611f4582611f1c565b9050919050565b611f5581611f3b565b8114611f5f575f80fd5b50565b5f81359050611f7081611f4c565b92915050565b5f60208284031215611f8b57611f8a611d04565b5b5f611f9884828501611f62565b91505092915050565b5f8115159050919050565b611fb581611fa1565b82525050565b5f602082019050611fce5f830184611fac565b92915050565b5f81519050919050565b5f82825260208201905092915050565b8281835e5f83830152505050565b5f61200682611fd4565b6120108185611fde565b9350612020818560208601611fee565b61202981611d47565b840191505092915050565b61203d81611f3b565b82525050565b61204c81611d0c565b82525050565b5f819050919050565b61206481612052565b82525050565b5f610140820190508181035f830152612083818d611ffc565b9050612092602083018c612034565b61209f604083018b612034565b6120ac606083018a612043565b6120b96080830189612043565b6120c660a083018861205b565b6120d360c0830187612034565b6120e060e0830186612034565b6120ee61010083018561205b565b6120fc61012083018461205b565b9b9a5050505050505050505050565b5f805f6060848603121561212257612121611d04565b5b5f84013567ffffffffffffffff81111561213f5761213e611d08565b5b61214b86828701611e4e565b935050602084013567ffffffffffffffff81111561216c5761216b611d08565b5b61217886828701611e4e565b925050604084013567ffffffffffffffff81111561219957612198611d08565b5b6121a586828701611e4e565b9150509250925092565b5f80604083850312156121c5576121c4611d04565b5b5f83013567ffffffffffffffff8111156121e2576121e1611d08565b5b6121ee85828601611e4e565b925050602083013567ffffffffffffffff81111561220f5761220e611d08565b5b61221b85828601611e4e565b9150509250929050565b7f596f752061726520616c726561647920696e20612067616d65000000000000005f82015250565b5f612259601983611fde565b915061226482612225565b602082019050919050565b5f6020820190508181035f8301526122868161224d565b9050919050565b7f5374616b6520746f6f206c6f77000000000000000000000000000000000000005f82015250565b5f6122c1600d83611fde565b91506122cc8261228d565b602082019050919050565b5f6020820190508181035f8301526122ee816122b5565b9050919050565b5f81905092915050565b5f61230982611fd4565b61231381856122f5565b9350612323818560208601611fee565b80840191505092915050565b5f61233a82846122ff565b915081905092915050565b7f4e487b71000000000000000000000000000000000000000000000000000000005f52602260045260245ffd5b5f600282049050600182168061238957607f821691505b60208210810361239c5761239b612345565b5b50919050565b5f819050815f5260205f209050919050565b5f6020601f8301049050919050565b5f82821b905092915050565b5f600883026123fe7fffffffffffffffffffffffffffffffffffffffffffffffffffffffffffffffff826123c3565b61240886836123c3565b95508019841693508086168417925050509392505050565b5f819050919050565b5f61244361243e61243984612052565b612420565b612052565b9050919050565b5f819050919050565b61245c83612429565b6124706124688261244a565b8484546123cf565b825550505050565b5f90565b612484612478565b61248f818484612453565b505050565b5b818110156124b2576124a75f8261247c565b600181019050612495565b5050565b601f8211156124f7576124c8816123a2565b6124d1846123b4565b810160208510156124e0578190505b6124f46124ec856123b4565b830182612494565b50505b505050565b5f82821c905092915050565b5f6125175f19846008026124fc565b1980831691505092915050565b5f61252f8383612508565b9150826002028217905092915050565b61254882611fd4565b67ffffffffffffffff81111561256157612560611d57565b5b61256b8254612372565b6125768282856124b6565b5f60209050601f8311600181146125a7575f8415612595578287015190505b61259f8582612524565b865550612606565b601f1984166125b5866123a2565b5f5b828110156125dc578489015182556001820191506020850194506020810190506125b7565b868310156125f957848901516125f5601f891682612508565b8355505b6001600288020188555050505b505050505050565b7f57726f6e67207374616b650000000000000000000000000000000000000000005f82015250565b5f612642600b83611fde565b915061264d8261260e565b602082019050919050565b5f6020820190508181035f83015261266f81612636565b9050919050565b7f47616d652066756c6c00000000000000000000000000000000000000000000005f82015250565b5f6126aa600983611fde565b91506126b582612676565b602082019050919050565b5f6020820190508181035f8301526126d78161269e565b9050919050565b5f6040820190506126f15f830185612034565b6126fe6020830184612043565b9392505050565b7f4e487b71000000000000000000000000000000000000000000000000000000005f52601160045260245ffd5b5f61273c82612052565b915061274783612052565b925082820190508082111561275f5761275e612705565b5b92915050565b5f61276f82612052565b915061277a83612052565b925082820261278881612052565b9150828204841483151761279f5761279e612705565b5b5092915050565b7f596f7520646964206e6f742077696e20746861742067616d65202879657429215f82015250565b5f6127da602083611fde565b91506127e5826127a6565b602082019050919050565b5f6020820190508181035f830152612807816127ce565b9050919050565b5f61281982856122ff565b915061282582846122ff565b91508190509392505050565b7f506c617965722032206e6f74206a6f696e6564207965742e00000000000000005f82015250565b5f612865601883611fde565b915061287082612831565b602082019050919050565b5f6020820190508181035f83015261289281612859565b9050919050565b7f596f7520617265206e6f7420612070617274206f6620746869732067616d652e5f82015250565b5f6128cd602083611fde565b91506128d882612899565b602082019050919050565b5f6020820190508181035f8301526128fa816128c1565b9050919050565b7f57726f6e6720766f74652f73616c742e000000000000000000000000000000005f82015250565b5f612935601083611fde565b915061294082612901565b602082019050919050565b5f6020820190508181035f83015261296281612929565b9050919050565b7f4e487b71000000000000000000000000000000000000000000000000000000005f52603260045260245ffd5b5f6129a082612052565b91506129ab83612052565b92508282039050818111156129c3576129c2612705565b5b92915050565b7f4e487b71000000000000000000000000000000000000000000000000000000005f52601260045260245ffd5b5f612a0082612052565b9150612a0b83612052565b925082612a1b57612a1a6129c9565b5b828206905092915050565b5f604082019050612a395f830185612034565b8181036020830152612a4b8184611ffc565b90509392505050565b7f736f6d657468696e6768657265000000000000000000000000000000000000005f82015250565b5f612a88600d83611fde565b9150612a9382612a54565b602082019050919050565b5f604082019050612ab15f830184612043565b8181036020830152612ac281612a7c565b90509291505056fea2646970667358221220232127d3b9bfe710be5f5bcee05d1fba218f962a5db29c890f0ad73f78e4e72c64736f6c634300081a0033",
					"opcodes": "PUSH1 0x80 PUSH1 0x40 MSTORE PUSH1 0x2 DUP1 SSTORE CALLVALUE DUP1 ISZERO PUSH1 0x12 JUMPI PUSH0 DUP1 REVERT JUMPDEST POP PUSH2 0x2B00 DUP1 PUSH2 0x20 PUSH0 CODECOPY PUSH0 RETURN INVALID PUSH1 0x80 PUSH1 0x40 MSTORE PUSH1 0x4 CALLDATASIZE LT PUSH2 0x54 JUMPI PUSH0 CALLDATALOAD PUSH1 0xE0 SHR DUP1 PUSH4 0x14582B77 EQ PUSH2 0x58 JUMPI DUP1 PUSH4 0x31FB67C2 EQ PUSH2 0x74 JUMPI DUP1 PUSH4 0x76E033C7 EQ PUSH2 0x9C JUMPI DUP1 PUSH4 0xD5A86A43 EQ PUSH2 0xD8 JUMPI DUP1 PUSH4 0xFB9A3591 EQ PUSH2 0x11D JUMPI DUP1 PUSH4 0xFEF39572 EQ PUSH2 0x145 JUMPI JUMPDEST PUSH0 DUP1 REVERT JUMPDEST PUSH2 0x72 PUSH1 0x4 DUP1 CALLDATASIZE SUB DUP2 ADD SWAP1 PUSH2 0x6D SWAP2 SWAP1 PUSH2 0x1E7B JUMP JUMPDEST PUSH2 0x16D JUMP JUMPDEST STOP JUMPDEST CALLVALUE DUP1 ISZERO PUSH2 0x7F JUMPI PUSH0 DUP1 REVERT JUMPDEST POP PUSH2 0x9A PUSH1 0x4 DUP1 CALLDATASIZE SUB DUP2 ADD SWAP1 PUSH2 0x95 SWAP2 SWAP1 PUSH2 0x1ED5 JUMP JUMPDEST PUSH2 0x6A9 JUMP JUMPDEST STOP JUMPDEST CALLVALUE DUP1 ISZERO PUSH2 0xA7 JUMPI PUSH0 DUP1 REVERT JUMPDEST POP PUSH2 0xC2 PUSH1 0x4 DUP1 CALLDATASIZE SUB DUP2 ADD SWAP1 PUSH2 0xBD SWAP2 SWAP1 PUSH2 0x1F76 JUMP JUMPDEST PUSH2 0x1003 JUMP JUMPDEST PUSH1 0x40 MLOAD PUSH2 0xCF SWAP2 SWAP1 PUSH2 0x1FBB JUMP JUMPDEST PUSH1 0x40 MLOAD DUP1 SWAP2 SUB SWAP1 RETURN JUMPDEST CALLVALUE DUP1 ISZERO PUSH2 0xE3 JUMPI PUSH0 DUP1 REVERT JUMPDEST POP PUSH2 0xFE PUSH1 0x4 DUP1 CALLDATASIZE SUB DUP2 ADD SWAP1 PUSH2 0xF9 SWAP2 SWAP1 PUSH2 0x1ED5 JUMP JUMPDEST PUSH2 0x1020 JUMP JUMPDEST PUSH1 0x40 MLOAD PUSH2 0x114 SWAP11 SWAP10 SWAP9 SWAP8 SWAP7 SWAP6 SWAP5 SWAP4 SWAP3 SWAP2 SWAP1 PUSH2 0x206A JUMP JUMPDEST PUSH1 0x40 MLOAD DUP1 SWAP2 SUB SWAP1 RETURN JUMPDEST CALLVALUE DUP1 ISZERO PUSH2 0x128 JUMPI PUSH0 DUP1 REVERT JUMPDEST POP PUSH2 0x143 PUSH1 0x4 DUP1 CALLDATASIZE SUB DUP2 ADD SWAP1 PUSH2 0x13E SWAP2 SWAP1 PUSH2 0x210B JUMP JUMPDEST PUSH2 0x1189 JUMP JUMPDEST STOP JUMPDEST CALLVALUE DUP1 ISZERO PUSH2 0x150 JUMPI PUSH0 DUP1 REVERT JUMPDEST POP PUSH2 0x16B PUSH1 0x4 DUP1 CALLDATASIZE SUB DUP2 ADD SWAP1 PUSH2 0x166 SWAP2 SWAP1 PUSH2 0x21AF JUMP JUMPDEST PUSH2 0x1C93 JUMP JUMPDEST STOP JUMPDEST PUSH1 0x1 PUSH0 CALLER PUSH20 0xFFFFFFFFFFFFFFFFFFFFFFFFFFFFFFFFFFFFFFFF AND PUSH20 0xFFFFFFFFFFFFFFFFFFFFFFFFFFFFFFFFFFFFFFFF AND DUP2 MSTORE PUSH1 0x20 ADD SWAP1 DUP2 MSTORE PUSH1 0x20 ADD PUSH0 KECCAK256 PUSH0 SWAP1 SLOAD SWAP1 PUSH2 0x100 EXP SWAP1 DIV PUSH1 0xFF AND ISZERO PUSH2 0x1F7 JUMPI PUSH1 0x40 MLOAD PUSH32 0x8C379A000000000000000000000000000000000000000000000000000000000 DUP2 MSTORE PUSH1 0x4 ADD PUSH2 0x1EE SWAP1 PUSH2 0x226F JUMP JUMPDEST PUSH1 0x40 MLOAD DUP1 SWAP2 SUB SWAP1 REVERT JUMPDEST PUSH1 0x2 SLOAD CALLVALUE LT ISZERO PUSH2 0x23C JUMPI PUSH1 0x40 MLOAD PUSH32 0x8C379A000000000000000000000000000000000000000000000000000000000 DUP2 MSTORE PUSH1 0x4 ADD PUSH2 0x233 SWAP1 PUSH2 0x22D7 JUMP JUMPDEST PUSH1 0x40 MLOAD DUP1 SWAP2 SUB SWAP1 REVERT JUMPDEST PUSH0 PUSH20 0xFFFFFFFFFFFFFFFFFFFFFFFFFFFFFFFFFFFFFFFF AND PUSH0 DUP3 PUSH1 0x40 MLOAD PUSH2 0x262 SWAP2 SWAP1 PUSH2 0x232F JUMP JUMPDEST SWAP1 DUP2 MSTORE PUSH1 0x20 ADD PUSH1 0x40 MLOAD DUP1 SWAP2 SUB SWAP1 KECCAK256 PUSH1 0x1 ADD PUSH0 SWAP1 SLOAD SWAP1 PUSH2 0x100 EXP SWAP1 DIV PUSH20 0xFFFFFFFFFFFFFFFFFFFFFFFFFFFFFFFFFFFFFFFF AND PUSH20 0xFFFFFFFFFFFFFFFFFFFFFFFFFFFFFFFFFFFFFFFF AND SUB PUSH2 0x4D4 JUMPI PUSH1 0x40 MLOAD DUP1 PUSH2 0x140 ADD PUSH1 0x40 MSTORE DUP1 DUP3 DUP2 MSTORE PUSH1 0x20 ADD CALLER PUSH20 0xFFFFFFFFFFFFFFFFFFFFFFFFFFFFFFFFFFFFFFFF AND DUP2 MSTORE PUSH1 0x20 ADD PUSH0 PUSH20 0xFFFFFFFFFFFFFFFFFFFFFFFFFFFFFFFFFFFFFFFF AND DUP2 MSTORE PUSH1 0x20 ADD DUP4 DUP2 MSTORE PUSH1 0x20 ADD PUSH0 DUP1 SHL DUP2 MSTORE PUSH1 0x20 ADD PUSH1 0x63 DUP2 MSTORE PUSH1 0x20 ADD PUSH0 PUSH20 0xFFFFFFFFFFFFFFFFFFFFFFFFFFFFFFFFFFFFFFFF AND DUP2 MSTORE PUSH1 0x20 ADD PUSH0 PUSH20 0xFFFFFFFFFFFFFFFFFFFFFFFFFFFFFFFFFFFFFFFF AND DUP2 MSTORE PUSH1 0x20 ADD CALLVALUE DUP2 MSTORE PUSH1 0x20 ADD TIMESTAMP DUP2 MSTORE POP PUSH0 DUP3 PUSH1 0x40 MLOAD PUSH2 0x35E SWAP2 SWAP1 PUSH2 0x232F JUMP JUMPDEST SWAP1 DUP2 MSTORE PUSH1 0x20 ADD PUSH1 0x40 MLOAD DUP1 SWAP2 SUB SWAP1 KECCAK256 PUSH0 DUP3 ADD MLOAD DUP2 PUSH0 ADD SWAP1 DUP2 PUSH2 0x37F SWAP2 SWAP1 PUSH2 0x253F JUMP JUMPDEST POP PUSH1 0x20 DUP3 ADD MLOAD DUP2 PUSH1 0x1 ADD PUSH0 PUSH2 0x100 EXP DUP2 SLOAD DUP2 PUSH20 0xFFFFFFFFFFFFFFFFFFFFFFFFFFFFFFFFFFFFFFFF MUL NOT AND SWAP1 DUP4 PUSH20 0xFFFFFFFFFFFFFFFFFFFFFFFFFFFFFFFFFFFFFFFF AND MUL OR SWAP1 SSTORE POP PUSH1 0x40 DUP3 ADD MLOAD DUP2 PUSH1 0x2 ADD PUSH0 PUSH2 0x100 EXP DUP2 SLOAD DUP2 PUSH20 0xFFFFFFFFFFFFFFFFFFFFFFFFFFFFFFFFFFFFFFFF MUL NOT AND SWAP1 DUP4 PUSH20 0xFFFFFFFFFFFFFFFFFFFFFFFFFFFFFFFFFFFFFFFF AND MUL OR SWAP1 SSTORE POP PUSH1 0x60 DUP3 ADD MLOAD DUP2 PUSH1 0x3 ADD SSTORE PUSH1 0x80 DUP3 ADD MLOAD DUP2 PUSH1 0x4 ADD SSTORE PUSH1 0xA0 DUP3 ADD MLOAD DUP2 PUSH1 0x5 ADD SSTORE PUSH1 0xC0 DUP3 ADD MLOAD DUP2 PUSH1 0x6 ADD PUSH0 PUSH2 0x100 EXP DUP2 SLOAD DUP2 PUSH20 0xFFFFFFFFFFFFFFFFFFFFFFFFFFFFFFFFFFFFFFFF MUL NOT AND SWAP1 DUP4 PUSH20 0xFFFFFFFFFFFFFFFFFFFFFFFFFFFFFFFFFFFFFFFF AND MUL OR SWAP1 SSTORE POP PUSH1 0xE0 DUP3 ADD MLOAD DUP2 PUSH1 0x7 ADD PUSH0 PUSH2 0x100 EXP DUP2 SLOAD DUP2 PUSH20 0xFFFFFFFFFFFFFFFFFFFFFFFFFFFFFFFFFFFFFFFF MUL NOT AND SWAP1 DUP4 PUSH20 0xFFFFFFFFFFFFFFFFFFFFFFFFFFFFFFFFFFFFFFFF AND MUL OR SWAP1 SSTORE POP PUSH2 0x100 DUP3 ADD MLOAD DUP2 PUSH1 0x8 ADD SSTORE PUSH2 0x120 DUP3 ADD MLOAD DUP2 PUSH1 0x9 ADD SSTORE SWAP1 POP POP PUSH2 0x618 JUMP JUMPDEST PUSH0 DUP1 DUP3 PUSH1 0x40 MLOAD PUSH2 0x4E4 SWAP2 SWAP1 PUSH2 0x232F JUMP JUMPDEST SWAP1 DUP2 MSTORE PUSH1 0x20 ADD PUSH1 0x40 MLOAD DUP1 SWAP2 SUB SWAP1 KECCAK256 SWAP1 POP CALLVALUE DUP2 PUSH1 0x8 ADD SLOAD EQ PUSH2 0x53A JUMPI PUSH1 0x40 MLOAD PUSH32 0x8C379A000000000000000000000000000000000000000000000000000000000 DUP2 MSTORE PUSH1 0x4 ADD PUSH2 0x531 SWAP1 PUSH2 0x2658 JUMP JUMPDEST PUSH1 0x40 MLOAD DUP1 SWAP2 SUB SWAP1 REVERT JUMPDEST PUSH0 PUSH20 0xFFFFFFFFFFFFFFFFFFFFFFFFFFFFFFFFFFFFFFFF AND DUP2 PUSH1 0x2 ADD PUSH0 SWAP1 SLOAD SWAP1 PUSH2 0x100 EXP SWAP1 DIV PUSH20 0xFFFFFFFFFFFFFFFFFFFFFFFFFFFFFFFFFFFFFFFF AND PUSH20 0xFFFFFFFFFFFFFFFFFFFFFFFFFFFFFFFFFFFFFFFF AND EQ PUSH2 0x5CB JUMPI PUSH1 0x40 MLOAD PUSH32 0x8C379A000000000000000000000000000000000000000000000000000000000 DUP2 MSTORE PUSH1 0x4 ADD PUSH2 0x5C2 SWAP1 PUSH2 0x26C0 JUMP JUMPDEST PUSH1 0x40 MLOAD DUP1 SWAP2 SUB SWAP1 REVERT JUMPDEST CALLER DUP2 PUSH1 0x2 ADD PUSH0 PUSH2 0x100 EXP DUP2 SLOAD DUP2 PUSH20 0xFFFFFFFFFFFFFFFFFFFFFFFFFFFFFFFFFFFFFFFF MUL NOT AND SWAP1 DUP4 PUSH20 0xFFFFFFFFFFFFFFFFFFFFFFFFFFFFFFFFFFFFFFFF AND MUL OR SWAP1 SSTORE POP DUP3 DUP2 PUSH1 0x4 ADD DUP2 SWAP1 SSTORE POP POP JUMPDEST PUSH1 0x1 DUP1 PUSH0 CALLER PUSH20 0xFFFFFFFFFFFFFFFFFFFFFFFFFFFFFFFFFFFFFFFF AND PUSH20 0xFFFFFFFFFFFFFFFFFFFFFFFFFFFFFFFFFFFFFFFF AND DUP2 MSTORE PUSH1 0x20 ADD SWAP1 DUP2 MSTORE PUSH1 0x20 ADD PUSH0 KECCAK256 PUSH0 PUSH2 0x100 EXP DUP2 SLOAD DUP2 PUSH1 0xFF MUL NOT AND SWAP1 DUP4 ISZERO ISZERO MUL OR SWAP1 SSTORE POP PUSH32 0xE810C81F17F47C45E4F5FED4C719D73DE6FA94A77AD2745E3E6294801CF51CA4 CALLER DUP4 PUSH1 0x40 MLOAD PUSH2 0x69D SWAP3 SWAP2 SWAP1 PUSH2 0x26DE JUMP JUMPDEST PUSH1 0x40 MLOAD DUP1 SWAP2 SUB SWAP1 LOG1 POP POP JUMP JUMPDEST TIMESTAMP PUSH2 0x12C PUSH0 DUP4 PUSH1 0x40 MLOAD PUSH2 0x6BC SWAP2 SWAP1 PUSH2 0x232F JUMP JUMPDEST SWAP1 DUP2 MSTORE PUSH1 0x20 ADD PUSH1 0x40 MLOAD DUP1 SWAP2 SUB SWAP1 KECCAK256 PUSH1 0x9 ADD SLOAD PUSH2 0x6D8 SWAP2 SWAP1 PUSH2 0x2732 JUMP JUMPDEST LT ISZERO PUSH2 0xB86 JUMPI PUSH0 PUSH20 0xFFFFFFFFFFFFFFFFFFFFFFFFFFFFFFFFFFFFFFFF AND PUSH0 DUP3 PUSH1 0x40 MLOAD PUSH2 0x704 SWAP2 SWAP1 PUSH2 0x232F JUMP JUMPDEST SWAP1 DUP2 MSTORE PUSH1 0x20 ADD PUSH1 0x40 MLOAD DUP1 SWAP2 SUB SWAP1 KECCAK256 PUSH1 0x2 ADD PUSH0 SWAP1 SLOAD SWAP1 PUSH2 0x100 EXP SWAP1 DIV PUSH20 0xFFFFFFFFFFFFFFFFFFFFFFFFFFFFFFFFFFFFFFFF AND PUSH20 0xFFFFFFFFFFFFFFFFFFFFFFFFFFFFFFFFFFFFFFFF AND SUB PUSH2 0x7B9 JUMPI CALLER PUSH20 0xFFFFFFFFFFFFFFFFFFFFFFFFFFFFFFFFFFFFFFFF AND PUSH2 0x8FC PUSH0 DUP4 PUSH1 0x40 MLOAD PUSH2 0x779 SWAP2 SWAP1 PUSH2 0x232F JUMP JUMPDEST SWAP1 DUP2 MSTORE PUSH1 0x20 ADD PUSH1 0x40 MLOAD DUP1 SWAP2 SUB SWAP1 KECCAK256 PUSH1 0x8 ADD SLOAD SWAP1 DUP2 ISZERO MUL SWAP1 PUSH1 0x40 MLOAD PUSH0 PUSH1 0x40 MLOAD DUP1 DUP4 SUB DUP2 DUP6 DUP9 DUP9 CALL SWAP4 POP POP POP POP ISZERO DUP1 ISZERO PUSH2 0x7B3 JUMPI RETURNDATASIZE PUSH0 DUP1 RETURNDATACOPY RETURNDATASIZE PUSH0 REVERT JUMPDEST POP PUSH2 0x82A JUMP JUMPDEST CALLER PUSH20 0xFFFFFFFFFFFFFFFFFFFFFFFFFFFFFFFFFFFFFFFF AND PUSH2 0x8FC PUSH1 0x2 PUSH0 DUP5 PUSH1 0x40 MLOAD PUSH2 0x7E4 SWAP2 SWAP1 PUSH2 0x232F JUMP JUMPDEST SWAP1 DUP2 MSTORE PUSH1 0x20 ADD PUSH1 0x40 MLOAD DUP1 SWAP2 SUB SWAP1 KECCAK256 PUSH1 0x8 ADD SLOAD PUSH2 0x800 SWAP2 SWAP1 PUSH2 0x2765 JUMP JUMPDEST SWAP1 DUP2 ISZERO MUL SWAP1 PUSH1 0x40 MLOAD PUSH0 PUSH1 0x40 MLOAD DUP1 DUP4 SUB DUP2 DUP6 DUP9 DUP9 CALL SWAP4 POP POP POP POP ISZERO DUP1 ISZERO PUSH2 0x828 JUMPI RETURNDATASIZE PUSH0 DUP1 RETURNDATACOPY RETURNDATASIZE PUSH0 REVERT JUMPDEST POP JUMPDEST PUSH1 0x40 MLOAD DUP1 PUSH2 0x140 ADD PUSH1 0x40 MSTORE DUP1 PUSH1 0x40 MLOAD DUP1 PUSH1 0x20 ADD PUSH1 0x40 MSTORE DUP1 PUSH0 DUP2 MSTORE POP DUP2 MSTORE PUSH1 0x20 ADD PUSH0 PUSH20 0xFFFFFFFFFFFFFFFFFFFFFFFFFFFFFFFFFFFFFFFF AND DUP2 MSTORE PUSH1 0x20 ADD PUSH0 PUSH20 0xFFFFFFFFFFFFFFFFFFFFFFFFFFFFFFFFFFFFFFFF AND DUP2 MSTORE PUSH1 0x20 ADD PUSH0 DUP1 SHL DUP2 MSTORE PUSH1 0x20 ADD PUSH0 DUP1 SHL DUP2 MSTORE PUSH1 0x20 ADD PUSH1 0x63 DUP2 MSTORE PUSH1 0x20 ADD PUSH0 PUSH20 0xFFFFFFFFFFFFFFFFFFFFFFFFFFFFFFFFFFFFFFFF AND DUP2 MSTORE PUSH1 0x20 ADD PUSH0 PUSH20 0xFFFFFFFFFFFFFFFFFFFFFFFFFFFFFFFFFFFFFFFF AND DUP2 MSTORE PUSH1 0x20 ADD PUSH0 DUP2 MSTORE PUSH1 0x20 ADD PUSH0 DUP2 MSTORE POP PUSH0 DUP3 PUSH1 0x40 MLOAD PUSH2 0x8EA SWAP2 SWAP1 PUSH2 0x232F JUMP JUMPDEST SWAP1 DUP2 MSTORE PUSH1 0x20 ADD PUSH1 0x40 MLOAD DUP1 SWAP2 SUB SWAP1 KECCAK256 PUSH0 DUP3 ADD MLOAD DUP2 PUSH0 ADD SWAP1 DUP2 PUSH2 0x90B SWAP2 SWAP1 PUSH2 0x253F JUMP JUMPDEST POP PUSH1 0x20 DUP3 ADD MLOAD DUP2 PUSH1 0x1 ADD PUSH0 PUSH2 0x100 EXP DUP2 SLOAD DUP2 PUSH20 0xFFFFFFFFFFFFFFFFFFFFFFFFFFFFFFFFFFFFFFFF MUL NOT AND SWAP1 DUP4 PUSH20 0xFFFFFFFFFFFFFFFFFFFFFFFFFFFFFFFFFFFFFFFF AND MUL OR SWAP1 SSTORE POP PUSH1 0x40 DUP3 ADD MLOAD DUP2 PUSH1 0x2 ADD PUSH0 PUSH2 0x100 EXP DUP2 SLOAD DUP2 PUSH20 0xFFFFFFFFFFFFFFFFFFFFFFFFFFFFFFFFFFFFFFFF MUL NOT AND SWAP1 DUP4 PUSH20 0xFFFFFFFFFFFFFFFFFFFFFFFFFFFFFFFFFFFFFFFF AND MUL OR SWAP1 SSTORE POP PUSH1 0x60 DUP3 ADD MLOAD DUP2 PUSH1 0x3 ADD SSTORE PUSH1 0x80 DUP3 ADD MLOAD DUP2 PUSH1 0x4 ADD SSTORE PUSH1 0xA0 DUP3 ADD MLOAD DUP2 PUSH1 0x5 ADD SSTORE PUSH1 0xC0 DUP3 ADD MLOAD DUP2 PUSH1 0x6 ADD PUSH0 PUSH2 0x100 EXP DUP2 SLOAD DUP2 PUSH20 0xFFFFFFFFFFFFFFFFFFFFFFFFFFFFFFFFFFFFFFFF MUL NOT AND SWAP1 DUP4 PUSH20 0xFFFFFFFFFFFFFFFFFFFFFFFFFFFFFFFFFFFFFFFF AND MUL OR SWAP1 SSTORE POP PUSH1 0xE0 DUP3 ADD MLOAD DUP2 PUSH1 0x7 ADD PUSH0 PUSH2 0x100 EXP DUP2 SLOAD DUP2 PUSH20 0xFFFFFFFFFFFFFFFFFFFFFFFFFFFFFFFFFFFFFFFF MUL NOT AND SWAP1 DUP4 PUSH20 0xFFFFFFFFFFFFFFFFFFFFFFFFFFFFFFFFFFFFFFFF AND MUL OR SWAP1 SSTORE POP PUSH2 0x100 DUP3 ADD MLOAD DUP2 PUSH1 0x8 ADD SSTORE PUSH2 0x120 DUP3 ADD MLOAD DUP2 PUSH1 0x9 ADD SSTORE SWAP1 POP POP PUSH0 PUSH1 0x1 PUSH0 DUP1 DUP5 PUSH1 0x40 MLOAD PUSH2 0xA6E SWAP2 SWAP1 PUSH2 0x232F JUMP JUMPDEST SWAP1 DUP2 MSTORE PUSH1 0x20 ADD PUSH1 0x40 MLOAD DUP1 SWAP2 SUB SWAP1 KECCAK256 PUSH1 0x1 ADD PUSH0 SWAP1 SLOAD SWAP1 PUSH2 0x100 EXP SWAP1 DIV PUSH20 0xFFFFFFFFFFFFFFFFFFFFFFFFFFFFFFFFFFFFFFFF AND PUSH20 0xFFFFFFFFFFFFFFFFFFFFFFFFFFFFFFFFFFFFFFFF AND PUSH20 0xFFFFFFFFFFFFFFFFFFFFFFFFFFFFFFFFFFFFFFFF AND DUP2 MSTORE PUSH1 0x20 ADD SWAP1 DUP2 MSTORE PUSH1 0x20 ADD PUSH0 KECCAK256 PUSH0 PUSH2 0x100 EXP DUP2 SLOAD DUP2 PUSH1 0xFF MUL NOT AND SWAP1 DUP4 ISZERO ISZERO MUL OR SWAP1 SSTORE POP PUSH0 PUSH1 0x1 PUSH0 DUP1 DUP5 PUSH1 0x40 MLOAD PUSH2 0xB01 SWAP2 SWAP1 PUSH2 0x232F JUMP JUMPDEST SWAP1 DUP2 MSTORE PUSH1 0x20 ADD PUSH1 0x40 MLOAD DUP1 SWAP2 SUB SWAP1 KECCAK256 PUSH1 0x2 ADD PUSH0 SWAP1 SLOAD SWAP1 PUSH2 0x100 EXP SWAP1 DIV PUSH20 0xFFFFFFFFFFFFFFFFFFFFFFFFFFFFFFFFFFFFFFFF AND PUSH20 0xFFFFFFFFFFFFFFFFFFFFFFFFFFFFFFFFFFFFFFFF AND PUSH20 0xFFFFFFFFFFFFFFFFFFFFFFFFFFFFFFFFFFFFFFFF AND DUP2 MSTORE PUSH1 0x20 ADD SWAP1 DUP2 MSTORE PUSH1 0x20 ADD PUSH0 KECCAK256 PUSH0 PUSH2 0x100 EXP DUP2 SLOAD DUP2 PUSH1 0xFF MUL NOT AND SWAP1 DUP4 ISZERO ISZERO MUL OR SWAP1 SSTORE POP PUSH2 0x1000 JUMP JUMPDEST CALLER PUSH20 0xFFFFFFFFFFFFFFFFFFFFFFFFFFFFFFFFFFFFFFFF AND PUSH0 DUP3 PUSH1 0x40 MLOAD PUSH2 0xBAC SWAP2 SWAP1 PUSH2 0x232F JUMP JUMPDEST SWAP1 DUP2 MSTORE PUSH1 0x20 ADD PUSH1 0x40 MLOAD DUP1 SWAP2 SUB SWAP1 KECCAK256 PUSH1 0x7 ADD PUSH0 SWAP1 SLOAD SWAP1 PUSH2 0x100 EXP SWAP1 DIV PUSH20 0xFFFFFFFFFFFFFFFFFFFFFFFFFFFFFFFFFFFFFFFF AND PUSH20 0xFFFFFFFFFFFFFFFFFFFFFFFFFFFFFFFFFFFFFFFF AND EQ PUSH2 0xC33 JUMPI PUSH1 0x40 MLOAD PUSH32 0x8C379A000000000000000000000000000000000000000000000000000000000 DUP2 MSTORE PUSH1 0x4 ADD PUSH2 0xC2A SWAP1 PUSH2 0x27F0 JUMP JUMPDEST PUSH1 0x40 MLOAD DUP1 SWAP2 SUB SWAP1 REVERT JUMPDEST PUSH0 PUSH1 0x2 PUSH0 DUP4 PUSH1 0x40 MLOAD PUSH2 0xC45 SWAP2 SWAP1 PUSH2 0x232F JUMP JUMPDEST SWAP1 DUP2 MSTORE PUSH1 0x20 ADD PUSH1 0x40 MLOAD DUP1 SWAP2 SUB SWAP1 KECCAK256 PUSH1 0x8 ADD SLOAD PUSH2 0xC61 SWAP2 SWAP1 PUSH2 0x2765 JUMP JUMPDEST SWAP1 POP CALLER PUSH20 0xFFFFFFFFFFFFFFFFFFFFFFFFFFFFFFFFFFFFFFFF AND PUSH2 0x8FC DUP3 SWAP1 DUP2 ISZERO MUL SWAP1 PUSH1 0x40 MLOAD PUSH0 PUSH1 0x40 MLOAD DUP1 DUP4 SUB DUP2 DUP6 DUP9 DUP9 CALL SWAP4 POP POP POP POP ISZERO DUP1 ISZERO PUSH2 0xCA6 JUMPI RETURNDATASIZE PUSH0 DUP1 RETURNDATACOPY RETURNDATASIZE PUSH0 REVERT JUMPDEST POP PUSH1 0x40 MLOAD DUP1 PUSH2 0x140 ADD PUSH1 0x40 MSTORE DUP1 PUSH1 0x40 MLOAD DUP1 PUSH1 0x20 ADD PUSH1 0x40 MSTORE DUP1 PUSH0 DUP2 MSTORE POP DUP2 MSTORE PUSH1 0x20 ADD PUSH0 PUSH20 0xFFFFFFFFFFFFFFFFFFFFFFFFFFFFFFFFFFFFFFFF AND DUP2 MSTORE PUSH1 0x20 ADD PUSH0 PUSH20 0xFFFFFFFFFFFFFFFFFFFFFFFFFFFFFFFFFFFFFFFF AND DUP2 MSTORE PUSH1 0x20 ADD PUSH0 DUP1 SHL DUP2 MSTORE PUSH1 0x20 ADD PUSH0 DUP1 SHL DUP2 MSTORE PUSH1 0x20 ADD PUSH1 0x63 DUP2 MSTORE PUSH1 0x20 ADD PUSH0 PUSH20 0xFFFFFFFFFFFFFFFFFFFFFFFFFFFFFFFFFFFFFFFF AND DUP2 MSTORE PUSH1 0x20 ADD PUSH0 PUSH20 0xFFFFFFFFFFFFFFFFFFFFFFFFFFFFFFFFFFFFFFFF AND DUP2 MSTORE PUSH1 0x20 ADD PUSH0 DUP2 MSTORE PUSH1 0x20 ADD PUSH0 DUP2 MSTORE POP PUSH0 DUP4 PUSH1 0x40 MLOAD PUSH2 0xD67 SWAP2 SWAP1 PUSH2 0x232F JUMP JUMPDEST SWAP1 DUP2 MSTORE PUSH1 0x20 ADD PUSH1 0x40 MLOAD DUP1 SWAP2 SUB SWAP1 KECCAK256 PUSH0 DUP3 ADD MLOAD DUP2 PUSH0 ADD SWAP1 DUP2 PUSH2 0xD88 SWAP2 SWAP1 PUSH2 0x253F JUMP JUMPDEST POP PUSH1 0x20 DUP3 ADD MLOAD DUP2 PUSH1 0x1 ADD PUSH0 PUSH2 0x100 EXP DUP2 SLOAD DUP2 PUSH20 0xFFFFFFFFFFFFFFFFFFFFFFFFFFFFFFFFFFFFFFFF MUL NOT AND SWAP1 DUP4 PUSH20 0xFFFFFFFFFFFFFFFFFFFFFFFFFFFFFFFFFFFFFFFF AND MUL OR SWAP1 SSTORE POP PUSH1 0x40 DUP3 ADD MLOAD DUP2 PUSH1 0x2 ADD PUSH0 PUSH2 0x100 EXP DUP2 SLOAD DUP2 PUSH20 0xFFFFFFFFFFFFFFFFFFFFFFFFFFFFFFFFFFFFFFFF MUL NOT AND SWAP1 DUP4 PUSH20 0xFFFFFFFFFFFFFFFFFFFFFFFFFFFFFFFFFFFFFFFF AND MUL OR SWAP1 SSTORE POP PUSH1 0x60 DUP3 ADD MLOAD DUP2 PUSH1 0x3 ADD SSTORE PUSH1 0x80 DUP3 ADD MLOAD DUP2 PUSH1 0x4 ADD SSTORE PUSH1 0xA0 DUP3 ADD MLOAD DUP2 PUSH1 0x5 ADD SSTORE PUSH1 0xC0 DUP3 ADD MLOAD DUP2 PUSH1 0x6 ADD PUSH0 PUSH2 0x100 EXP DUP2 SLOAD DUP2 PUSH20 0xFFFFFFFFFFFFFFFFFFFFFFFFFFFFFFFFFFFFFFFF MUL NOT AND SWAP1 DUP4 PUSH20 0xFFFFFFFFFFFFFFFFFFFFFFFFFFFFFFFFFFFFFFFF AND MUL OR SWAP1 SSTORE POP PUSH1 0xE0 DUP3 ADD MLOAD DUP2 PUSH1 0x7 ADD PUSH0 PUSH2 0x100 EXP DUP2 SLOAD DUP2 PUSH20 0xFFFFFFFFFFFFFFFFFFFFFFFFFFFFFFFFFFFFFFFF MUL NOT AND SWAP1 DUP4 PUSH20 0xFFFFFFFFFFFFFFFFFFFFFFFFFFFFFFFFFFFFFFFF AND MUL OR SWAP1 SSTORE POP PUSH2 0x100 DUP3 ADD MLOAD DUP2 PUSH1 0x8 ADD SSTORE PUSH2 0x120 DUP3 ADD MLOAD DUP2 PUSH1 0x9 ADD SSTORE SWAP1 POP POP PUSH0 PUSH1 0x1 PUSH0 DUP1 DUP6 PUSH1 0x40 MLOAD PUSH2 0xEEB SWAP2 SWAP1 PUSH2 0x232F JUMP JUMPDEST SWAP1 DUP2 MSTORE PUSH1 0x20 ADD PUSH1 0x40 MLOAD DUP1 SWAP2 SUB SWAP1 KECCAK256 PUSH1 0x1 ADD PUSH0 SWAP1 SLOAD SWAP1 PUSH2 0x100 EXP SWAP1 DIV PUSH20 0xFFFFFFFFFFFFFFFFFFFFFFFFFFFFFFFFFFFFFFFF AND PUSH20 0xFFFFFFFFFFFFFFFFFFFFFFFFFFFFFFFFFFFFFFFF AND PUSH20 0xFFFFFFFFFFFFFFFFFFFFFFFFFFFFFFFFFFFFFFFF AND DUP2 MSTORE PUSH1 0x20 ADD SWAP1 DUP2 MSTORE PUSH1 0x20 ADD PUSH0 KECCAK256 PUSH0 PUSH2 0x100 EXP DUP2 SLOAD DUP2 PUSH1 0xFF MUL NOT AND SWAP1 DUP4 ISZERO ISZERO MUL OR SWAP1 SSTORE POP PUSH0 PUSH1 0x1 PUSH0 DUP1 DUP6 PUSH1 0x40 MLOAD PUSH2 0xF7E SWAP2 SWAP1 PUSH2 0x232F JUMP JUMPDEST SWAP1 DUP2 MSTORE PUSH1 0x20 ADD PUSH1 0x40 MLOAD DUP1 SWAP2 SUB SWAP1 KECCAK256 PUSH1 0x2 ADD PUSH0 SWAP1 SLOAD SWAP1 PUSH2 0x100 EXP SWAP1 DIV PUSH20 0xFFFFFFFFFFFFFFFFFFFFFFFFFFFFFFFFFFFFFFFF AND PUSH20 0xFFFFFFFFFFFFFFFFFFFFFFFFFFFFFFFFFFFFFFFF AND PUSH20 0xFFFFFFFFFFFFFFFFFFFFFFFFFFFFFFFFFFFFFFFF AND DUP2 MSTORE PUSH1 0x20 ADD SWAP1 DUP2 MSTORE PUSH1 0x20 ADD PUSH0 KECCAK256 PUSH0 PUSH2 0x100 EXP DUP2 SLOAD DUP2 PUSH1 0xFF MUL NOT AND SWAP1 DUP4 ISZERO ISZERO MUL OR SWAP1 SSTORE POP POP JUMPDEST POP JUMP JUMPDEST PUSH1 0x1 PUSH1 0x20 MSTORE DUP1 PUSH0 MSTORE PUSH1 0x40 PUSH0 KECCAK256 PUSH0 SWAP2 POP SLOAD SWAP1 PUSH2 0x100 EXP SWAP1 DIV PUSH1 0xFF AND DUP2 JUMP JUMPDEST PUSH0 DUP2 DUP1 MLOAD PUSH1 0x20 DUP2 ADD DUP3 ADD DUP1 MLOAD DUP5 DUP3 MSTORE PUSH1 0x20 DUP4 ADD PUSH1 0x20 DUP6 ADD KECCAK256 DUP2 DUP4 MSTORE DUP1 SWAP6 POP POP POP POP POP POP PUSH0 SWAP2 POP SWAP1 POP DUP1 PUSH0 ADD DUP1 SLOAD PUSH2 0x1056 SWAP1 PUSH2 0x2372 JUMP JUMPDEST DUP1 PUSH1 0x1F ADD PUSH1 0x20 DUP1 SWAP2 DIV MUL PUSH1 0x20 ADD PUSH1 0x40 MLOAD SWAP1 DUP2 ADD PUSH1 0x40 MSTORE DUP1 SWAP3 SWAP2 SWAP1 DUP2 DUP2 MSTORE PUSH1 0x20 ADD DUP3 DUP1 SLOAD PUSH2 0x1082 SWAP1 PUSH2 0x2372 JUMP JUMPDEST DUP1 ISZERO PUSH2 0x10CD JUMPI DUP1 PUSH1 0x1F LT PUSH2 0x10A4 JUMPI PUSH2 0x100 DUP1 DUP4 SLOAD DIV MUL DUP4 MSTORE SWAP2 PUSH1 0x20 ADD SWAP2 PUSH2 0x10CD JUMP JUMPDEST DUP3 ADD SWAP2 SWAP1 PUSH0 MSTORE PUSH1 0x20 PUSH0 KECCAK256 SWAP1 JUMPDEST DUP2 SLOAD DUP2 MSTORE SWAP1 PUSH1 0x1 ADD SWAP1 PUSH1 0x20 ADD DUP1 DUP4 GT PUSH2 0x10B0 JUMPI DUP3 SWAP1 SUB PUSH1 0x1F AND DUP3 ADD SWAP2 JUMPDEST POP POP POP POP POP SWAP1 DUP1 PUSH1 0x1 ADD PUSH0 SWAP1 SLOAD SWAP1 PUSH2 0x100 EXP SWAP1 DIV PUSH20 0xFFFFFFFFFFFFFFFFFFFFFFFFFFFFFFFFFFFFFFFF AND SWAP1 DUP1 PUSH1 0x2 ADD PUSH0 SWAP1 SLOAD SWAP1 PUSH2 0x100 EXP SWAP1 DIV PUSH20 0xFFFFFFFFFFFFFFFFFFFFFFFFFFFFFFFFFFFFFFFF AND SWAP1 DUP1 PUSH1 0x3 ADD SLOAD SWAP1 DUP1 PUSH1 0x4 ADD SLOAD SWAP1 DUP1 PUSH1 0x5 ADD SLOAD SWAP1 DUP1 PUSH1 0x6 ADD PUSH0 SWAP1 SLOAD SWAP1 PUSH2 0x100 EXP SWAP1 DIV PUSH20 0xFFFFFFFFFFFFFFFFFFFFFFFFFFFFFFFFFFFFFFFF AND SWAP1 DUP1 PUSH1 0x7 ADD PUSH0 SWAP1 SLOAD SWAP1 PUSH2 0x100 EXP SWAP1 DIV PUSH20 0xFFFFFFFFFFFFFFFFFFFFFFFFFFFFFFFFFFFFFFFF AND SWAP1 DUP1 PUSH1 0x8 ADD SLOAD SWAP1 DUP1 PUSH1 0x9 ADD SLOAD SWAP1 POP DUP11 JUMP JUMPDEST PUSH0 DUP4 DUP4 PUSH1 0x40 MLOAD PUSH1 0x20 ADD PUSH2 0x119D SWAP3 SWAP2 SWAP1 PUSH2 0x280E JUMP JUMPDEST PUSH1 0x40 MLOAD PUSH1 0x20 DUP2 DUP4 SUB SUB DUP2 MSTORE SWAP1 PUSH1 0x40 MSTORE DUP1 MLOAD SWAP1 PUSH1 0x20 ADD KECCAK256 SWAP1 POP PUSH0 PUSH20 0xFFFFFFFFFFFFFFFFFFFFFFFFFFFFFFFFFFFFFFFF AND PUSH0 DUP4 PUSH1 0x40 MLOAD PUSH2 0x11DB SWAP2 SWAP1 PUSH2 0x232F JUMP JUMPDEST SWAP1 DUP2 MSTORE PUSH1 0x20 ADD PUSH1 0x40 MLOAD DUP1 SWAP2 SUB SWAP1 KECCAK256 PUSH1 0x2 ADD PUSH0 SWAP1 SLOAD SWAP1 PUSH2 0x100 EXP SWAP1 DIV PUSH20 0xFFFFFFFFFFFFFFFFFFFFFFFFFFFFFFFFFFFFFFFF AND PUSH20 0xFFFFFFFFFFFFFFFFFFFFFFFFFFFFFFFFFFFFFFFF AND SUB PUSH2 0x1262 JUMPI PUSH1 0x40 MLOAD PUSH32 0x8C379A000000000000000000000000000000000000000000000000000000000 DUP2 MSTORE PUSH1 0x4 ADD PUSH2 0x1259 SWAP1 PUSH2 0x287B JUMP JUMPDEST PUSH1 0x40 MLOAD DUP1 SWAP2 SUB SWAP1 REVERT JUMPDEST PUSH0 DUP3 PUSH1 0x40 MLOAD PUSH2 0x1271 SWAP2 SWAP1 PUSH2 0x232F JUMP JUMPDEST SWAP1 DUP2 MSTORE PUSH1 0x20 ADD PUSH1 0x40 MLOAD DUP1 SWAP2 SUB SWAP1 KECCAK256 PUSH1 0x1 ADD PUSH0 SWAP1 SLOAD SWAP1 PUSH2 0x100 EXP SWAP1 DIV PUSH20 0xFFFFFFFFFFFFFFFFFFFFFFFFFFFFFFFFFFFFFFFF AND PUSH20 0xFFFFFFFFFFFFFFFFFFFFFFFFFFFFFFFFFFFFFFFF AND CALLER PUSH20 0xFFFFFFFFFFFFFFFFFFFFFFFFFFFFFFFFFFFFFFFF AND EQ DUP1 PUSH2 0x1345 JUMPI POP PUSH0 DUP3 PUSH1 0x40 MLOAD PUSH2 0x12E5 SWAP2 SWAP1 PUSH2 0x232F JUMP JUMPDEST SWAP1 DUP2 MSTORE PUSH1 0x20 ADD PUSH1 0x40 MLOAD DUP1 SWAP2 SUB SWAP1 KECCAK256 PUSH1 0x2 ADD PUSH0 SWAP1 SLOAD SWAP1 PUSH2 0x100 EXP SWAP1 DIV PUSH20 0xFFFFFFFFFFFFFFFFFFFFFFFFFFFFFFFFFFFFFFFF AND PUSH20 0xFFFFFFFFFFFFFFFFFFFFFFFFFFFFFFFFFFFFFFFF AND CALLER PUSH20 0xFFFFFFFFFFFFFFFFFFFFFFFFFFFFFFFFFFFFFFFF AND EQ JUMPDEST PUSH2 0x1384 JUMPI PUSH1 0x40 MLOAD PUSH32 0x8C379A000000000000000000000000000000000000000000000000000000000 DUP2 MSTORE PUSH1 0x4 ADD PUSH2 0x137B SWAP1 PUSH2 0x28E3 JUMP JUMPDEST PUSH1 0x40 MLOAD DUP1 SWAP2 SUB SWAP1 REVERT JUMPDEST PUSH0 DUP3 PUSH1 0x40 MLOAD PUSH2 0x1393 SWAP2 SWAP1 PUSH2 0x232F JUMP JUMPDEST SWAP1 DUP2 MSTORE PUSH1 0x20 ADD PUSH1 0x40 MLOAD DUP1 SWAP2 SUB SWAP1 KECCAK256 PUSH1 0x3 ADD SLOAD DUP2 EQ ISZERO DUP1 PUSH2 0x13D3 JUMPI POP PUSH0 DUP3 PUSH1 0x40 MLOAD PUSH2 0x13BD SWAP2 SWAP1 PUSH2 0x232F JUMP JUMPDEST SWAP1 DUP2 MSTORE PUSH1 0x20 ADD PUSH1 0x40 MLOAD DUP1 SWAP2 SUB SWAP1 KECCAK256 PUSH1 0x4 ADD SLOAD DUP2 EQ ISZERO JUMPDEST PUSH2 0x1412 JUMPI PUSH1 0x40 MLOAD PUSH32 0x8C379A000000000000000000000000000000000000000000000000000000000 DUP2 MSTORE PUSH1 0x4 ADD PUSH2 0x1409 SWAP1 PUSH2 0x294B JUMP JUMPDEST PUSH1 0x40 MLOAD DUP1 SWAP2 SUB SWAP1 REVERT JUMPDEST PUSH0 PUSH32 0x5200000000000000000000000000000000000000000000000000000000000000 DUP6 PUSH0 DUP2 MLOAD DUP2 LT PUSH2 0x1447 JUMPI PUSH2 0x1446 PUSH2 0x2969 JUMP JUMPDEST JUMPDEST PUSH1 0x20 ADD ADD MLOAD PUSH1 0xF8 SHR PUSH1 0xF8 SHL PUSH31 0xFFFFFFFFFFFFFFFFFFFFFFFFFFFFFFFFFFFFFFFFFFFFFFFFFFFFFFFFFFFFFF NOT AND SUB PUSH2 0x1481 JUMPI PUSH0 SWAP1 POP PUSH2 0x155D JUMP JUMPDEST PUSH32 0x5000000000000000000000000000000000000000000000000000000000000000 DUP6 PUSH0 DUP2 MLOAD DUP2 LT PUSH2 0x14B5 JUMPI PUSH2 0x14B4 PUSH2 0x2969 JUMP JUMPDEST JUMPDEST PUSH1 0x20 ADD ADD MLOAD PUSH1 0xF8 SHR PUSH1 0xF8 SHL PUSH31 0xFFFFFFFFFFFFFFFFFFFFFFFFFFFFFFFFFFFFFFFFFFFFFFFFFFFFFFFFFFFFFF NOT AND SUB PUSH2 0x14F0 JUMPI PUSH1 0x1 SWAP1 POP PUSH2 0x155C JUMP JUMPDEST PUSH32 0x5300000000000000000000000000000000000000000000000000000000000000 DUP6 PUSH0 DUP2 MLOAD DUP2 LT PUSH2 0x1524 JUMPI PUSH2 0x1523 PUSH2 0x2969 JUMP JUMPDEST JUMPDEST PUSH1 0x20 ADD ADD MLOAD PUSH1 0xF8 SHR PUSH1 0xF8 SHL PUSH31 0xFFFFFFFFFFFFFFFFFFFFFFFFFFFFFFFFFFFFFFFFFFFFFFFFFFFFFFFFFFFFFF NOT AND SUB PUSH2 0x155B JUMPI PUSH1 0x2 SWAP1 POP JUMPDEST JUMPDEST JUMPDEST PUSH0 PUSH20 0xFFFFFFFFFFFFFFFFFFFFFFFFFFFFFFFFFFFFFFFF AND PUSH0 DUP5 PUSH1 0x40 MLOAD PUSH2 0x1583 SWAP2 SWAP1 PUSH2 0x232F JUMP JUMPDEST SWAP1 DUP2 MSTORE PUSH1 0x20 ADD PUSH1 0x40 MLOAD DUP1 SWAP2 SUB SWAP1 KECCAK256 PUSH1 0x6 ADD PUSH0 SWAP1 SLOAD SWAP1 PUSH2 0x100 EXP SWAP1 DIV PUSH20 0xFFFFFFFFFFFFFFFFFFFFFFFFFFFFFFFFFFFFFFFF AND PUSH20 0xFFFFFFFFFFFFFFFFFFFFFFFFFFFFFFFFFFFFFFFF AND SUB PUSH2 0x1657 JUMPI DUP1 PUSH0 DUP5 PUSH1 0x40 MLOAD PUSH2 0x15DF SWAP2 SWAP1 PUSH2 0x232F JUMP JUMPDEST SWAP1 DUP2 MSTORE PUSH1 0x20 ADD PUSH1 0x40 MLOAD DUP1 SWAP2 SUB SWAP1 KECCAK256 PUSH1 0x5 ADD DUP2 SWAP1 SSTORE POP CALLER PUSH0 DUP5 PUSH1 0x40 MLOAD PUSH2 0x1604 SWAP2 SWAP1 PUSH2 0x232F JUMP JUMPDEST SWAP1 DUP2 MSTORE PUSH1 0x20 ADD PUSH1 0x40 MLOAD DUP1 SWAP2 SUB SWAP1 KECCAK256 PUSH1 0x6 ADD PUSH0 PUSH2 0x100 EXP DUP2 SLOAD DUP2 PUSH20 0xFFFFFFFFFFFFFFFFFFFFFFFFFFFFFFFFFFFFFFFF MUL NOT AND SWAP1 DUP4 PUSH20 0xFFFFFFFFFFFFFFFFFFFFFFFFFFFFFFFFFFFFFFFF AND MUL OR SWAP1 SSTORE POP PUSH2 0x1C52 JUMP JUMPDEST PUSH0 PUSH1 0x3 DUP3 PUSH0 DUP7 PUSH1 0x40 MLOAD PUSH2 0x166A SWAP2 SWAP1 PUSH2 0x232F JUMP JUMPDEST SWAP1 DUP2 MSTORE PUSH1 0x20 ADD PUSH1 0x40 MLOAD DUP1 SWAP2 SUB SWAP1 KECCAK256 PUSH1 0x5 ADD SLOAD PUSH2 0x1686 SWAP2 SWAP1 PUSH2 0x2996 JUMP JUMPDEST PUSH2 0x1690 SWAP2 SWAP1 PUSH2 0x29F6 JUMP JUMPDEST SWAP1 POP PUSH0 DUP2 SUB PUSH2 0x1B3E JUMPI PUSH0 DUP5 PUSH1 0x40 MLOAD PUSH2 0x16A8 SWAP2 SWAP1 PUSH2 0x232F JUMP JUMPDEST SWAP1 DUP2 MSTORE PUSH1 0x20 ADD PUSH1 0x40 MLOAD DUP1 SWAP2 SUB SWAP1 KECCAK256 PUSH1 0x1 ADD PUSH0 SWAP1 SLOAD SWAP1 PUSH2 0x100 EXP SWAP1 DIV PUSH20 0xFFFFFFFFFFFFFFFFFFFFFFFFFFFFFFFFFFFFFFFF AND PUSH20 0xFFFFFFFFFFFFFFFFFFFFFFFFFFFFFFFFFFFFFFFF AND PUSH2 0x8FC PUSH0 DUP7 PUSH1 0x40 MLOAD PUSH2 0x1701 SWAP2 SWAP1 PUSH2 0x232F JUMP JUMPDEST SWAP1 DUP2 MSTORE PUSH1 0x20 ADD PUSH1 0x40 MLOAD DUP1 SWAP2 SUB SWAP1 KECCAK256 PUSH1 0x8 ADD SLOAD SWAP1 DUP2 ISZERO MUL SWAP1 PUSH1 0x40 MLOAD PUSH0 PUSH1 0x40 MLOAD DUP1 DUP4 SUB DUP2 DUP6 DUP9 DUP9 CALL SWAP4 POP POP POP POP ISZERO DUP1 ISZERO PUSH2 0x173B JUMPI RETURNDATASIZE PUSH0 DUP1 RETURNDATACOPY RETURNDATASIZE PUSH0 REVERT JUMPDEST POP PUSH0 DUP5 PUSH1 0x40 MLOAD PUSH2 0x174B SWAP2 SWAP1 PUSH2 0x232F JUMP JUMPDEST SWAP1 DUP2 MSTORE PUSH1 0x20 ADD PUSH1 0x40 MLOAD DUP1 SWAP2 SUB SWAP1 KECCAK256 PUSH1 0x2 ADD PUSH0 SWAP1 SLOAD SWAP1 PUSH2 0x100 EXP SWAP1 DIV PUSH20 0xFFFFFFFFFFFFFFFFFFFFFFFFFFFFFFFFFFFFFFFF AND PUSH20 0xFFFFFFFFFFFFFFFFFFFFFFFFFFFFFFFFFFFFFFFF AND PUSH2 0x8FC PUSH0 DUP7 PUSH1 0x40 MLOAD PUSH2 0x17A4 SWAP2 SWAP1 PUSH2 0x232F JUMP JUMPDEST SWAP1 DUP2 MSTORE PUSH1 0x20 ADD PUSH1 0x40 MLOAD DUP1 SWAP2 SUB SWAP1 KECCAK256 PUSH1 0x8 ADD SLOAD SWAP1 DUP2 ISZERO MUL SWAP1 PUSH1 0x40 MLOAD PUSH0 PUSH1 0x40 MLOAD DUP1 DUP4 SUB DUP2 DUP6 DUP9 DUP9 CALL SWAP4 POP POP POP POP ISZERO DUP1 ISZERO PUSH2 0x17DE JUMPI RETURNDATASIZE PUSH0 DUP1 RETURNDATACOPY RETURNDATASIZE PUSH0 REVERT JUMPDEST POP PUSH1 0x40 MLOAD DUP1 PUSH2 0x140 ADD PUSH1 0x40 MSTORE DUP1 PUSH1 0x40 MLOAD DUP1 PUSH1 0x20 ADD PUSH1 0x40 MSTORE DUP1 PUSH0 DUP2 MSTORE POP DUP2 MSTORE PUSH1 0x20 ADD PUSH0 PUSH20 0xFFFFFFFFFFFFFFFFFFFFFFFFFFFFFFFFFFFFFFFF AND DUP2 MSTORE PUSH1 0x20 ADD PUSH0 PUSH20 0xFFFFFFFFFFFFFFFFFFFFFFFFFFFFFFFFFFFFFFFF AND DUP2 MSTORE PUSH1 0x20 ADD PUSH0 DUP1 SHL DUP2 MSTORE PUSH1 0x20 ADD PUSH0 DUP1 SHL DUP2 MSTORE PUSH1 0x20 ADD PUSH1 0x63 DUP2 MSTORE PUSH1 0x20 ADD PUSH0 PUSH20 0xFFFFFFFFFFFFFFFFFFFFFFFFFFFFFFFFFFFFFFFF AND DUP2 MSTORE PUSH1 0x20 ADD PUSH0 PUSH20 0xFFFFFFFFFFFFFFFFFFFFFFFFFFFFFFFFFFFFFFFF AND DUP2 MSTORE PUSH1 0x20 ADD PUSH0 DUP2 MSTORE PUSH1 0x20 ADD PUSH0 DUP2 MSTORE POP PUSH0 DUP6 PUSH1 0x40 MLOAD PUSH2 0x189F SWAP2 SWAP1 PUSH2 0x232F JUMP JUMPDEST SWAP1 DUP2 MSTORE PUSH1 0x20 ADD PUSH1 0x40 MLOAD DUP1 SWAP2 SUB SWAP1 KECCAK256 PUSH0 DUP3 ADD MLOAD DUP2 PUSH0 ADD SWAP1 DUP2 PUSH2 0x18C0 SWAP2 SWAP1 PUSH2 0x253F JUMP JUMPDEST POP PUSH1 0x20 DUP3 ADD MLOAD DUP2 PUSH1 0x1 ADD PUSH0 PUSH2 0x100 EXP DUP2 SLOAD DUP2 PUSH20 0xFFFFFFFFFFFFFFFFFFFFFFFFFFFFFFFFFFFFFFFF MUL NOT AND SWAP1 DUP4 PUSH20 0xFFFFFFFFFFFFFFFFFFFFFFFFFFFFFFFFFFFFFFFF AND MUL OR SWAP1 SSTORE POP PUSH1 0x40 DUP3 ADD MLOAD DUP2 PUSH1 0x2 ADD PUSH0 PUSH2 0x100 EXP DUP2 SLOAD DUP2 PUSH20 0xFFFFFFFFFFFFFFFFFFFFFFFFFFFFFFFFFFFFFFFF MUL NOT AND SWAP1 DUP4 PUSH20 0xFFFFFFFFFFFFFFFFFFFFFFFFFFFFFFFFFFFFFFFF AND MUL OR SWAP1 SSTORE POP PUSH1 0x60 DUP3 ADD MLOAD DUP2 PUSH1 0x3 ADD SSTORE PUSH1 0x80 DUP3 ADD MLOAD DUP2 PUSH1 0x4 ADD SSTORE PUSH1 0xA0 DUP3 ADD MLOAD DUP2 PUSH1 0x5 ADD SSTORE PUSH1 0xC0 DUP3 ADD MLOAD DUP2 PUSH1 0x6 ADD PUSH0 PUSH2 0x100 EXP DUP2 SLOAD DUP2 PUSH20 0xFFFFFFFFFFFFFFFFFFFFFFFFFFFFFFFFFFFFFFFF MUL NOT AND SWAP1 DUP4 PUSH20 0xFFFFFFFFFFFFFFFFFFFFFFFFFFFFFFFFFFFFFFFF AND MUL OR SWAP1 SSTORE POP PUSH1 0xE0 DUP3 ADD MLOAD DUP2 PUSH1 0x7 ADD PUSH0 PUSH2 0x100 EXP DUP2 SLOAD DUP2 PUSH20 0xFFFFFFFFFFFFFFFFFFFFFFFFFFFFFFFFFFFFFFFF MUL NOT AND SWAP1 DUP4 PUSH20 0xFFFFFFFFFFFFFFFFFFFFFFFFFFFFFFFFFFFFFFFF AND MUL OR SWAP1 SSTORE POP PUSH2 0x100 DUP3 ADD MLOAD DUP2 PUSH1 0x8 ADD SSTORE PUSH2 0x120 DUP3 ADD MLOAD DUP2 PUSH1 0x9 ADD SSTORE SWAP1 POP POP PUSH0 PUSH1 0x1 PUSH0 DUP1 DUP8 PUSH1 0x40 MLOAD PUSH2 0x1A23 SWAP2 SWAP1 PUSH2 0x232F JUMP JUMPDEST SWAP1 DUP2 MSTORE PUSH1 0x20 ADD PUSH1 0x40 MLOAD DUP1 SWAP2 SUB SWAP1 KECCAK256 PUSH1 0x1 ADD PUSH0 SWAP1 SLOAD SWAP1 PUSH2 0x100 EXP SWAP1 DIV PUSH20 0xFFFFFFFFFFFFFFFFFFFFFFFFFFFFFFFFFFFFFFFF AND PUSH20 0xFFFFFFFFFFFFFFFFFFFFFFFFFFFFFFFFFFFFFFFF AND PUSH20 0xFFFFFFFFFFFFFFFFFFFFFFFFFFFFFFFFFFFFFFFF AND DUP2 MSTORE PUSH1 0x20 ADD SWAP1 DUP2 MSTORE PUSH1 0x20 ADD PUSH0 KECCAK256 PUSH0 PUSH2 0x100 EXP DUP2 SLOAD DUP2 PUSH1 0xFF MUL NOT AND SWAP1 DUP4 ISZERO ISZERO MUL OR SWAP1 SSTORE POP PUSH0 PUSH1 0x1 PUSH0 DUP1 DUP8 PUSH1 0x40 MLOAD PUSH2 0x1AB6 SWAP2 SWAP1 PUSH2 0x232F JUMP JUMPDEST SWAP1 DUP2 MSTORE PUSH1 0x20 ADD PUSH1 0x40 MLOAD DUP1 SWAP2 SUB SWAP1 KECCAK256 PUSH1 0x2 ADD PUSH0 SWAP1 SLOAD SWAP1 PUSH2 0x100 EXP SWAP1 DIV PUSH20 0xFFFFFFFFFFFFFFFFFFFFFFFFFFFFFFFFFFFFFFFF AND PUSH20 0xFFFFFFFFFFFFFFFFFFFFFFFFFFFFFFFFFFFFFFFF AND PUSH20 0xFFFFFFFFFFFFFFFFFFFFFFFFFFFFFFFFFFFFFFFF AND DUP2 MSTORE PUSH1 0x20 ADD SWAP1 DUP2 MSTORE PUSH1 0x20 ADD PUSH0 KECCAK256 PUSH0 PUSH2 0x100 EXP DUP2 SLOAD DUP2 PUSH1 0xFF MUL NOT AND SWAP1 DUP4 ISZERO ISZERO MUL OR SWAP1 SSTORE POP POP POP POP PUSH2 0x1C8E JUMP JUMPDEST PUSH1 0x1 DUP2 SUB PUSH2 0x1BE8 JUMPI PUSH0 DUP5 PUSH1 0x40 MLOAD PUSH2 0x1B55 SWAP2 SWAP1 PUSH2 0x232F JUMP JUMPDEST SWAP1 DUP2 MSTORE PUSH1 0x20 ADD PUSH1 0x40 MLOAD DUP1 SWAP2 SUB SWAP1 KECCAK256 PUSH1 0x6 ADD PUSH0 SWAP1 SLOAD SWAP1 PUSH2 0x100 EXP SWAP1 DIV PUSH20 0xFFFFFFFFFFFFFFFFFFFFFFFFFFFFFFFFFFFFFFFF AND PUSH0 DUP6 PUSH1 0x40 MLOAD PUSH2 0x1B95 SWAP2 SWAP1 PUSH2 0x232F JUMP JUMPDEST SWAP1 DUP2 MSTORE PUSH1 0x20 ADD PUSH1 0x40 MLOAD DUP1 SWAP2 SUB SWAP1 KECCAK256 PUSH1 0x7 ADD PUSH0 PUSH2 0x100 EXP DUP2 SLOAD DUP2 PUSH20 0xFFFFFFFFFFFFFFFFFFFFFFFFFFFFFFFFFFFFFFFF MUL NOT AND SWAP1 DUP4 PUSH20 0xFFFFFFFFFFFFFFFFFFFFFFFFFFFFFFFFFFFFFFFF AND MUL OR SWAP1 SSTORE POP PUSH2 0x1C50 JUMP JUMPDEST PUSH1 0x2 DUP2 SUB PUSH2 0x1C4F JUMPI CALLER PUSH0 DUP6 PUSH1 0x40 MLOAD PUSH2 0x1C00 SWAP2 SWAP1 PUSH2 0x232F JUMP JUMPDEST SWAP1 DUP2 MSTORE PUSH1 0x20 ADD PUSH1 0x40 MLOAD DUP1 SWAP2 SUB SWAP1 KECCAK256 PUSH1 0x7 ADD PUSH0 PUSH2 0x100 EXP DUP2 SLOAD DUP2 PUSH20 0xFFFFFFFFFFFFFFFFFFFFFFFFFFFFFFFFFFFFFFFF MUL NOT AND SWAP1 DUP4 PUSH20 0xFFFFFFFFFFFFFFFFFFFFFFFFFFFFFFFFFFFFFFFF AND MUL OR SWAP1 SSTORE POP JUMPDEST JUMPDEST POP JUMPDEST PUSH32 0x396ABA985C9DFF270BB71A0E3B5EC32EABD9983ED6A9C8F69D861D1A0B92C1AF CALLER DUP7 PUSH1 0x40 MLOAD PUSH2 0x1C83 SWAP3 SWAP2 SWAP1 PUSH2 0x2A26 JUMP JUMPDEST PUSH1 0x40 MLOAD DUP1 SWAP2 SUB SWAP1 LOG1 POP POP JUMPDEST POP POP POP JUMP JUMPDEST PUSH0 DUP3 DUP3 PUSH1 0x40 MLOAD PUSH1 0x20 ADD PUSH2 0x1CA7 SWAP3 SWAP2 SWAP1 PUSH2 0x280E JUMP JUMPDEST PUSH1 0x40 MLOAD PUSH1 0x20 DUP2 DUP4 SUB SUB DUP2 MSTORE SWAP1 PUSH1 0x40 MSTORE DUP1 MLOAD SWAP1 PUSH1 0x20 ADD KECCAK256 SWAP1 POP PUSH32 0x2239AD6AAB0CCF4F1A983F3ADE7EE9767EDE5427D5984FEA19F91304A6994FD4 DUP2 PUSH1 0x40 MLOAD PUSH2 0x1CEE SWAP2 SWAP1 PUSH2 0x2A9E JUMP JUMPDEST PUSH1 0x40 MLOAD DUP1 SWAP2 SUB SWAP1 LOG1 POP POP POP JUMP JUMPDEST PUSH0 PUSH1 0x40 MLOAD SWAP1 POP SWAP1 JUMP JUMPDEST PUSH0 DUP1 REVERT JUMPDEST PUSH0 DUP1 REVERT JUMPDEST PUSH0 DUP2 SWAP1 POP SWAP2 SWAP1 POP JUMP JUMPDEST PUSH2 0x1D1E DUP2 PUSH2 0x1D0C JUMP JUMPDEST DUP2 EQ PUSH2 0x1D28 JUMPI PUSH0 DUP1 REVERT JUMPDEST POP JUMP JUMPDEST PUSH0 DUP2 CALLDATALOAD SWAP1 POP PUSH2 0x1D39 DUP2 PUSH2 0x1D15 JUMP JUMPDEST SWAP3 SWAP2 POP POP JUMP JUMPDEST PUSH0 DUP1 REVERT JUMPDEST PUSH0 DUP1 REVERT JUMPDEST PUSH0 PUSH1 0x1F NOT PUSH1 0x1F DUP4 ADD AND SWAP1 POP SWAP2 SWAP1 POP JUMP JUMPDEST PUSH32 0x4E487B7100000000000000000000000000000000000000000000000000000000 PUSH0 MSTORE PUSH1 0x41 PUSH1 0x4 MSTORE PUSH1 0x24 PUSH0 REVERT JUMPDEST PUSH2 0x1D8D DUP3 PUSH2 0x1D47 JUMP JUMPDEST DUP2 ADD DUP2 DUP2 LT PUSH8 0xFFFFFFFFFFFFFFFF DUP3 GT OR ISZERO PUSH2 0x1DAC JUMPI PUSH2 0x1DAB PUSH2 0x1D57 JUMP JUMPDEST JUMPDEST DUP1 PUSH1 0x40 MSTORE POP POP POP JUMP JUMPDEST PUSH0 PUSH2 0x1DBE PUSH2 0x1CFB JUMP JUMPDEST SWAP1 POP PUSH2 0x1DCA DUP3 DUP3 PUSH2 0x1D84 JUMP JUMPDEST SWAP2 SWAP1 POP JUMP JUMPDEST PUSH0 PUSH8 0xFFFFFFFFFFFFFFFF DUP3 GT ISZERO PUSH2 0x1DE9 JUMPI PUSH2 0x1DE8 PUSH2 0x1D57 JUMP JUMPDEST JUMPDEST PUSH2 0x1DF2 DUP3 PUSH2 0x1D47 JUMP JUMPDEST SWAP1 POP PUSH1 0x20 DUP2 ADD SWAP1 POP SWAP2 SWAP1 POP JUMP JUMPDEST DUP3 DUP2 DUP4 CALLDATACOPY PUSH0 DUP4 DUP4 ADD MSTORE POP POP POP JUMP JUMPDEST PUSH0 PUSH2 0x1E1F PUSH2 0x1E1A DUP5 PUSH2 0x1DCF JUMP JUMPDEST PUSH2 0x1DB5 JUMP JUMPDEST SWAP1 POP DUP3 DUP2 MSTORE PUSH1 0x20 DUP2 ADD DUP5 DUP5 DUP5 ADD GT ISZERO PUSH2 0x1E3B JUMPI PUSH2 0x1E3A PUSH2 0x1D43 JUMP JUMPDEST JUMPDEST PUSH2 0x1E46 DUP5 DUP3 DUP6 PUSH2 0x1DFF JUMP JUMPDEST POP SWAP4 SWAP3 POP POP POP JUMP JUMPDEST PUSH0 DUP3 PUSH1 0x1F DUP4 ADD SLT PUSH2 0x1E62 JUMPI PUSH2 0x1E61 PUSH2 0x1D3F JUMP JUMPDEST JUMPDEST DUP2 CALLDATALOAD PUSH2 0x1E72 DUP5 DUP3 PUSH1 0x20 DUP7 ADD PUSH2 0x1E0D JUMP JUMPDEST SWAP2 POP POP SWAP3 SWAP2 POP POP JUMP JUMPDEST PUSH0 DUP1 PUSH1 0x40 DUP4 DUP6 SUB SLT ISZERO PUSH2 0x1E91 JUMPI PUSH2 0x1E90 PUSH2 0x1D04 JUMP JUMPDEST JUMPDEST PUSH0 PUSH2 0x1E9E DUP6 DUP3 DUP7 ADD PUSH2 0x1D2B JUMP JUMPDEST SWAP3 POP POP PUSH1 0x20 DUP4 ADD CALLDATALOAD PUSH8 0xFFFFFFFFFFFFFFFF DUP2 GT ISZERO PUSH2 0x1EBF JUMPI PUSH2 0x1EBE PUSH2 0x1D08 JUMP JUMPDEST JUMPDEST PUSH2 0x1ECB DUP6 DUP3 DUP7 ADD PUSH2 0x1E4E JUMP JUMPDEST SWAP2 POP POP SWAP3 POP SWAP3 SWAP1 POP JUMP JUMPDEST PUSH0 PUSH1 0x20 DUP3 DUP5 SUB SLT ISZERO PUSH2 0x1EEA JUMPI PUSH2 0x1EE9 PUSH2 0x1D04 JUMP JUMPDEST JUMPDEST PUSH0 DUP3 ADD CALLDATALOAD PUSH8 0xFFFFFFFFFFFFFFFF DUP2 GT ISZERO PUSH2 0x1F07 JUMPI PUSH2 0x1F06 PUSH2 0x1D08 JUMP JUMPDEST JUMPDEST PUSH2 0x1F13 DUP5 DUP3 DUP6 ADD PUSH2 0x1E4E JUMP JUMPDEST SWAP2 POP POP SWAP3 SWAP2 POP POP JUMP JUMPDEST PUSH0 PUSH20 0xFFFFFFFFFFFFFFFFFFFFFFFFFFFFFFFFFFFFFFFF DUP3 AND SWAP1 POP SWAP2 SWAP1 POP JUMP JUMPDEST PUSH0 PUSH2 0x1F45 DUP3 PUSH2 0x1F1C JUMP JUMPDEST SWAP1 POP SWAP2 SWAP1 POP JUMP JUMPDEST PUSH2 0x1F55 DUP2 PUSH2 0x1F3B JUMP JUMPDEST DUP2 EQ PUSH2 0x1F5F JUMPI PUSH0 DUP1 REVERT JUMPDEST POP JUMP JUMPDEST PUSH0 DUP2 CALLDATALOAD SWAP1 POP PUSH2 0x1F70 DUP2 PUSH2 0x1F4C JUMP JUMPDEST SWAP3 SWAP2 POP POP JUMP JUMPDEST PUSH0 PUSH1 0x20 DUP3 DUP5 SUB SLT ISZERO PUSH2 0x1F8B JUMPI PUSH2 0x1F8A PUSH2 0x1D04 JUMP JUMPDEST JUMPDEST PUSH0 PUSH2 0x1F98 DUP5 DUP3 DUP6 ADD PUSH2 0x1F62 JUMP JUMPDEST SWAP2 POP POP SWAP3 SWAP2 POP POP JUMP JUMPDEST PUSH0 DUP2 ISZERO ISZERO SWAP1 POP SWAP2 SWAP1 POP JUMP JUMPDEST PUSH2 0x1FB5 DUP2 PUSH2 0x1FA1 JUMP JUMPDEST DUP3 MSTORE POP POP JUMP JUMPDEST PUSH0 PUSH1 0x20 DUP3 ADD SWAP1 POP PUSH2 0x1FCE PUSH0 DUP4 ADD DUP5 PUSH2 0x1FAC JUMP JUMPDEST SWAP3 SWAP2 POP POP JUMP JUMPDEST PUSH0 DUP2 MLOAD SWAP1 POP SWAP2 SWAP1 POP JUMP JUMPDEST PUSH0 DUP3 DUP3 MSTORE PUSH1 0x20 DUP3 ADD SWAP1 POP SWAP3 SWAP2 POP POP JUMP JUMPDEST DUP3 DUP2 DUP4 MCOPY PUSH0 DUP4 DUP4 ADD MSTORE POP POP POP JUMP JUMPDEST PUSH0 PUSH2 0x2006 DUP3 PUSH2 0x1FD4 JUMP JUMPDEST PUSH2 0x2010 DUP2 DUP6 PUSH2 0x1FDE JUMP JUMPDEST SWAP4 POP PUSH2 0x2020 DUP2 DUP6 PUSH1 0x20 DUP7 ADD PUSH2 0x1FEE JUMP JUMPDEST PUSH2 0x2029 DUP2 PUSH2 0x1D47 JUMP JUMPDEST DUP5 ADD SWAP2 POP POP SWAP3 SWAP2 POP POP JUMP JUMPDEST PUSH2 0x203D DUP2 PUSH2 0x1F3B JUMP JUMPDEST DUP3 MSTORE POP POP JUMP JUMPDEST PUSH2 0x204C DUP2 PUSH2 0x1D0C JUMP JUMPDEST DUP3 MSTORE POP POP JUMP JUMPDEST PUSH0 DUP2 SWAP1 POP SWAP2 SWAP1 POP JUMP JUMPDEST PUSH2 0x2064 DUP2 PUSH2 0x2052 JUMP JUMPDEST DUP3 MSTORE POP POP JUMP JUMPDEST PUSH0 PUSH2 0x140 DUP3 ADD SWAP1 POP DUP2 DUP2 SUB PUSH0 DUP4 ADD MSTORE PUSH2 0x2083 DUP2 DUP14 PUSH2 0x1FFC JUMP JUMPDEST SWAP1 POP PUSH2 0x2092 PUSH1 0x20 DUP4 ADD DUP13 PUSH2 0x2034 JUMP JUMPDEST PUSH2 0x209F PUSH1 0x40 DUP4 ADD DUP12 PUSH2 0x2034 JUMP JUMPDEST PUSH2 0x20AC PUSH1 0x60 DUP4 ADD DUP11 PUSH2 0x2043 JUMP JUMPDEST PUSH2 0x20B9 PUSH1 0x80 DUP4 ADD DUP10 PUSH2 0x2043 JUMP JUMPDEST PUSH2 0x20C6 PUSH1 0xA0 DUP4 ADD DUP9 PUSH2 0x205B JUMP JUMPDEST PUSH2 0x20D3 PUSH1 0xC0 DUP4 ADD DUP8 PUSH2 0x2034 JUMP JUMPDEST PUSH2 0x20E0 PUSH1 0xE0 DUP4 ADD DUP7 PUSH2 0x2034 JUMP JUMPDEST PUSH2 0x20EE PUSH2 0x100 DUP4 ADD DUP6 PUSH2 0x205B JUMP JUMPDEST PUSH2 0x20FC PUSH2 0x120 DUP4 ADD DUP5 PUSH2 0x205B JUMP JUMPDEST SWAP12 SWAP11 POP POP POP POP POP POP POP POP POP POP POP JUMP JUMPDEST PUSH0 DUP1 PUSH0 PUSH1 0x60 DUP5 DUP7 SUB SLT ISZERO PUSH2 0x2122 JUMPI PUSH2 0x2121 PUSH2 0x1D04 JUMP JUMPDEST JUMPDEST PUSH0 DUP5 ADD CALLDATALOAD PUSH8 0xFFFFFFFFFFFFFFFF DUP2 GT ISZERO PUSH2 0x213F JUMPI PUSH2 0x213E PUSH2 0x1D08 JUMP JUMPDEST JUMPDEST PUSH2 0x214B DUP7 DUP3 DUP8 ADD PUSH2 0x1E4E JUMP JUMPDEST SWAP4 POP POP PUSH1 0x20 DUP5 ADD CALLDATALOAD PUSH8 0xFFFFFFFFFFFFFFFF DUP2 GT ISZERO PUSH2 0x216C JUMPI PUSH2 0x216B PUSH2 0x1D08 JUMP JUMPDEST JUMPDEST PUSH2 0x2178 DUP7 DUP3 DUP8 ADD PUSH2 0x1E4E JUMP JUMPDEST SWAP3 POP POP PUSH1 0x40 DUP5 ADD CALLDATALOAD PUSH8 0xFFFFFFFFFFFFFFFF DUP2 GT ISZERO PUSH2 0x2199 JUMPI PUSH2 0x2198 PUSH2 0x1D08 JUMP JUMPDEST JUMPDEST PUSH2 0x21A5 DUP7 DUP3 DUP8 ADD PUSH2 0x1E4E JUMP JUMPDEST SWAP2 POP POP SWAP3 POP SWAP3 POP SWAP3 JUMP JUMPDEST PUSH0 DUP1 PUSH1 0x40 DUP4 DUP6 SUB SLT ISZERO PUSH2 0x21C5 JUMPI PUSH2 0x21C4 PUSH2 0x1D04 JUMP JUMPDEST JUMPDEST PUSH0 DUP4 ADD CALLDATALOAD PUSH8 0xFFFFFFFFFFFFFFFF DUP2 GT ISZERO PUSH2 0x21E2 JUMPI PUSH2 0x21E1 PUSH2 0x1D08 JUMP JUMPDEST JUMPDEST PUSH2 0x21EE DUP6 DUP3 DUP7 ADD PUSH2 0x1E4E JUMP JUMPDEST SWAP3 POP POP PUSH1 0x20 DUP4 ADD CALLDATALOAD PUSH8 0xFFFFFFFFFFFFFFFF DUP2 GT ISZERO PUSH2 0x220F JUMPI PUSH2 0x220E PUSH2 0x1D08 JUMP JUMPDEST JUMPDEST PUSH2 0x221B DUP6 DUP3 DUP7 ADD PUSH2 0x1E4E JUMP JUMPDEST SWAP2 POP POP SWAP3 POP SWAP3 SWAP1 POP JUMP JUMPDEST PUSH32 0x596F752061726520616C726561647920696E20612067616D6500000000000000 PUSH0 DUP3 ADD MSTORE POP JUMP JUMPDEST PUSH0 PUSH2 0x2259 PUSH1 0x19 DUP4 PUSH2 0x1FDE JUMP JUMPDEST SWAP2 POP PUSH2 0x2264 DUP3 PUSH2 0x2225 JUMP JUMPDEST PUSH1 0x20 DUP3 ADD SWAP1 POP SWAP2 SWAP1 POP JUMP JUMPDEST PUSH0 PUSH1 0x20 DUP3 ADD SWAP1 POP DUP2 DUP2 SUB PUSH0 DUP4 ADD MSTORE PUSH2 0x2286 DUP2 PUSH2 0x224D JUMP JUMPDEST SWAP1 POP SWAP2 SWAP1 POP JUMP JUMPDEST PUSH32 0x5374616B6520746F6F206C6F7700000000000000000000000000000000000000 PUSH0 DUP3 ADD MSTORE POP JUMP JUMPDEST PUSH0 PUSH2 0x22C1 PUSH1 0xD DUP4 PUSH2 0x1FDE JUMP JUMPDEST SWAP2 POP PUSH2 0x22CC DUP3 PUSH2 0x228D JUMP JUMPDEST PUSH1 0x20 DUP3 ADD SWAP1 POP SWAP2 SWAP1 POP JUMP JUMPDEST PUSH0 PUSH1 0x20 DUP3 ADD SWAP1 POP DUP2 DUP2 SUB PUSH0 DUP4 ADD MSTORE PUSH2 0x22EE DUP2 PUSH2 0x22B5 JUMP JUMPDEST SWAP1 POP SWAP2 SWAP1 POP JUMP JUMPDEST PUSH0 DUP2 SWAP1 POP SWAP3 SWAP2 POP POP JUMP JUMPDEST PUSH0 PUSH2 0x2309 DUP3 PUSH2 0x1FD4 JUMP JUMPDEST PUSH2 0x2313 DUP2 DUP6 PUSH2 0x22F5 JUMP JUMPDEST SWAP4 POP PUSH2 0x2323 DUP2 DUP6 PUSH1 0x20 DUP7 ADD PUSH2 0x1FEE JUMP JUMPDEST DUP1 DUP5 ADD SWAP2 POP POP SWAP3 SWAP2 POP POP JUMP JUMPDEST PUSH0 PUSH2 0x233A DUP3 DUP5 PUSH2 0x22FF JUMP JUMPDEST SWAP2 POP DUP2 SWAP1 POP SWAP3 SWAP2 POP POP JUMP JUMPDEST PUSH32 0x4E487B7100000000000000000000000000000000000000000000000000000000 PUSH0 MSTORE PUSH1 0x22 PUSH1 0x4 MSTORE PUSH1 0x24 PUSH0 REVERT JUMPDEST PUSH0 PUSH1 0x2 DUP3 DIV SWAP1 POP PUSH1 0x1 DUP3 AND DUP1 PUSH2 0x2389 JUMPI PUSH1 0x7F DUP3 AND SWAP2 POP JUMPDEST PUSH1 0x20 DUP3 LT DUP2 SUB PUSH2 0x239C JUMPI PUSH2 0x239B PUSH2 0x2345 JUMP JUMPDEST JUMPDEST POP SWAP2 SWAP1 POP JUMP JUMPDEST PUSH0 DUP2 SWAP1 POP DUP2 PUSH0 MSTORE PUSH1 0x20 PUSH0 KECCAK256 SWAP1 POP SWAP2 SWAP1 POP JUMP JUMPDEST PUSH0 PUSH1 0x20 PUSH1 0x1F DUP4 ADD DIV SWAP1 POP SWAP2 SWAP1 POP JUMP JUMPDEST PUSH0 DUP3 DUP3 SHL SWAP1 POP SWAP3 SWAP2 POP POP JUMP JUMPDEST PUSH0 PUSH1 0x8 DUP4 MUL PUSH2 0x23FE PUSH32 0xFFFFFFFFFFFFFFFFFFFFFFFFFFFFFFFFFFFFFFFFFFFFFFFFFFFFFFFFFFFFFFFF DUP3 PUSH2 0x23C3 JUMP JUMPDEST PUSH2 0x2408 DUP7 DUP4 PUSH2 0x23C3 JUMP JUMPDEST SWAP6 POP DUP1 NOT DUP5 AND SWAP4 POP DUP1 DUP7 AND DUP5 OR SWAP3 POP POP POP SWAP4 SWAP3 POP POP POP JUMP JUMPDEST PUSH0 DUP2 SWAP1 POP SWAP2 SWAP1 POP JUMP JUMPDEST PUSH0 PUSH2 0x2443 PUSH2 0x243E PUSH2 0x2439 DUP5 PUSH2 0x2052 JUMP JUMPDEST PUSH2 0x2420 JUMP JUMPDEST PUSH2 0x2052 JUMP JUMPDEST SWAP1 POP SWAP2 SWAP1 POP JUMP JUMPDEST PUSH0 DUP2 SWAP1 POP SWAP2 SWAP1 POP JUMP JUMPDEST PUSH2 0x245C DUP4 PUSH2 0x2429 JUMP JUMPDEST PUSH2 0x2470 PUSH2 0x2468 DUP3 PUSH2 0x244A JUMP JUMPDEST DUP5 DUP5 SLOAD PUSH2 0x23CF JUMP JUMPDEST DUP3 SSTORE POP POP POP POP JUMP JUMPDEST PUSH0 SWAP1 JUMP JUMPDEST PUSH2 0x2484 PUSH2 0x2478 JUMP JUMPDEST PUSH2 0x248F DUP2 DUP5 DUP5 PUSH2 0x2453 JUMP JUMPDEST POP POP POP JUMP JUMPDEST JUMPDEST DUP2 DUP2 LT ISZERO PUSH2 0x24B2 JUMPI PUSH2 0x24A7 PUSH0 DUP3 PUSH2 0x247C JUMP JUMPDEST PUSH1 0x1 DUP2 ADD SWAP1 POP PUSH2 0x2495 JUMP JUMPDEST POP POP JUMP JUMPDEST PUSH1 0x1F DUP3 GT ISZERO PUSH2 0x24F7 JUMPI PUSH2 0x24C8 DUP2 PUSH2 0x23A2 JUMP JUMPDEST PUSH2 0x24D1 DUP5 PUSH2 0x23B4 JUMP JUMPDEST DUP2 ADD PUSH1 0x20 DUP6 LT ISZERO PUSH2 0x24E0 JUMPI DUP2 SWAP1 POP JUMPDEST PUSH2 0x24F4 PUSH2 0x24EC DUP6 PUSH2 0x23B4 JUMP JUMPDEST DUP4 ADD DUP3 PUSH2 0x2494 JUMP JUMPDEST POP POP JUMPDEST POP POP POP JUMP JUMPDEST PUSH0 DUP3 DUP3 SHR SWAP1 POP SWAP3 SWAP2 POP POP JUMP JUMPDEST PUSH0 PUSH2 0x2517 PUSH0 NOT DUP5 PUSH1 0x8 MUL PUSH2 0x24FC JUMP JUMPDEST NOT DUP1 DUP4 AND SWAP2 POP POP SWAP3 SWAP2 POP POP JUMP JUMPDEST PUSH0 PUSH2 0x252F DUP4 DUP4 PUSH2 0x2508 JUMP JUMPDEST SWAP2 POP DUP3 PUSH1 0x2 MUL DUP3 OR SWAP1 POP SWAP3 SWAP2 POP POP JUMP JUMPDEST PUSH2 0x2548 DUP3 PUSH2 0x1FD4 JUMP JUMPDEST PUSH8 0xFFFFFFFFFFFFFFFF DUP2 GT ISZERO PUSH2 0x2561 JUMPI PUSH2 0x2560 PUSH2 0x1D57 JUMP JUMPDEST JUMPDEST PUSH2 0x256B DUP3 SLOAD PUSH2 0x2372 JUMP JUMPDEST PUSH2 0x2576 DUP3 DUP3 DUP6 PUSH2 0x24B6 JUMP JUMPDEST PUSH0 PUSH1 0x20 SWAP1 POP PUSH1 0x1F DUP4 GT PUSH1 0x1 DUP2 EQ PUSH2 0x25A7 JUMPI PUSH0 DUP5 ISZERO PUSH2 0x2595 JUMPI DUP3 DUP8 ADD MLOAD SWAP1 POP JUMPDEST PUSH2 0x259F DUP6 DUP3 PUSH2 0x2524 JUMP JUMPDEST DUP7 SSTORE POP PUSH2 0x2606 JUMP JUMPDEST PUSH1 0x1F NOT DUP5 AND PUSH2 0x25B5 DUP7 PUSH2 0x23A2 JUMP JUMPDEST PUSH0 JUMPDEST DUP3 DUP2 LT ISZERO PUSH2 0x25DC JUMPI DUP5 DUP10 ADD MLOAD DUP3 SSTORE PUSH1 0x1 DUP3 ADD SWAP2 POP PUSH1 0x20 DUP6 ADD SWAP5 POP PUSH1 0x20 DUP2 ADD SWAP1 POP PUSH2 0x25B7 JUMP JUMPDEST DUP7 DUP4 LT ISZERO PUSH2 0x25F9 JUMPI DUP5 DUP10 ADD MLOAD PUSH2 0x25F5 PUSH1 0x1F DUP10 AND DUP3 PUSH2 0x2508 JUMP JUMPDEST DUP4 SSTORE POP JUMPDEST PUSH1 0x1 PUSH1 0x2 DUP9 MUL ADD DUP9 SSTORE POP POP POP JUMPDEST POP POP POP POP POP POP JUMP JUMPDEST PUSH32 0x57726F6E67207374616B65000000000000000000000000000000000000000000 PUSH0 DUP3 ADD MSTORE POP JUMP JUMPDEST PUSH0 PUSH2 0x2642 PUSH1 0xB DUP4 PUSH2 0x1FDE JUMP JUMPDEST SWAP2 POP PUSH2 0x264D DUP3 PUSH2 0x260E JUMP JUMPDEST PUSH1 0x20 DUP3 ADD SWAP1 POP SWAP2 SWAP1 POP JUMP JUMPDEST PUSH0 PUSH1 0x20 DUP3 ADD SWAP1 POP DUP2 DUP2 SUB PUSH0 DUP4 ADD MSTORE PUSH2 0x266F DUP2 PUSH2 0x2636 JUMP JUMPDEST SWAP1 POP SWAP2 SWAP1 POP JUMP JUMPDEST PUSH32 0x47616D652066756C6C0000000000000000000000000000000000000000000000 PUSH0 DUP3 ADD MSTORE POP JUMP JUMPDEST PUSH0 PUSH2 0x26AA PUSH1 0x9 DUP4 PUSH2 0x1FDE JUMP JUMPDEST SWAP2 POP PUSH2 0x26B5 DUP3 PUSH2 0x2676 JUMP JUMPDEST PUSH1 0x20 DUP3 ADD SWAP1 POP SWAP2 SWAP1 POP JUMP JUMPDEST PUSH0 PUSH1 0x20 DUP3 ADD SWAP1 POP DUP2 DUP2 SUB PUSH0 DUP4 ADD MSTORE PUSH2 0x26D7 DUP2 PUSH2 0x269E JUMP JUMPDEST SWAP1 POP SWAP2 SWAP1 POP JUMP JUMPDEST PUSH0 PUSH1 0x40 DUP3 ADD SWAP1 POP PUSH2 0x26F1 PUSH0 DUP4 ADD DUP6 PUSH2 0x2034 JUMP JUMPDEST PUSH2 0x26FE PUSH1 0x20 DUP4 ADD DUP5 PUSH2 0x2043 JUMP JUMPDEST SWAP4 SWAP3 POP POP POP JUMP JUMPDEST PUSH32 0x4E487B7100000000000000000000000000000000000000000000000000000000 PUSH0 MSTORE PUSH1 0x11 PUSH1 0x4 MSTORE PUSH1 0x24 PUSH0 REVERT JUMPDEST PUSH0 PUSH2 0x273C DUP3 PUSH2 0x2052 JUMP JUMPDEST SWAP2 POP PUSH2 0x2747 DUP4 PUSH2 0x2052 JUMP JUMPDEST SWAP3 POP DUP3 DUP3 ADD SWAP1 POP DUP1 DUP3 GT ISZERO PUSH2 0x275F JUMPI PUSH2 0x275E PUSH2 0x2705 JUMP JUMPDEST JUMPDEST SWAP3 SWAP2 POP POP JUMP JUMPDEST PUSH0 PUSH2 0x276F DUP3 PUSH2 0x2052 JUMP JUMPDEST SWAP2 POP PUSH2 0x277A DUP4 PUSH2 0x2052 JUMP JUMPDEST SWAP3 POP DUP3 DUP3 MUL PUSH2 0x2788 DUP2 PUSH2 0x2052 JUMP JUMPDEST SWAP2 POP DUP3 DUP3 DIV DUP5 EQ DUP4 ISZERO OR PUSH2 0x279F JUMPI PUSH2 0x279E PUSH2 0x2705 JUMP JUMPDEST JUMPDEST POP SWAP3 SWAP2 POP POP JUMP JUMPDEST PUSH32 0x596F7520646964206E6F742077696E20746861742067616D6520287965742921 PUSH0 DUP3 ADD MSTORE POP JUMP JUMPDEST PUSH0 PUSH2 0x27DA PUSH1 0x20 DUP4 PUSH2 0x1FDE JUMP JUMPDEST SWAP2 POP PUSH2 0x27E5 DUP3 PUSH2 0x27A6 JUMP JUMPDEST PUSH1 0x20 DUP3 ADD SWAP1 POP SWAP2 SWAP1 POP JUMP JUMPDEST PUSH0 PUSH1 0x20 DUP3 ADD SWAP1 POP DUP2 DUP2 SUB PUSH0 DUP4 ADD MSTORE PUSH2 0x2807 DUP2 PUSH2 0x27CE JUMP JUMPDEST SWAP1 POP SWAP2 SWAP1 POP JUMP JUMPDEST PUSH0 PUSH2 0x2819 DUP3 DUP6 PUSH2 0x22FF JUMP JUMPDEST SWAP2 POP PUSH2 0x2825 DUP3 DUP5 PUSH2 0x22FF JUMP JUMPDEST SWAP2 POP DUP2 SWAP1 POP SWAP4 SWAP3 POP POP POP JUMP JUMPDEST PUSH32 0x506C617965722032206E6F74206A6F696E6564207965742E0000000000000000 PUSH0 DUP3 ADD MSTORE POP JUMP JUMPDEST PUSH0 PUSH2 0x2865 PUSH1 0x18 DUP4 PUSH2 0x1FDE JUMP JUMPDEST SWAP2 POP PUSH2 0x2870 DUP3 PUSH2 0x2831 JUMP JUMPDEST PUSH1 0x20 DUP3 ADD SWAP1 POP SWAP2 SWAP1 POP JUMP JUMPDEST PUSH0 PUSH1 0x20 DUP3 ADD SWAP1 POP DUP2 DUP2 SUB PUSH0 DUP4 ADD MSTORE PUSH2 0x2892 DUP2 PUSH2 0x2859 JUMP JUMPDEST SWAP1 POP SWAP2 SWAP1 POP JUMP JUMPDEST PUSH32 0x596F7520617265206E6F7420612070617274206F6620746869732067616D652E PUSH0 DUP3 ADD MSTORE POP JUMP JUMPDEST PUSH0 PUSH2 0x28CD PUSH1 0x20 DUP4 PUSH2 0x1FDE JUMP JUMPDEST SWAP2 POP PUSH2 0x28D8 DUP3 PUSH2 0x2899 JUMP JUMPDEST PUSH1 0x20 DUP3 ADD SWAP1 POP SWAP2 SWAP1 POP JUMP JUMPDEST PUSH0 PUSH1 0x20 DUP3 ADD SWAP1 POP DUP2 DUP2 SUB PUSH0 DUP4 ADD MSTORE PUSH2 0x28FA DUP2 PUSH2 0x28C1 JUMP JUMPDEST SWAP1 POP SWAP2 SWAP1 POP JUMP JUMPDEST PUSH32 0x57726F6E6720766F74652F73616C742E00000000000000000000000000000000 PUSH0 DUP3 ADD MSTORE POP JUMP JUMPDEST PUSH0 PUSH2 0x2935 PUSH1 0x10 DUP4 PUSH2 0x1FDE JUMP JUMPDEST SWAP2 POP PUSH2 0x2940 DUP3 PUSH2 0x2901 JUMP JUMPDEST PUSH1 0x20 DUP3 ADD SWAP1 POP SWAP2 SWAP1 POP JUMP JUMPDEST PUSH0 PUSH1 0x20 DUP3 ADD SWAP1 POP DUP2 DUP2 SUB PUSH0 DUP4 ADD MSTORE PUSH2 0x2962 DUP2 PUSH2 0x2929 JUMP JUMPDEST SWAP1 POP SWAP2 SWAP1 POP JUMP JUMPDEST PUSH32 0x4E487B7100000000000000000000000000000000000000000000000000000000 PUSH0 MSTORE PUSH1 0x32 PUSH1 0x4 MSTORE PUSH1 0x24 PUSH0 REVERT JUMPDEST PUSH0 PUSH2 0x29A0 DUP3 PUSH2 0x2052 JUMP JUMPDEST SWAP2 POP PUSH2 0x29AB DUP4 PUSH2 0x2052 JUMP JUMPDEST SWAP3 POP DUP3 DUP3 SUB SWAP1 POP DUP2 DUP2 GT ISZERO PUSH2 0x29C3 JUMPI PUSH2 0x29C2 PUSH2 0x2705 JUMP JUMPDEST JUMPDEST SWAP3 SWAP2 POP POP JUMP JUMPDEST PUSH32 0x4E487B7100000000000000000000000000000000000000000000000000000000 PUSH0 MSTORE PUSH1 0x12 PUSH1 0x4 MSTORE PUSH1 0x24 PUSH0 REVERT JUMPDEST PUSH0 PUSH2 0x2A00 DUP3 PUSH2 0x2052 JUMP JUMPDEST SWAP2 POP PUSH2 0x2A0B DUP4 PUSH2 0x2052 JUMP JUMPDEST SWAP3 POP DUP3 PUSH2 0x2A1B JUMPI PUSH2 0x2A1A PUSH2 0x29C9 JUMP JUMPDEST JUMPDEST DUP3 DUP3 MOD SWAP1 POP SWAP3 SWAP2 POP POP JUMP JUMPDEST PUSH0 PUSH1 0x40 DUP3 ADD SWAP1 POP PUSH2 0x2A39 PUSH0 DUP4 ADD DUP6 PUSH2 0x2034 JUMP JUMPDEST DUP2 DUP2 SUB PUSH1 0x20 DUP4 ADD MSTORE PUSH2 0x2A4B DUP2 DUP5 PUSH2 0x1FFC JUMP JUMPDEST SWAP1 POP SWAP4 SWAP3 POP POP POP JUMP JUMPDEST PUSH32 0x736F6D657468696E676865726500000000000000000000000000000000000000 PUSH0 DUP3 ADD MSTORE POP JUMP JUMPDEST PUSH0 PUSH2 0x2A88 PUSH1 0xD DUP4 PUSH2 0x1FDE JUMP JUMPDEST SWAP2 POP PUSH2 0x2A93 DUP3 PUSH2 0x2A54 JUMP JUMPDEST PUSH1 0x20 DUP3 ADD SWAP1 POP SWAP2 SWAP1 POP JUMP JUMPDEST PUSH0 PUSH1 0x40 DUP3 ADD SWAP1 POP PUSH2 0x2AB1 PUSH0 DUP4 ADD DUP5 PUSH2 0x2043 JUMP JUMPDEST DUP2 DUP2 SUB PUSH1 0x20 DUP4 ADD MSTORE PUSH2 0x2AC2 DUP2 PUSH2 0x2A7C JUMP JUMPDEST SWAP1 POP SWAP3 SWAP2 POP POP JUMP INVALID LOG2 PUSH5 0x6970667358 0x22 SLT KECCAK256 0x23 0x21 0x27 0xD3 0xB9 0xBF 0xE7 LT 0xBE PUSH0 JUMPDEST 0xCE 0xE0 TSTORE 0x1F 0xBA 0x21 DUP16 SWAP7 0x2A TSTORE 0xB2 SWAP13 DUP10 0xF EXP 0xD7 EXTCODEHASH PUSH25 0xE4E72C64736F6C634300081A00330000000000000000000000 "
				},
				"gasEstimates": {
					"creation": {
						"codeDepositCost": "2201600",
						"executionCost": "24450",
						"totalCost": "2226050"
					},
					"external": {
						"activeGames(string)": "infinite",
						"hashThis(string,string)": "infinite",
						"isInGame(address)": "2855",
						"play(bytes32,string)": "infinite",
						"reveal(string,string,string)": "infinite",
						"withdraw(string)": "infinite"
					}
				},
				"methodIdentifiers": {
					"activeGames(string)": "d5a86a43",
					"hashThis(string,string)": "fef39572",
					"isInGame(address)": "76e033c7",
					"play(bytes32,string)": "14582b77",
					"reveal(string,string,string)": "fb9a3591",
					"withdraw(string)": "31fb67c2"
				}
			},
			"storageLayout": {
				"storage": [
					{
						"astId": 27,
						"contract": "oblig1/oblig1/RPS.sol:RPC",
						"label": "activeGames",
						"offset": 0,
						"slot": "0",
						"type": "t_mapping(t_string_memory_ptr,t_struct(Game)22_storage)"
					},
					{
						"astId": 31,
						"contract": "oblig1/oblig1/RPS.sol:RPC",
						"label": "isInGame",
						"offset": 0,
						"slot": "1",
						"type": "t_mapping(t_address,t_bool)"
					},
					{
						"astId": 52,
						"contract": "oblig1/oblig1/RPS.sol:RPC",
						"label": "minStake",
						"offset": 0,
						"slot": "2",
						"type": "t_uint256"
					}
				],
				"types": {
					"t_address": {
						"encoding": "inplace",
						"label": "address",
						"numberOfBytes": "20"
					},
					"t_bool": {
						"encoding": "inplace",
						"label": "bool",
						"numberOfBytes": "1"
					},
					"t_bytes32": {
						"encoding": "inplace",
						"label": "bytes32",
						"numberOfBytes": "32"
					},
					"t_mapping(t_address,t_bool)": {
						"encoding": "mapping",
						"key": "t_address",
						"label": "mapping(address => bool)",
						"numberOfBytes": "32",
						"value": "t_bool"
					},
					"t_mapping(t_string_memory_ptr,t_struct(Game)22_storage)": {
						"encoding": "mapping",
						"key": "t_string_memory_ptr",
						"label": "mapping(string => struct RPC.Game)",
						"numberOfBytes": "32",
						"value": "t_struct(Game)22_storage"
					},
					"t_string_memory_ptr": {
						"encoding": "bytes",
						"label": "string",
						"numberOfBytes": "32"
					},
					"t_string_storage": {
						"encoding": "bytes",
						"label": "string",
						"numberOfBytes": "32"
					},
					"t_struct(Game)22_storage": {
						"encoding": "inplace",
						"label": "struct RPC.Game",
						"members": [
							{
								"astId": 3,
								"contract": "oblig1/oblig1/RPS.sol:RPC",
								"label": "id",
								"offset": 0,
								"slot": "0",
								"type": "t_string_storage"
							},
							{
								"astId": 5,
								"contract": "oblig1/oblig1/RPS.sol:RPC",
								"label": "p1",
								"offset": 0,
								"slot": "1",
								"type": "t_address"
							},
							{
								"astId": 7,
								"contract": "oblig1/oblig1/RPS.sol:RPC",
								"label": "p2",
								"offset": 0,
								"slot": "2",
								"type": "t_address"
							},
							{
								"astId": 9,
								"contract": "oblig1/oblig1/RPS.sol:RPC",
								"label": "v1",
								"offset": 0,
								"slot": "3",
								"type": "t_bytes32"
							},
							{
								"astId": 11,
								"contract": "oblig1/oblig1/RPS.sol:RPC",
								"label": "v2",
								"offset": 0,
								"slot": "4",
								"type": "t_bytes32"
							},
							{
								"astId": 13,
								"contract": "oblig1/oblig1/RPS.sol:RPC",
								"label": "revealed",
								"offset": 0,
								"slot": "5",
								"type": "t_uint256"
							},
							{
								"astId": 15,
								"contract": "oblig1/oblig1/RPS.sol:RPC",
								"label": "revealer",
								"offset": 0,
								"slot": "6",
								"type": "t_address"
							},
							{
								"astId": 17,
								"contract": "oblig1/oblig1/RPS.sol:RPC",
								"label": "winner",
								"offset": 0,
								"slot": "7",
								"type": "t_address"
							},
							{
								"astId": 19,
								"contract": "oblig1/oblig1/RPS.sol:RPC",
								"label": "stake",
								"offset": 0,
								"slot": "8",
								"type": "t_uint256"
							},
							{
								"astId": 21,
								"contract": "oblig1/oblig1/RPS.sol:RPC",
								"label": "startTime",
								"offset": 0,
								"slot": "9",
								"type": "t_uint256"
							}
						],
						"numberOfBytes": "320"
					},
					"t_uint256": {
						"encoding": "inplace",
						"label": "uint256",
						"numberOfBytes": "32"
					}
				}
			},
			"userdoc": {
				"kind": "user",
				"methods": {},
				"version": 1
			}
		}
	}
}