{
	"contracts/Number.sol": {
		"Number": {
			"abi": [
				{
					"anonymous": false,
					"inputs": [
						{
							"indexed": false,
							"internalType": "uint256",
							"name": "oldValue",
							"type": "uint256"
						},
						{
							"indexed": false,
							"internalType": "uint256",
							"name": "newValue",
							"type": "uint256"
						}
					],
					"name": "NumberChanged",
					"type": "event"
				},
				{
					"inputs": [
						{
							"internalType": "uint256",
							"name": "a",
							"type": "uint256"
						},
						{
							"internalType": "uint256",
							"name": "b",
							"type": "uint256"
						}
					],
					"name": "adder",
					"outputs": [
						{
							"internalType": "uint256",
							"name": "",
							"type": "uint256"
						}
					],
					"stateMutability": "pure",
					"type": "function"
				},
				{
					"inputs": [],
					"name": "doubleNUmber",
					"outputs": [
						{
							"internalType": "uint256",
							"name": "",
							"type": "uint256"
						}
					],
					"stateMutability": "view",
					"type": "function"
				},
				{
					"inputs": [],
					"name": "number",
					"outputs": [
						{
							"internalType": "uint256",
							"name": "",
							"type": "uint256"
						}
					],
					"stateMutability": "view",
					"type": "function"
				},
				{
					"inputs": [
						{
							"internalType": "uint256",
							"name": "_num",
							"type": "uint256"
						}
					],
					"name": "setNumber",
					"outputs": [],
					"stateMutability": "nonpayable",
					"type": "function"
				}
			],
			"devdoc": {
				"kind": "dev",
				"methods": {},
				"version": 1
			},
			"evm": {
				"assembly": "    /* \"contracts/Number.sol\":60:514  contract Number {... */\n  mstore(0x40, 0x80)\n  callvalue\n  dup1\n  iszero\n  tag_1\n  jumpi\n  0x00\n  dup1\n  revert\ntag_1:\n  pop\n  dataSize(sub_0)\n  dup1\n  dataOffset(sub_0)\n  0x00\n  codecopy\n  0x00\n  return\nstop\n\nsub_0: assembly {\n        /* \"contracts/Number.sol\":60:514  contract Number {... */\n      mstore(0x40, 0x80)\n      callvalue\n      dup1\n      iszero\n      tag_1\n      jumpi\n      0x00\n      dup1\n      revert\n    tag_1:\n      pop\n      jumpi(tag_2, lt(calldatasize, 0x04))\n      shr(0xe0, calldataload(0x00))\n      dup1\n      0x06b034e9\n      eq\n      tag_3\n      jumpi\n      dup1\n      0x3fb5c1cb\n      eq\n      tag_4\n      jumpi\n      dup1\n      0x8381f58a\n      eq\n      tag_5\n      jumpi\n      dup1\n      0x84635ec7\n      eq\n      tag_6\n      jumpi\n    tag_2:\n      0x00\n      dup1\n      revert\n        /* \"contracts/Number.sol\":327:415  function adder(uint a, uint b) public pure returns (uint){... */\n    tag_3:\n      tag_7\n      0x04\n      dup1\n      calldatasize\n      sub\n      dup2\n      add\n      swap1\n      tag_8\n      swap2\n      swap1\n      tag_9\n      jump\t// in\n    tag_8:\n      tag_10\n      jump\t// in\n    tag_7:\n      mload(0x40)\n      tag_11\n      swap2\n      swap1\n      tag_12\n      jump\t// in\n    tag_11:\n      mload(0x40)\n      dup1\n      swap2\n      sub\n      swap1\n      return\n        /* \"contracts/Number.sol\":168:317  function setNumber(uint _num) public {... */\n    tag_4:\n      tag_13\n      0x04\n      dup1\n      calldatasize\n      sub\n      dup2\n      add\n      swap1\n      tag_14\n      swap2\n      swap1\n      tag_15\n      jump\t// in\n    tag_14:\n      tag_16\n      jump\t// in\n    tag_13:\n      stop\n        /* \"contracts/Number.sol\":83:101  uint public number */\n    tag_5:\n      tag_17\n      tag_18\n      jump\t// in\n    tag_17:\n      mload(0x40)\n      tag_19\n      swap2\n      swap1\n      tag_12\n      jump\t// in\n    tag_19:\n      mload(0x40)\n      dup1\n      swap2\n      sub\n      swap1\n      return\n        /* \"contracts/Number.sol\":423:509  function doubleNUmber() public view returns (uint){... */\n    tag_6:\n      tag_20\n      tag_21\n      jump\t// in\n    tag_20:\n      mload(0x40)\n      tag_22\n      swap2\n      swap1\n      tag_12\n      jump\t// in\n    tag_22:\n      mload(0x40)\n      dup1\n      swap2\n      sub\n      swap1\n      return\n        /* \"contracts/Number.sol\":327:415  function adder(uint a, uint b) public pure returns (uint){... */\n    tag_10:\n        /* \"contracts/Number.sol\":379:383  uint */\n      0x00\n        /* \"contracts/Number.sol\":406:407  b */\n      dup2\n        /* \"contracts/Number.sol\":404:405  a */\n      dup4\n        /* \"contracts/Number.sol\":404:407  a+b */\n      tag_24\n      swap2\n      swap1\n      tag_25\n      jump\t// in\n    tag_24:\n        /* \"contracts/Number.sol\":397:407  return a+b */\n      swap1\n      pop\n        /* \"contracts/Number.sol\":327:415  function adder(uint a, uint b) public pure returns (uint){... */\n      swap3\n      swap2\n      pop\n      pop\n      jump\t// out\n        /* \"contracts/Number.sol\":168:317  function setNumber(uint _num) public {... */\n    tag_16:\n        /* \"contracts/Number.sol\":216:229  uint oldValue */\n      0x00\n        /* \"contracts/Number.sol\":232:238  number */\n      dup1\n      sload\n        /* \"contracts/Number.sol\":216:238  uint oldValue = number */\n      swap1\n      pop\n        /* \"contracts/Number.sol\":258:262  _num */\n      dup2\n        /* \"contracts/Number.sol\":249:255  number */\n      0x00\n        /* \"contracts/Number.sol\":249:262  number = _num */\n      dup2\n      swap1\n      sstore\n      pop\n        /* \"contracts/Number.sol\":278:309  NumberChanged(oldValue, number) */\n      0x31431e8e0193815c649ffbfb9013954926640a5c67ada972108cdb5a47a0d728\n        /* \"contracts/Number.sol\":292:300  oldValue */\n      dup2\n        /* \"contracts/Number.sol\":302:308  number */\n      sload(0x00)\n        /* \"contracts/Number.sol\":278:309  NumberChanged(oldValue, number) */\n      mload(0x40)\n      tag_27\n      swap3\n      swap2\n      swap1\n      tag_28\n      jump\t// in\n    tag_27:\n      mload(0x40)\n      dup1\n      swap2\n      sub\n      swap1\n      log1\n        /* \"contracts/Number.sol\":205:317  {... */\n      pop\n        /* \"contracts/Number.sol\":168:317  function setNumber(uint _num) public {... */\n      pop\n      jump\t// out\n        /* \"contracts/Number.sol\":83:101  uint public number */\n    tag_18:\n      sload(0x00)\n      dup2\n      jump\t// out\n        /* \"contracts/Number.sol\":423:509  function doubleNUmber() public view returns (uint){... */\n    tag_21:\n        /* \"contracts/Number.sol\":468:472  uint */\n      0x00\n        /* \"contracts/Number.sol\":500:501  2 */\n      0x02\n        /* \"contracts/Number.sol\":491:497  number */\n      sload(0x00)\n        /* \"contracts/Number.sol\":491:501  number * 2 */\n      tag_30\n      swap2\n      swap1\n      tag_31\n      jump\t// in\n    tag_30:\n        /* \"contracts/Number.sol\":484:501  return number * 2 */\n      swap1\n      pop\n        /* \"contracts/Number.sol\":423:509  function doubleNUmber() public view returns (uint){... */\n      swap1\n      jump\t// out\n        /* \"#utility.yul\":88:205   */\n    tag_33:\n        /* \"#utility.yul\":197:198   */\n      0x00\n        /* \"#utility.yul\":194:195   */\n      dup1\n        /* \"#utility.yul\":187:199   */\n      revert\n        /* \"#utility.yul\":334:411   */\n    tag_35:\n        /* \"#utility.yul\":371:378   */\n      0x00\n        /* \"#utility.yul\":400:405   */\n      dup2\n        /* \"#utility.yul\":389:405   */\n      swap1\n      pop\n        /* \"#utility.yul\":334:411   */\n      swap2\n      swap1\n      pop\n      jump\t// out\n        /* \"#utility.yul\":417:539   */\n    tag_36:\n        /* \"#utility.yul\":490:514   */\n      tag_46\n        /* \"#utility.yul\":508:513   */\n      dup2\n        /* \"#utility.yul\":490:514   */\n      tag_35\n      jump\t// in\n    tag_46:\n        /* \"#utility.yul\":483:488   */\n      dup2\n        /* \"#utility.yul\":480:515   */\n      eq\n        /* \"#utility.yul\":470:533   */\n      tag_47\n      jumpi\n        /* \"#utility.yul\":529:530   */\n      0x00\n        /* \"#utility.yul\":526:527   */\n      dup1\n        /* \"#utility.yul\":519:531   */\n      revert\n        /* \"#utility.yul\":470:533   */\n    tag_47:\n        /* \"#utility.yul\":417:539   */\n      pop\n      jump\t// out\n        /* \"#utility.yul\":545:684   */\n    tag_37:\n        /* \"#utility.yul\":591:596   */\n      0x00\n        /* \"#utility.yul\":629:635   */\n      dup2\n        /* \"#utility.yul\":616:636   */\n      calldataload\n        /* \"#utility.yul\":607:636   */\n      swap1\n      pop\n        /* \"#utility.yul\":645:678   */\n      tag_49\n        /* \"#utility.yul\":672:677   */\n      dup2\n        /* \"#utility.yul\":645:678   */\n      tag_36\n      jump\t// in\n    tag_49:\n        /* \"#utility.yul\":545:684   */\n      swap3\n      swap2\n      pop\n      pop\n      jump\t// out\n        /* \"#utility.yul\":690:1164   */\n    tag_9:\n        /* \"#utility.yul\":758:764   */\n      0x00\n        /* \"#utility.yul\":766:772   */\n      dup1\n        /* \"#utility.yul\":815:817   */\n      0x40\n        /* \"#utility.yul\":803:812   */\n      dup4\n        /* \"#utility.yul\":794:801   */\n      dup6\n        /* \"#utility.yul\":790:813   */\n      sub\n        /* \"#utility.yul\":786:818   */\n      slt\n        /* \"#utility.yul\":783:902   */\n      iszero\n      tag_51\n      jumpi\n        /* \"#utility.yul\":821:900   */\n      tag_52\n      tag_33\n      jump\t// in\n    tag_52:\n        /* \"#utility.yul\":783:902   */\n    tag_51:\n        /* \"#utility.yul\":941:942   */\n      0x00\n        /* \"#utility.yul\":966:1019   */\n      tag_53\n        /* \"#utility.yul\":1011:1018   */\n      dup6\n        /* \"#utility.yul\":1002:1008   */\n      dup3\n        /* \"#utility.yul\":991:1000   */\n      dup7\n        /* \"#utility.yul\":987:1009   */\n      add\n        /* \"#utility.yul\":966:1019   */\n      tag_37\n      jump\t// in\n    tag_53:\n        /* \"#utility.yul\":956:1019   */\n      swap3\n      pop\n        /* \"#utility.yul\":912:1029   */\n      pop\n        /* \"#utility.yul\":1068:1070   */\n      0x20\n        /* \"#utility.yul\":1094:1147   */\n      tag_54\n        /* \"#utility.yul\":1139:1146   */\n      dup6\n        /* \"#utility.yul\":1130:1136   */\n      dup3\n        /* \"#utility.yul\":1119:1128   */\n      dup7\n        /* \"#utility.yul\":1115:1137   */\n      add\n        /* \"#utility.yul\":1094:1147   */\n      tag_37\n      jump\t// in\n    tag_54:\n        /* \"#utility.yul\":1084:1147   */\n      swap2\n      pop\n        /* \"#utility.yul\":1039:1157   */\n      pop\n        /* \"#utility.yul\":690:1164   */\n      swap3\n      pop\n      swap3\n      swap1\n      pop\n      jump\t// out\n        /* \"#utility.yul\":1170:1288   */\n    tag_38:\n        /* \"#utility.yul\":1257:1281   */\n      tag_56\n        /* \"#utility.yul\":1275:1280   */\n      dup2\n        /* \"#utility.yul\":1257:1281   */\n      tag_35\n      jump\t// in\n    tag_56:\n        /* \"#utility.yul\":1252:1255   */\n      dup3\n        /* \"#utility.yul\":1245:1282   */\n      mstore\n        /* \"#utility.yul\":1170:1288   */\n      pop\n      pop\n      jump\t// out\n        /* \"#utility.yul\":1294:1516   */\n    tag_12:\n        /* \"#utility.yul\":1387:1391   */\n      0x00\n        /* \"#utility.yul\":1425:1427   */\n      0x20\n        /* \"#utility.yul\":1414:1423   */\n      dup3\n        /* \"#utility.yul\":1410:1428   */\n      add\n        /* \"#utility.yul\":1402:1428   */\n      swap1\n      pop\n        /* \"#utility.yul\":1438:1509   */\n      tag_58\n        /* \"#utility.yul\":1506:1507   */\n      0x00\n        /* \"#utility.yul\":1495:1504   */\n      dup4\n        /* \"#utility.yul\":1491:1508   */\n      add\n        /* \"#utility.yul\":1482:1488   */\n      dup5\n        /* \"#utility.yul\":1438:1509   */\n      tag_38\n      jump\t// in\n    tag_58:\n        /* \"#utility.yul\":1294:1516   */\n      swap3\n      swap2\n      pop\n      pop\n      jump\t// out\n        /* \"#utility.yul\":1522:1851   */\n    tag_15:\n        /* \"#utility.yul\":1581:1587   */\n      0x00\n        /* \"#utility.yul\":1630:1632   */\n      0x20\n        /* \"#utility.yul\":1618:1627   */\n      dup3\n        /* \"#utility.yul\":1609:1616   */\n      dup5\n        /* \"#utility.yul\":1605:1628   */\n      sub\n        /* \"#utility.yul\":1601:1633   */\n      slt\n        /* \"#utility.yul\":1598:1717   */\n      iszero\n      tag_60\n      jumpi\n        /* \"#utility.yul\":1636:1715   */\n      tag_61\n      tag_33\n      jump\t// in\n    tag_61:\n        /* \"#utility.yul\":1598:1717   */\n    tag_60:\n        /* \"#utility.yul\":1756:1757   */\n      0x00\n        /* \"#utility.yul\":1781:1834   */\n      tag_62\n        /* \"#utility.yul\":1826:1833   */\n      dup5\n        /* \"#utility.yul\":1817:1823   */\n      dup3\n        /* \"#utility.yul\":1806:1815   */\n      dup6\n        /* \"#utility.yul\":1802:1824   */\n      add\n        /* \"#utility.yul\":1781:1834   */\n      tag_37\n      jump\t// in\n    tag_62:\n        /* \"#utility.yul\":1771:1834   */\n      swap2\n      pop\n        /* \"#utility.yul\":1727:1844   */\n      pop\n        /* \"#utility.yul\":1522:1851   */\n      swap3\n      swap2\n      pop\n      pop\n      jump\t// out\n        /* \"#utility.yul\":1857:2037   */\n    tag_39:\n        /* \"#utility.yul\":1905:1982   */\n      0x4e487b7100000000000000000000000000000000000000000000000000000000\n        /* \"#utility.yul\":1902:1903   */\n      0x00\n        /* \"#utility.yul\":1895:1983   */\n      mstore\n        /* \"#utility.yul\":2002:2006   */\n      0x11\n        /* \"#utility.yul\":1999:2000   */\n      0x04\n        /* \"#utility.yul\":1992:2007   */\n      mstore\n        /* \"#utility.yul\":2026:2030   */\n      0x24\n        /* \"#utility.yul\":2023:2024   */\n      0x00\n        /* \"#utility.yul\":2016:2031   */\n      revert\n        /* \"#utility.yul\":2043:2234   */\n    tag_25:\n        /* \"#utility.yul\":2083:2086   */\n      0x00\n        /* \"#utility.yul\":2102:2122   */\n      tag_65\n        /* \"#utility.yul\":2120:2121   */\n      dup3\n        /* \"#utility.yul\":2102:2122   */\n      tag_35\n      jump\t// in\n    tag_65:\n        /* \"#utility.yul\":2097:2122   */\n      swap2\n      pop\n        /* \"#utility.yul\":2136:2156   */\n      tag_66\n        /* \"#utility.yul\":2154:2155   */\n      dup4\n        /* \"#utility.yul\":2136:2156   */\n      tag_35\n      jump\t// in\n    tag_66:\n        /* \"#utility.yul\":2131:2156   */\n      swap3\n      pop\n        /* \"#utility.yul\":2179:2180   */\n      dup3\n        /* \"#utility.yul\":2176:2177   */\n      dup3\n        /* \"#utility.yul\":2172:2181   */\n      add\n        /* \"#utility.yul\":2165:2181   */\n      swap1\n      pop\n        /* \"#utility.yul\":2200:2203   */\n      dup1\n        /* \"#utility.yul\":2197:2198   */\n      dup3\n        /* \"#utility.yul\":2194:2204   */\n      gt\n        /* \"#utility.yul\":2191:2227   */\n      iszero\n      tag_67\n      jumpi\n        /* \"#utility.yul\":2207:2225   */\n      tag_68\n      tag_39\n      jump\t// in\n    tag_68:\n        /* \"#utility.yul\":2191:2227   */\n    tag_67:\n        /* \"#utility.yul\":2043:2234   */\n      swap3\n      swap2\n      pop\n      pop\n      jump\t// out\n        /* \"#utility.yul\":2240:2572   */\n    tag_28:\n        /* \"#utility.yul\":2361:2365   */\n      0x00\n        /* \"#utility.yul\":2399:2401   */\n      0x40\n        /* \"#utility.yul\":2388:2397   */\n      dup3\n        /* \"#utility.yul\":2384:2402   */\n      add\n        /* \"#utility.yul\":2376:2402   */\n      swap1\n      pop\n        /* \"#utility.yul\":2412:2483   */\n      tag_70\n        /* \"#utility.yul\":2480:2481   */\n      0x00\n        /* \"#utility.yul\":2469:2478   */\n      dup4\n        /* \"#utility.yul\":2465:2482   */\n      add\n        /* \"#utility.yul\":2456:2462   */\n      dup6\n        /* \"#utility.yul\":2412:2483   */\n      tag_38\n      jump\t// in\n    tag_70:\n        /* \"#utility.yul\":2493:2565   */\n      tag_71\n        /* \"#utility.yul\":2561:2563   */\n      0x20\n        /* \"#utility.yul\":2550:2559   */\n      dup4\n        /* \"#utility.yul\":2546:2564   */\n      add\n        /* \"#utility.yul\":2537:2543   */\n      dup5\n        /* \"#utility.yul\":2493:2565   */\n      tag_38\n      jump\t// in\n    tag_71:\n        /* \"#utility.yul\":2240:2572   */\n      swap4\n      swap3\n      pop\n      pop\n      pop\n      jump\t// out\n        /* \"#utility.yul\":2578:2988   */\n    tag_31:\n        /* \"#utility.yul\":2618:2625   */\n      0x00\n        /* \"#utility.yul\":2641:2661   */\n      tag_73\n        /* \"#utility.yul\":2659:2660   */\n      dup3\n        /* \"#utility.yul\":2641:2661   */\n      tag_35\n      jump\t// in\n    tag_73:\n        /* \"#utility.yul\":2636:2661   */\n      swap2\n      pop\n        /* \"#utility.yul\":2675:2695   */\n      tag_74\n        /* \"#utility.yul\":2693:2694   */\n      dup4\n        /* \"#utility.yul\":2675:2695   */\n      tag_35\n      jump\t// in\n    tag_74:\n        /* \"#utility.yul\":2670:2695   */\n      swap3\n      pop\n        /* \"#utility.yul\":2730:2731   */\n      dup3\n        /* \"#utility.yul\":2727:2728   */\n      dup3\n        /* \"#utility.yul\":2723:2732   */\n      mul\n        /* \"#utility.yul\":2752:2782   */\n      tag_75\n        /* \"#utility.yul\":2770:2781   */\n      dup2\n        /* \"#utility.yul\":2752:2782   */\n      tag_35\n      jump\t// in\n    tag_75:\n        /* \"#utility.yul\":2741:2782   */\n      swap2\n      pop\n        /* \"#utility.yul\":2931:2932   */\n      dup3\n        /* \"#utility.yul\":2922:2929   */\n      dup3\n        /* \"#utility.yul\":2918:2933   */\n      div\n        /* \"#utility.yul\":2915:2916   */\n      dup5\n        /* \"#utility.yul\":2912:2934   */\n      eq\n        /* \"#utility.yul\":2892:2893   */\n      dup4\n        /* \"#utility.yul\":2885:2894   */\n      iszero\n        /* \"#utility.yul\":2865:2948   */\n      or\n        /* \"#utility.yul\":2842:2981   */\n      tag_76\n      jumpi\n        /* \"#utility.yul\":2961:2979   */\n      tag_77\n      tag_39\n      jump\t// in\n    tag_77:\n        /* \"#utility.yul\":2842:2981   */\n    tag_76:\n        /* \"#utility.yul\":2626:2988   */\n      pop\n        /* \"#utility.yul\":2578:2988   */\n      swap3\n      swap2\n      pop\n      pop\n      jump\t// out\n\n    auxdata: 0xa26469706673582212200e66e0b6cd7ea82027128d6cf96abe74815c4d5f2d86dc13508dd6af4db401f564736f6c634300081a0033\n}\n",
				"bytecode": {
					"linkReferences": {},
					"object": "6080604052348015600e575f80fd5b506103138061001c5f395ff3fe608060405234801561000f575f80fd5b506004361061004a575f3560e01c806306b034e91461004e5780633fb5c1cb1461007e5780638381f58a1461009a57806384635ec7146100b8575b5f80fd5b61006860048036038101906100639190610184565b6100d6565b60405161007591906101d1565b60405180910390f35b610098600480360381019061009391906101ea565b6100eb565b005b6100a2610134565b6040516100af91906101d1565b60405180910390f35b6100c0610139565b6040516100cd91906101d1565b60405180910390f35b5f81836100e39190610242565b905092915050565b5f80549050815f819055507f31431e8e0193815c649ffbfb9013954926640a5c67ada972108cdb5a47a0d728815f54604051610128929190610275565b60405180910390a15050565b5f5481565b5f60025f54610148919061029c565b905090565b5f80fd5b5f819050919050565b61016381610151565b811461016d575f80fd5b50565b5f8135905061017e8161015a565b92915050565b5f806040838503121561019a5761019961014d565b5b5f6101a785828601610170565b92505060206101b885828601610170565b9150509250929050565b6101cb81610151565b82525050565b5f6020820190506101e45f8301846101c2565b92915050565b5f602082840312156101ff576101fe61014d565b5b5f61020c84828501610170565b91505092915050565b7f4e487b71000000000000000000000000000000000000000000000000000000005f52601160045260245ffd5b5f61024c82610151565b915061025783610151565b925082820190508082111561026f5761026e610215565b5b92915050565b5f6040820190506102885f8301856101c2565b61029560208301846101c2565b9392505050565b5f6102a682610151565b91506102b183610151565b92508282026102bf81610151565b915082820484148315176102d6576102d5610215565b5b509291505056fea26469706673582212200e66e0b6cd7ea82027128d6cf96abe74815c4d5f2d86dc13508dd6af4db401f564736f6c634300081a0033",
					"opcodes": "PUSH1 0x80 PUSH1 0x40 MSTORE CALLVALUE DUP1 ISZERO PUSH1 0xE JUMPI PUSH0 DUP1 REVERT JUMPDEST POP PUSH2 0x313 DUP1 PUSH2 0x1C PUSH0 CODECOPY PUSH0 RETURN INVALID PUSH1 0x80 PUSH1 0x40 MSTORE CALLVALUE DUP1 ISZERO PUSH2 0xF JUMPI PUSH0 DUP1 REVERT JUMPDEST POP PUSH1 0x4 CALLDATASIZE LT PUSH2 0x4A JUMPI PUSH0 CALLDATALOAD PUSH1 0xE0 SHR DUP1 PUSH4 0x6B034E9 EQ PUSH2 0x4E JUMPI DUP1 PUSH4 0x3FB5C1CB EQ PUSH2 0x7E JUMPI DUP1 PUSH4 0x8381F58A EQ PUSH2 0x9A JUMPI DUP1 PUSH4 0x84635EC7 EQ PUSH2 0xB8 JUMPI JUMPDEST PUSH0 DUP1 REVERT JUMPDEST PUSH2 0x68 PUSH1 0x4 DUP1 CALLDATASIZE SUB DUP2 ADD SWAP1 PUSH2 0x63 SWAP2 SWAP1 PUSH2 0x184 JUMP JUMPDEST PUSH2 0xD6 JUMP JUMPDEST PUSH1 0x40 MLOAD PUSH2 0x75 SWAP2 SWAP1 PUSH2 0x1D1 JUMP JUMPDEST PUSH1 0x40 MLOAD DUP1 SWAP2 SUB SWAP1 RETURN JUMPDEST PUSH2 0x98 PUSH1 0x4 DUP1 CALLDATASIZE SUB DUP2 ADD SWAP1 PUSH2 0x93 SWAP2 SWAP1 PUSH2 0x1EA JUMP JUMPDEST PUSH2 0xEB JUMP JUMPDEST STOP JUMPDEST PUSH2 0xA2 PUSH2 0x134 JUMP JUMPDEST PUSH1 0x40 MLOAD PUSH2 0xAF SWAP2 SWAP1 PUSH2 0x1D1 JUMP JUMPDEST PUSH1 0x40 MLOAD DUP1 SWAP2 SUB SWAP1 RETURN JUMPDEST PUSH2 0xC0 PUSH2 0x139 JUMP JUMPDEST PUSH1 0x40 MLOAD PUSH2 0xCD SWAP2 SWAP1 PUSH2 0x1D1 JUMP JUMPDEST PUSH1 0x40 MLOAD DUP1 SWAP2 SUB SWAP1 RETURN JUMPDEST PUSH0 DUP2 DUP4 PUSH2 0xE3 SWAP2 SWAP1 PUSH2 0x242 JUMP JUMPDEST SWAP1 POP SWAP3 SWAP2 POP POP JUMP JUMPDEST PUSH0 DUP1 SLOAD SWAP1 POP DUP2 PUSH0 DUP2 SWAP1 SSTORE POP PUSH32 0x31431E8E0193815C649FFBFB9013954926640A5C67ADA972108CDB5A47A0D728 DUP2 PUSH0 SLOAD PUSH1 0x40 MLOAD PUSH2 0x128 SWAP3 SWAP2 SWAP1 PUSH2 0x275 JUMP JUMPDEST PUSH1 0x40 MLOAD DUP1 SWAP2 SUB SWAP1 LOG1 POP POP JUMP JUMPDEST PUSH0 SLOAD DUP2 JUMP JUMPDEST PUSH0 PUSH1 0x2 PUSH0 SLOAD PUSH2 0x148 SWAP2 SWAP1 PUSH2 0x29C JUMP JUMPDEST SWAP1 POP SWAP1 JUMP JUMPDEST PUSH0 DUP1 REVERT JUMPDEST PUSH0 DUP2 SWAP1 POP SWAP2 SWAP1 POP JUMP JUMPDEST PUSH2 0x163 DUP2 PUSH2 0x151 JUMP JUMPDEST DUP2 EQ PUSH2 0x16D JUMPI PUSH0 DUP1 REVERT JUMPDEST POP JUMP JUMPDEST PUSH0 DUP2 CALLDATALOAD SWAP1 POP PUSH2 0x17E DUP2 PUSH2 0x15A JUMP JUMPDEST SWAP3 SWAP2 POP POP JUMP JUMPDEST PUSH0 DUP1 PUSH1 0x40 DUP4 DUP6 SUB SLT ISZERO PUSH2 0x19A JUMPI PUSH2 0x199 PUSH2 0x14D JUMP JUMPDEST JUMPDEST PUSH0 PUSH2 0x1A7 DUP6 DUP3 DUP7 ADD PUSH2 0x170 JUMP JUMPDEST SWAP3 POP POP PUSH1 0x20 PUSH2 0x1B8 DUP6 DUP3 DUP7 ADD PUSH2 0x170 JUMP JUMPDEST SWAP2 POP POP SWAP3 POP SWAP3 SWAP1 POP JUMP JUMPDEST PUSH2 0x1CB DUP2 PUSH2 0x151 JUMP JUMPDEST DUP3 MSTORE POP POP JUMP JUMPDEST PUSH0 PUSH1 0x20 DUP3 ADD SWAP1 POP PUSH2 0x1E4 PUSH0 DUP4 ADD DUP5 PUSH2 0x1C2 JUMP JUMPDEST SWAP3 SWAP2 POP POP JUMP JUMPDEST PUSH0 PUSH1 0x20 DUP3 DUP5 SUB SLT ISZERO PUSH2 0x1FF JUMPI PUSH2 0x1FE PUSH2 0x14D JUMP JUMPDEST JUMPDEST PUSH0 PUSH2 0x20C DUP5 DUP3 DUP6 ADD PUSH2 0x170 JUMP JUMPDEST SWAP2 POP POP SWAP3 SWAP2 POP POP JUMP JUMPDEST PUSH32 0x4E487B7100000000000000000000000000000000000000000000000000000000 PUSH0 MSTORE PUSH1 0x11 PUSH1 0x4 MSTORE PUSH1 0x24 PUSH0 REVERT JUMPDEST PUSH0 PUSH2 0x24C DUP3 PUSH2 0x151 JUMP JUMPDEST SWAP2 POP PUSH2 0x257 DUP4 PUSH2 0x151 JUMP JUMPDEST SWAP3 POP DUP3 DUP3 ADD SWAP1 POP DUP1 DUP3 GT ISZERO PUSH2 0x26F JUMPI PUSH2 0x26E PUSH2 0x215 JUMP JUMPDEST JUMPDEST SWAP3 SWAP2 POP POP JUMP JUMPDEST PUSH0 PUSH1 0x40 DUP3 ADD SWAP1 POP PUSH2 0x288 PUSH0 DUP4 ADD DUP6 PUSH2 0x1C2 JUMP JUMPDEST PUSH2 0x295 PUSH1 0x20 DUP4 ADD DUP5 PUSH2 0x1C2 JUMP JUMPDEST SWAP4 SWAP3 POP POP POP JUMP JUMPDEST PUSH0 PUSH2 0x2A6 DUP3 PUSH2 0x151 JUMP JUMPDEST SWAP2 POP PUSH2 0x2B1 DUP4 PUSH2 0x151 JUMP JUMPDEST SWAP3 POP DUP3 DUP3 MUL PUSH2 0x2BF DUP2 PUSH2 0x151 JUMP JUMPDEST SWAP2 POP DUP3 DUP3 DIV DUP5 EQ DUP4 ISZERO OR PUSH2 0x2D6 JUMPI PUSH2 0x2D5 PUSH2 0x215 JUMP JUMPDEST JUMPDEST POP SWAP3 SWAP2 POP POP JUMP INVALID LOG2 PUSH5 0x6970667358 0x22 SLT KECCAK256 0xE PUSH7 0xE0B6CD7EA82027 SLT DUP14 PUSH13 0xF96ABE74815C4D5F2D86DC1350 DUP14 0xD6 0xAF 0x4D 0xB4 ADD CREATE2 PUSH5 0x736F6C6343 STOP ADDMOD BYTE STOP CALLER "
				},
				"gasEstimates": {
					"creation": {
						"codeDepositCost": "157400",
						"executionCost": "200",
						"totalCost": "157600"
					},
					"external": {
						"adder(uint256,uint256)": "infinite",
						"doubleNUmber()": "infinite",
						"number()": "2446",
						"setNumber(uint256)": "infinite"
					}
				},
				"methodIdentifiers": {
					"adder(uint256,uint256)": "06b034e9",
					"doubleNUmber()": "84635ec7",
					"number()": "8381f58a",
					"setNumber(uint256)": "3fb5c1cb"
				}
			},
			"storageLayout": {
				"storage": [
					{
						"astId": 3,
						"contract": "contracts/Number.sol:Number",
						"label": "number",
						"offset": 0,
						"slot": "0",
						"type": "t_uint256"
					}
				],
				"types": {
					"t_uint256": {
						"encoding": "inplace",
						"label": "uint256",
						"numberOfBytes": "32"
					}
				}
			},
			"userdoc": {
				"kind": "user",
				"methods": {},
				"version": 1
			}
		}
	}
}